{
  "_format": "hh-sol-artifact-1",
  "contractName": "Token",
  "sourceName": "contracts/Token.sol",
  "abi": [
    {
      "inputs": [],
      "stateMutability": "nonpayable",
      "type": "constructor"
    },
    {
      "inputs": [],
      "name": "name",
      "outputs": [
        {
          "internalType": "string",
          "name": "",
          "type": "string"
        }
      ],
      "stateMutability": "view",
      "type": "function"
    },
    {
      "inputs": [],
      "name": "symbol",
      "outputs": [
        {
          "internalType": "string",
          "name": "",
          "type": "string"
        }
      ],
      "stateMutability": "view",
      "type": "function"
    },
    {
      "inputs": [],
      "name": "to",
      "outputs": [
        {
          "internalType": "address",
          "name": "",
          "type": "address"
        }
      ],
      "stateMutability": "view",
      "type": "function"
    },
    {
      "inputs": [],
      "name": "totalSupply",
      "outputs": [
        {
          "internalType": "uint256",
          "name": "",
          "type": "uint256"
        }
      ],
      "stateMutability": "view",
      "type": "function"
    },
    {
      "inputs": [
        {
          "internalType": "uint256",
          "name": "_amount",
          "type": "uint256"
        },
        {
          "internalType": "address",
          "name": "_to",
          "type": "address"
        }
      ],
      "name": "transferTokenRent",
      "outputs": [],
      "stateMutability": "payable",
      "type": "function"
    },
    {
      "inputs": [
        {
          "internalType": "uint256",
          "name": "_amount",
          "type": "uint256"
        }
      ],
      "name": "transferfee",
      "outputs": [],
      "stateMutability": "payable",
      "type": "function"
    }
  ],
  "bytecode": "0x60806040526040518060400160405280600f81526020017f446563656e74426e6220546f6b656e00000000000000000000000000000000008152506000908051906020019061004f929190610150565b506040518060400160405280600381526020017f44434200000000000000000000000000000000000000000000000000000000008152506001908051906020019061009b929190610150565b50620f4240600255738626f6940e2eb28930efb4cef49b2d1f2c9c1199600460006101000a81548173ffffffffffffffffffffffffffffffffffffffff021916908373ffffffffffffffffffffffffffffffffffffffff16021790555034801561010457600080fd5b50600254600360003373ffffffffffffffffffffffffffffffffffffffff1673ffffffffffffffffffffffffffffffffffffffff16815260200190815260200160002081905550610254565b82805461015c906101f3565b90600052602060002090601f01602090048101928261017e57600085556101c5565b82601f1061019757805160ff19168380011785556101c5565b828001600101855582156101c5579182015b828111156101c45782518255916020019190600101906101a9565b5b5090506101d291906101d6565b5090565b5b808211156101ef5760008160009055506001016101d7565b5090565b6000600282049050600182168061020b57607f821691505b6020821081141561021f5761021e610225565b5b50919050565b7f4e487b7100000000000000000000000000000000000000000000000000000000600052602260045260246000fd5b6108cf806102636000396000f3fe6080604052600436106100555760003560e01c806306fdde031461005a578063131519811461008557806318160ddd146100b057806335a7d68f146100db57806395d89b41146100f7578063cefedb3014610122575b600080fd5b34801561006657600080fd5b5061006f61013e565b60405161007c919061062f565b60405180910390f35b34801561009157600080fd5b5061009a6101cc565b6040516100a79190610614565b60405180910390f35b3480156100bc57600080fd5b506100c56101f2565b6040516100d29190610671565b60405180910390f35b6100f560048036038101906100f0919061055e565b6101f8565b005b34801561010357600080fd5b5061010c61032a565b604051610119919061062f565b60405180910390f35b61013c60048036038101906101379190610535565b6103b8565b005b6000805461014b906107a1565b80601f0160208091040260200160405190810160405280929190818152602001828054610177906107a1565b80156101c45780601f10610199576101008083540402835291602001916101c4565b820191906000526020600020905b8154815290600101906020018083116101a757829003601f168201915b505050505081565b600460009054906101000a900473ffffffffffffffffffffffffffffffffffffffff1681565b60025481565b81600360003373ffffffffffffffffffffffffffffffffffffffff1673ffffffffffffffffffffffffffffffffffffffff16815260200190815260200160002054101561027a576040517f08c379a000000000000000000000000000000000000000000000000000000000815260040161027190610651565b60405180910390fd5b81600360003373ffffffffffffffffffffffffffffffffffffffff1673ffffffffffffffffffffffffffffffffffffffff16815260200190815260200160002060008282546102c991906106fe565b9250508190555081600360008373ffffffffffffffffffffffffffffffffffffffff1673ffffffffffffffffffffffffffffffffffffffff168152602001908152602001600020600082825461031f91906106a8565b925050819055505050565b60018054610337906107a1565b80601f0160208091040260200160405190810160405280929190818152602001828054610363906107a1565b80156103b05780601f10610385576101008083540402835291602001916103b0565b820191906000526020600020905b81548152906001019060200180831161039357829003601f168201915b505050505081565b80600360003373ffffffffffffffffffffffffffffffffffffffff1673ffffffffffffffffffffffffffffffffffffffff16815260200190815260200160002054101561043a576040517f08c379a000000000000000000000000000000000000000000000000000000000815260040161043190610651565b60405180910390fd5b80600360003373ffffffffffffffffffffffffffffffffffffffff1673ffffffffffffffffffffffffffffffffffffffff168152602001908152602001600020600082825461048991906106fe565b925050819055508060036000600460009054906101000a900473ffffffffffffffffffffffffffffffffffffffff1673ffffffffffffffffffffffffffffffffffffffff1673ffffffffffffffffffffffffffffffffffffffff168152602001908152602001600020600082825461050191906106a8565b9250508190555050565b60008135905061051a8161086b565b92915050565b60008135905061052f81610882565b92915050565b60006020828403121561054757600080fd5b600061055584828501610520565b91505092915050565b6000806040838503121561057157600080fd5b600061057f85828601610520565b92505060206105908582860161050b565b9150509250929050565b6105a381610732565b82525050565b60006105b48261068c565b6105be8185610697565b93506105ce81856020860161076e565b6105d781610831565b840191505092915050565b60006105ef601183610697565b91506105fa82610842565b602082019050919050565b61060e81610764565b82525050565b6000602082019050610629600083018461059a565b92915050565b6000602082019050818103600083015261064981846105a9565b905092915050565b6000602082019050818103600083015261066a816105e2565b9050919050565b60006020820190506106866000830184610605565b92915050565b600081519050919050565b600082825260208201905092915050565b60006106b382610764565b91506106be83610764565b9250827fffffffffffffffffffffffffffffffffffffffffffffffffffffffffffffffff038211156106f3576106f26107d3565b5b828201905092915050565b600061070982610764565b915061071483610764565b925082821015610727576107266107d3565b5b828203905092915050565b600061073d82610744565b9050919050565b600073ffffffffffffffffffffffffffffffffffffffff82169050919050565b6000819050919050565b60005b8381101561078c578082015181840152602081019050610771565b8381111561079b576000848401525b50505050565b600060028204905060018216806107b957607f821691505b602082108114156107cd576107cc610802565b5b50919050565b7f4e487b7100000000000000000000000000000000000000000000000000000000600052601160045260246000fd5b7f4e487b7100000000000000000000000000000000000000000000000000000000600052602260045260246000fd5b6000601f19601f8301169050919050565b7f4e6f7420656e6f75676820746f6b656e73000000000000000000000000000000600082015250565b61087481610732565b811461087f57600080fd5b50565b61088b81610764565b811461089657600080fd5b5056fea2646970667358221220b9102a3456a4958ea23c4a6b0bbba0e98490d9a0224e57d3f7cf22db93f81baa64736f6c63430008040033",
  "linkReferences": {},
  "deployedLinkReferences": {}
}