{
  "_format": "hh-sol-artifact-1",
  "contractName": "Token",
  "sourceName": "contracts/Token.sol",
  "abi": [
    {
      "inputs": [],
      "stateMutability": "nonpayable",
      "type": "constructor"
    },
    {
      "anonymous": false,
      "inputs": [
        {
          "indexed": true,
          "internalType": "address",
          "name": "_from",
          "type": "address"
        },
        {
          "indexed": true,
          "internalType": "address",
          "name": "_to",
          "type": "address"
        },
        {
          "indexed": false,
          "internalType": "uint256",
          "name": "_value",
          "type": "uint256"
        }
      ],
      "name": "Transfer",
      "type": "event"
    },
    {
      "inputs": [
        {
          "internalType": "address",
          "name": "_account",
          "type": "address"
        }
      ],
      "name": "balanceOf",
      "outputs": [
        {
          "internalType": "uint256",
          "name": "",
          "type": "uint256"
        }
      ],
      "stateMutability": "view",
      "type": "function"
    },
    {
      "inputs": [
        {
          "internalType": "uint256",
          "name": "_tokens",
          "type": "uint256"
        }
      ],
      "name": "buy",
      "outputs": [],
      "stateMutability": "payable",
      "type": "function"
    },
    {
      "inputs": [],
      "name": "fee",
      "outputs": [
        {
          "internalType": "address payable",
          "name": "",
          "type": "address"
        }
      ],
      "stateMutability": "view",
      "type": "function"
    },
    {
      "inputs": [],
      "name": "getbalanceOf",
      "outputs": [
        {
          "internalType": "uint256",
          "name": "",
          "type": "uint256"
        }
      ],
      "stateMutability": "view",
      "type": "function"
    },
    {
      "inputs": [],
      "name": "name",
      "outputs": [
        {
          "internalType": "string",
          "name": "",
          "type": "string"
        }
      ],
      "stateMutability": "view",
      "type": "function"
    },
    {
      "inputs": [],
      "name": "symbol",
      "outputs": [
        {
          "internalType": "string",
          "name": "",
          "type": "string"
        }
      ],
      "stateMutability": "view",
      "type": "function"
    },
    {
      "inputs": [],
      "name": "totalSupply",
      "outputs": [
        {
          "internalType": "uint256",
          "name": "",
          "type": "uint256"
        }
      ],
      "stateMutability": "view",
      "type": "function"
    },
    {
      "inputs": [
        {
          "internalType": "uint256",
          "name": "_amount",
          "type": "uint256"
        },
        {
          "internalType": "address",
          "name": "_to",
          "type": "address"
        }
      ],
      "name": "transfer",
      "outputs": [],
      "stateMutability": "payable",
      "type": "function"
    },
    {
      "inputs": [
        {
          "internalType": "address",
          "name": "_from",
          "type": "address"
        },
        {
          "internalType": "address",
          "name": "_to",
          "type": "address"
        },
        {
          "internalType": "uint256",
          "name": "_amount",
          "type": "uint256"
        }
      ],
      "name": "transferFrom",
      "outputs": [],
      "stateMutability": "payable",
      "type": "function"
    },
    {
      "inputs": [
        {
          "internalType": "uint256",
          "name": "_amount",
          "type": "uint256"
        }
      ],
      "name": "transferfee",
      "outputs": [],
      "stateMutability": "payable",
      "type": "function"
    }
  ],
  "bytecode": "0x60806040526040518060600160405280602581526020016200115e6025913960009080519060200190620000359291906200017b565b506040518060400160405280600381526020017f444152000000000000000000000000000000000000000000000000000000000081525060019080519060200190620000839291906200017b565b50620f424060025573f39fd6e51aad88f6f4ce6ab8827279cfffb92266600460006101000a81548173ffffffffffffffffffffffffffffffffffffffff021916908373ffffffffffffffffffffffffffffffffffffffff160217905550348015620000ed57600080fd5b50600254600360003373ffffffffffffffffffffffffffffffffffffffff1673ffffffffffffffffffffffffffffffffffffffff1681526020019081526020016000208190555033600560006101000a81548173ffffffffffffffffffffffffffffffffffffffff021916908373ffffffffffffffffffffffffffffffffffffffff16021790555062000290565b82805462000189906200022b565b90600052602060002090601f016020900481019282620001ad5760008555620001f9565b82601f10620001c857805160ff1916838001178555620001f9565b82800160010185558215620001f9579182015b82811115620001f8578251825591602001919060010190620001db565b5b5090506200020891906200020c565b5090565b5b80821115620002275760008160009055506001016200020d565b5090565b600060028204905060018216806200024457607f821691505b602082108114156200025b576200025a62000261565b5b50919050565b7f4e487b7100000000000000000000000000000000000000000000000000000000600052602260045260246000fd5b610ebe80620002a06000396000f3fe6080604052600436106100915760003560e01c806395d89b411161005957806395d89b4114610170578063b7760c8f1461019b578063cefedb30146101b7578063d96a094a146101d3578063ddca3f43146101ef57610091565b806306fdde031461009657806318160ddd146100c157806323b872dd146100ec578063402a71d71461010857806370a0823114610133575b600080fd5b3480156100a257600080fd5b506100ab61021a565b6040516100b89190610c0c565b60405180910390f35b3480156100cd57600080fd5b506100d66102a8565b6040516100e39190610c4e565b60405180910390f35b61010660048036038101906101019190610ac3565b6102ae565b005b34801561011457600080fd5b5061011d610446565b60405161012a9190610c4e565b60405180910390f35b34801561013f57600080fd5b5061015a60048036038101906101559190610a9a565b61048d565b6040516101679190610c4e565b60405180910390f35b34801561017c57600080fd5b506101856104d6565b6040516101929190610c0c565b60405180910390f35b6101b560048036038101906101b09190610b3b565b610564565b005b6101d160048036038101906101cc9190610b12565b6106fb565b005b6101ed60048036038101906101e89190610b12565b6108d5565b005b3480156101fb57600080fd5b50610204610a4a565b6040516102119190610bf1565b60405180910390f35b6000805461022790610d90565b80601f016020809104026020016040519081016040528092919081815260200182805461025390610d90565b80156102a05780601f10610275576101008083540402835291602001916102a0565b820191906000526020600020905b81548152906001019060200180831161028357829003601f168201915b505050505081565b60025481565b600360008473ffffffffffffffffffffffffffffffffffffffff1673ffffffffffffffffffffffffffffffffffffffff16815260200190815260200160002054811115610330576040517f08c379a000000000000000000000000000000000000000000000000000000000815260040161032790610c2e565b60405180910390fd5b80600360008573ffffffffffffffffffffffffffffffffffffffff1673ffffffffffffffffffffffffffffffffffffffff168152602001908152602001600020600082825461037f9190610cdb565b9250508190555080600360008473ffffffffffffffffffffffffffffffffffffffff1673ffffffffffffffffffffffffffffffffffffffff16815260200190815260200160002060008282546103d59190610c85565b925050819055508173ffffffffffffffffffffffffffffffffffffffff168373ffffffffffffffffffffffffffffffffffffffff167fddf252ad1be2c89b69c2b068fc378daa952ba7f163c4a11628f55a4df523b3ef836040516104399190610c4e565b60405180910390a3505050565b6000600360003373ffffffffffffffffffffffffffffffffffffffff1673ffffffffffffffffffffffffffffffffffffffff16815260200190815260200160002054905090565b6000600360008373ffffffffffffffffffffffffffffffffffffffff1673ffffffffffffffffffffffffffffffffffffffff168152602001908152602001600020549050919050565b600180546104e390610d90565b80601f016020809104026020016040519081016040528092919081815260200182805461050f90610d90565b801561055c5780601f106105315761010080835404028352916020019161055c565b820191906000526020600020905b81548152906001019060200180831161053f57829003601f168201915b505050505081565b81600360003373ffffffffffffffffffffffffffffffffffffffff1673ffffffffffffffffffffffffffffffffffffffff1681526020019081526020016000205410156105e6576040517f08c379a00000000000000000000000000000000000000000000000000000000081526004016105dd90610c2e565b60405180910390fd5b81600360003373ffffffffffffffffffffffffffffffffffffffff1673ffffffffffffffffffffffffffffffffffffffff16815260200190815260200160002060008282546106359190610cdb565b9250508190555081600360008373ffffffffffffffffffffffffffffffffffffffff1673ffffffffffffffffffffffffffffffffffffffff168152602001908152602001600020600082825461068b9190610c85565b925050819055508073ffffffffffffffffffffffffffffffffffffffff163373ffffffffffffffffffffffffffffffffffffffff167fddf252ad1be2c89b69c2b068fc378daa952ba7f163c4a11628f55a4df523b3ef846040516106ef9190610c4e565b60405180910390a35050565b80600360003373ffffffffffffffffffffffffffffffffffffffff1673ffffffffffffffffffffffffffffffffffffffff16815260200190815260200160002054101561077d576040517f08c379a000000000000000000000000000000000000000000000000000000000815260040161077490610c2e565b60405180910390fd5b80600360003373ffffffffffffffffffffffffffffffffffffffff1673ffffffffffffffffffffffffffffffffffffffff16815260200190815260200160002060008282546107cc9190610cdb565b925050819055508060036000600460009054906101000a900473ffffffffffffffffffffffffffffffffffffffff1673ffffffffffffffffffffffffffffffffffffffff1673ffffffffffffffffffffffffffffffffffffffff16815260200190815260200160002060008282546108449190610c85565b92505081905550600460009054906101000a900473ffffffffffffffffffffffffffffffffffffffff1673ffffffffffffffffffffffffffffffffffffffff163373ffffffffffffffffffffffffffffffffffffffff167fddf252ad1be2c89b69c2b068fc378daa952ba7f163c4a11628f55a4df523b3ef836040516108ca9190610c4e565b60405180910390a350565b8060036000600560009054906101000a900473ffffffffffffffffffffffffffffffffffffffff1673ffffffffffffffffffffffffffffffffffffffff1673ffffffffffffffffffffffffffffffffffffffff168152602001908152602001600020541015610979576040517f08c379a000000000000000000000000000000000000000000000000000000000815260040161097090610c2e565b60405180910390fd5b80600360003373ffffffffffffffffffffffffffffffffffffffff1673ffffffffffffffffffffffffffffffffffffffff16815260200190815260200160002060008282546109c89190610c85565b925050819055508060036000600560009054906101000a900473ffffffffffffffffffffffffffffffffffffffff1673ffffffffffffffffffffffffffffffffffffffff1673ffffffffffffffffffffffffffffffffffffffff1681526020019081526020016000206000828254610a409190610cdb565b9250508190555050565b600460009054906101000a900473ffffffffffffffffffffffffffffffffffffffff1681565b600081359050610a7f81610e5a565b92915050565b600081359050610a9481610e71565b92915050565b600060208284031215610aac57600080fd5b6000610aba84828501610a70565b91505092915050565b600080600060608486031215610ad857600080fd5b6000610ae686828701610a70565b9350506020610af786828701610a70565b9250506040610b0886828701610a85565b9150509250925092565b600060208284031215610b2457600080fd5b6000610b3284828501610a85565b91505092915050565b60008060408385031215610b4e57600080fd5b6000610b5c85828601610a85565b9250506020610b6d85828601610a70565b9150509250929050565b610b8081610d21565b82525050565b6000610b9182610c69565b610b9b8185610c74565b9350610bab818560208601610d5d565b610bb481610e20565b840191505092915050565b6000610bcc601183610c74565b9150610bd782610e31565b602082019050919050565b610beb81610d53565b82525050565b6000602082019050610c066000830184610b77565b92915050565b60006020820190508181036000830152610c268184610b86565b905092915050565b60006020820190508181036000830152610c4781610bbf565b9050919050565b6000602082019050610c636000830184610be2565b92915050565b600081519050919050565b600082825260208201905092915050565b6000610c9082610d53565b9150610c9b83610d53565b9250827fffffffffffffffffffffffffffffffffffffffffffffffffffffffffffffffff03821115610cd057610ccf610dc2565b5b828201905092915050565b6000610ce682610d53565b9150610cf183610d53565b925082821015610d0457610d03610dc2565b5b828203905092915050565b6000610d1a82610d33565b9050919050565b6000610d2c82610d33565b9050919050565b600073ffffffffffffffffffffffffffffffffffffffff82169050919050565b6000819050919050565b60005b83811015610d7b578082015181840152602081019050610d60565b83811115610d8a576000848401525b50505050565b60006002820490506001821680610da857607f821691505b60208210811415610dbc57610dbb610df1565b5b50919050565b7f4e487b7100000000000000000000000000000000000000000000000000000000600052601160045260246000fd5b7f4e487b7100000000000000000000000000000000000000000000000000000000600052602260045260246000fd5b6000601f19601f8301169050919050565b7f4e6f7420656e6f75676820746f6b656e73000000000000000000000000000000600082015250565b610e6381610d0f565b8114610e6e57600080fd5b50565b610e7a81610d53565b8114610e8557600080fd5b5056fea2646970667358221220b1dc548dc66aba7da52bfb6dc2aea0e6531dc5d83608420615bde96230c05c1764736f6c63430008040033446563656e7472616c697a65642041706172746d656e742052656e74696e6720546f6b656e",
  "linkReferences": {},
  "deployedLinkReferences": {}
}