{
  "_format": "hh-sol-artifact-1",
  "contractName": "Token",
  "sourceName": "contracts/Token.sol",
  "abi": [
    {
      "inputs": [],
      "stateMutability": "nonpayable",
      "type": "constructor"
    },
    {
      "anonymous": false,
      "inputs": [
        {
          "indexed": true,
          "internalType": "address",
          "name": "_from",
          "type": "address"
        },
        {
          "indexed": true,
          "internalType": "address",
          "name": "_to",
          "type": "address"
        },
        {
          "indexed": false,
          "internalType": "uint256",
          "name": "_value",
          "type": "uint256"
        }
      ],
      "name": "Transfer",
      "type": "event"
    },
    {
      "inputs": [
        {
          "internalType": "address",
          "name": "_account",
          "type": "address"
        }
      ],
      "name": "balanceOf",
      "outputs": [
        {
          "internalType": "uint256",
          "name": "",
          "type": "uint256"
        }
      ],
      "stateMutability": "view",
      "type": "function"
    },
    {
      "inputs": [],
      "name": "name",
      "outputs": [
        {
          "internalType": "string",
          "name": "",
          "type": "string"
        }
      ],
      "stateMutability": "view",
      "type": "function"
    },
    {
      "inputs": [],
      "name": "symbol",
      "outputs": [
        {
          "internalType": "string",
          "name": "",
          "type": "string"
        }
      ],
      "stateMutability": "view",
      "type": "function"
    },
    {
      "inputs": [],
      "name": "totalSupply",
      "outputs": [
        {
          "internalType": "uint256",
          "name": "",
          "type": "uint256"
        }
      ],
      "stateMutability": "view",
      "type": "function"
    },
    {
      "inputs": [
        {
          "internalType": "uint256",
          "name": "_amount",
          "type": "uint256"
        },
        {
          "internalType": "address",
          "name": "_to",
          "type": "address"
        }
      ],
      "name": "transfer",
      "outputs": [],
      "stateMutability": "payable",
      "type": "function"
    },
    {
      "inputs": [
        {
          "internalType": "address",
          "name": "_from",
          "type": "address"
        },
        {
          "internalType": "address",
          "name": "_to",
          "type": "address"
        },
        {
          "internalType": "uint256",
          "name": "_amount",
          "type": "uint256"
        }
      ],
      "name": "transferFrom",
      "outputs": [],
      "stateMutability": "payable",
      "type": "function"
    },
    {
      "inputs": [
        {
          "internalType": "uint256",
          "name": "_amount",
          "type": "uint256"
        }
      ],
      "name": "transferfee",
      "outputs": [],
      "stateMutability": "payable",
      "type": "function"
    }
  ],
  "bytecode": "0x608060405260405180606001604052806025815260200162000e366025913960009080519060200190620000359291906200013a565b506040518060400160405280600381526020017f444152000000000000000000000000000000000000000000000000000000000081525060019080519060200190620000839291906200013a565b50620f4240600255738626f6940e2eb28930efb4cef49b2d1f2c9c1199600460006101000a81548173ffffffffffffffffffffffffffffffffffffffff021916908373ffffffffffffffffffffffffffffffffffffffff160217905550348015620000ed57600080fd5b50600254600360003373ffffffffffffffffffffffffffffffffffffffff1673ffffffffffffffffffffffffffffffffffffffff168152602001908152602001600020819055506200024f565b8280546200014890620001ea565b90600052602060002090601f0160209004810192826200016c5760008555620001b8565b82601f106200018757805160ff1916838001178555620001b8565b82800160010185558215620001b8579182015b82811115620001b75782518255916020019190600101906200019a565b5b509050620001c79190620001cb565b5090565b5b80821115620001e6576000816000905550600101620001cc565b5090565b600060028204905060018216806200020357607f821691505b602082108114156200021a576200021962000220565b5b50919050565b7f4e487b7100000000000000000000000000000000000000000000000000000000600052602260045260246000fd5b610bd7806200025f6000396000f3fe6080604052600436106100705760003560e01c806370a082311161004e57806370a08231146100e757806395d89b4114610124578063b7760c8f1461014f578063cefedb301461016b57610070565b806306fdde031461007557806318160ddd146100a057806323b872dd146100cb575b600080fd5b34801561008157600080fd5b5061008a610187565b6040516100979190610937565b60405180910390f35b3480156100ac57600080fd5b506100b5610215565b6040516100c29190610979565b60405180910390f35b6100e560048036038101906100e09190610818565b61021b565b005b3480156100f357600080fd5b5061010e600480360381019061010991906107ef565b61037d565b60405161011b9190610979565b60405180910390f35b34801561013057600080fd5b506101396103c6565b6040516101469190610937565b60405180910390f35b61016960048036038101906101649190610890565b610454565b005b61018560048036038101906101809190610867565b6105eb565b005b6000805461019490610aa9565b80601f01602080910402602001604051908101604052809291908181526020018280546101c090610aa9565b801561020d5780601f106101e25761010080835404028352916020019161020d565b820191906000526020600020905b8154815290600101906020018083116101f057829003601f168201915b505050505081565b60025481565b600360008473ffffffffffffffffffffffffffffffffffffffff1673ffffffffffffffffffffffffffffffffffffffff1681526020019081526020016000205481111561026757600080fd5b80600360008573ffffffffffffffffffffffffffffffffffffffff1673ffffffffffffffffffffffffffffffffffffffff16815260200190815260200160002060008282546102b69190610a06565b9250508190555080600360008473ffffffffffffffffffffffffffffffffffffffff1673ffffffffffffffffffffffffffffffffffffffff168152602001908152602001600020600082825461030c91906109b0565b925050819055508173ffffffffffffffffffffffffffffffffffffffff168373ffffffffffffffffffffffffffffffffffffffff167fddf252ad1be2c89b69c2b068fc378daa952ba7f163c4a11628f55a4df523b3ef836040516103709190610979565b60405180910390a3505050565b6000600360008373ffffffffffffffffffffffffffffffffffffffff1673ffffffffffffffffffffffffffffffffffffffff168152602001908152602001600020549050919050565b600180546103d390610aa9565b80601f01602080910402602001604051908101604052809291908181526020018280546103ff90610aa9565b801561044c5780601f106104215761010080835404028352916020019161044c565b820191906000526020600020905b81548152906001019060200180831161042f57829003601f168201915b505050505081565b81600360003373ffffffffffffffffffffffffffffffffffffffff1673ffffffffffffffffffffffffffffffffffffffff1681526020019081526020016000205410156104d6576040517f08c379a00000000000000000000000000000000000000000000000000000000081526004016104cd90610959565b60405180910390fd5b81600360003373ffffffffffffffffffffffffffffffffffffffff1673ffffffffffffffffffffffffffffffffffffffff16815260200190815260200160002060008282546105259190610a06565b9250508190555081600360008373ffffffffffffffffffffffffffffffffffffffff1673ffffffffffffffffffffffffffffffffffffffff168152602001908152602001600020600082825461057b91906109b0565b925050819055508073ffffffffffffffffffffffffffffffffffffffff163373ffffffffffffffffffffffffffffffffffffffff167fddf252ad1be2c89b69c2b068fc378daa952ba7f163c4a11628f55a4df523b3ef846040516105df9190610979565b60405180910390a35050565b80600360003373ffffffffffffffffffffffffffffffffffffffff1673ffffffffffffffffffffffffffffffffffffffff16815260200190815260200160002054101561066d576040517f08c379a000000000000000000000000000000000000000000000000000000000815260040161066490610959565b60405180910390fd5b80600360003373ffffffffffffffffffffffffffffffffffffffff1673ffffffffffffffffffffffffffffffffffffffff16815260200190815260200160002060008282546106bc9190610a06565b925050819055508060036000600460009054906101000a900473ffffffffffffffffffffffffffffffffffffffff1673ffffffffffffffffffffffffffffffffffffffff1673ffffffffffffffffffffffffffffffffffffffff168152602001908152602001600020600082825461073491906109b0565b92505081905550600460009054906101000a900473ffffffffffffffffffffffffffffffffffffffff1673ffffffffffffffffffffffffffffffffffffffff163373ffffffffffffffffffffffffffffffffffffffff167fddf252ad1be2c89b69c2b068fc378daa952ba7f163c4a11628f55a4df523b3ef836040516107ba9190610979565b60405180910390a350565b6000813590506107d481610b73565b92915050565b6000813590506107e981610b8a565b92915050565b60006020828403121561080157600080fd5b600061080f848285016107c5565b91505092915050565b60008060006060848603121561082d57600080fd5b600061083b868287016107c5565b935050602061084c868287016107c5565b925050604061085d868287016107da565b9150509250925092565b60006020828403121561087957600080fd5b6000610887848285016107da565b91505092915050565b600080604083850312156108a357600080fd5b60006108b1858286016107da565b92505060206108c2858286016107c5565b9150509250929050565b60006108d782610994565b6108e1818561099f565b93506108f1818560208601610a76565b6108fa81610b39565b840191505092915050565b600061091260118361099f565b915061091d82610b4a565b602082019050919050565b61093181610a6c565b82525050565b6000602082019050818103600083015261095181846108cc565b905092915050565b6000602082019050818103600083015261097281610905565b9050919050565b600060208201905061098e6000830184610928565b92915050565b600081519050919050565b600082825260208201905092915050565b60006109bb82610a6c565b91506109c683610a6c565b9250827fffffffffffffffffffffffffffffffffffffffffffffffffffffffffffffffff038211156109fb576109fa610adb565b5b828201905092915050565b6000610a1182610a6c565b9150610a1c83610a6c565b925082821015610a2f57610a2e610adb565b5b828203905092915050565b6000610a4582610a4c565b9050919050565b600073ffffffffffffffffffffffffffffffffffffffff82169050919050565b6000819050919050565b60005b83811015610a94578082015181840152602081019050610a79565b83811115610aa3576000848401525b50505050565b60006002820490506001821680610ac157607f821691505b60208210811415610ad557610ad4610b0a565b5b50919050565b7f4e487b7100000000000000000000000000000000000000000000000000000000600052601160045260246000fd5b7f4e487b7100000000000000000000000000000000000000000000000000000000600052602260045260246000fd5b6000601f19601f8301169050919050565b7f4e6f7420656e6f75676820746f6b656e73000000000000000000000000000000600082015250565b610b7c81610a3a565b8114610b8757600080fd5b50565b610b9381610a6c565b8114610b9e57600080fd5b5056fea2646970667358221220d5401ac20b48ac7ebe458ecc7c5fda543c7307c15daf4a79d120a7e8aac4e74c64736f6c63430008040033446563656e7472616c697a65642041706172746d656e742052656e74696e6720546f6b656e",
  "linkReferences": {},
  "deployedLinkReferences": {}
}