{
  "_format": "hh-sol-artifact-1",
  "contractName": "Token",
  "sourceName": "contracts/Token.sol",
  "abi": [
    {
      "inputs": [],
      "stateMutability": "nonpayable",
      "type": "constructor"
    },
    {
      "inputs": [
        {
          "internalType": "address",
          "name": "_account",
          "type": "address"
        }
      ],
      "name": "balanceOf",
      "outputs": [
        {
          "internalType": "uint256",
          "name": "",
          "type": "uint256"
        }
      ],
      "stateMutability": "view",
      "type": "function"
    },
    {
      "inputs": [],
      "name": "name",
      "outputs": [
        {
          "internalType": "string",
          "name": "",
          "type": "string"
        }
      ],
      "stateMutability": "view",
      "type": "function"
    },
    {
      "inputs": [],
      "name": "symbol",
      "outputs": [
        {
          "internalType": "string",
          "name": "",
          "type": "string"
        }
      ],
      "stateMutability": "view",
      "type": "function"
    },
    {
      "inputs": [],
      "name": "to",
      "outputs": [
        {
          "internalType": "address",
          "name": "",
          "type": "address"
        }
      ],
      "stateMutability": "view",
      "type": "function"
    },
    {
      "inputs": [],
      "name": "totalSupply",
      "outputs": [
        {
          "internalType": "uint256",
          "name": "",
          "type": "uint256"
        }
      ],
      "stateMutability": "view",
      "type": "function"
    },
    {
      "inputs": [
        {
          "internalType": "uint256",
          "name": "_amount",
          "type": "uint256"
        },
        {
          "internalType": "address",
          "name": "_to",
          "type": "address"
        }
      ],
      "name": "transferToken",
      "outputs": [],
      "stateMutability": "payable",
      "type": "function"
    },
    {
      "inputs": [
        {
          "internalType": "uint256",
          "name": "_amount",
          "type": "uint256"
        }
      ],
      "name": "transferfee",
      "outputs": [],
      "stateMutability": "payable",
      "type": "function"
    }
  ],
  "bytecode": "0x60806040526040518060400160405280600f81526020017f446563656e74426e6220546f6b656e00000000000000000000000000000000008152506000908051906020019061004f929190610150565b506040518060400160405280600381526020017f44434200000000000000000000000000000000000000000000000000000000008152506001908051906020019061009b929190610150565b50620f4240600255738626f6940e2eb28930efb4cef49b2d1f2c9c1199600460006101000a81548173ffffffffffffffffffffffffffffffffffffffff021916908373ffffffffffffffffffffffffffffffffffffffff16021790555034801561010457600080fd5b50600254600360003373ffffffffffffffffffffffffffffffffffffffff1673ffffffffffffffffffffffffffffffffffffffff16815260200190815260200160002081905550610254565b82805461015c906101f3565b90600052602060002090601f01602090048101928261017e57600085556101c5565b82601f1061019757805160ff19168380011785556101c5565b828001600101855582156101c5579182015b828111156101c45782518255916020019190600101906101a9565b5b5090506101d291906101d6565b5090565b5b808211156101ef5760008160009055506001016101d7565b5090565b6000600282049050600182168061020b57607f821691505b6020821081141561021f5761021e610225565b5b50919050565b7f4e487b7100000000000000000000000000000000000000000000000000000000600052602260045260246000fd5b610999806102636000396000f3fe6080604052600436106100705760003560e01c806370a082311161004e57806370a08231146100f657806395d89b4114610133578063bad425901461015e578063cefedb301461017a57610070565b806306fdde031461007557806313151981146100a057806318160ddd146100cb575b600080fd5b34801561008157600080fd5b5061008a610196565b60405161009791906106f9565b60405180910390f35b3480156100ac57600080fd5b506100b5610224565b6040516100c291906106de565b60405180910390f35b3480156100d757600080fd5b506100e061024a565b6040516100ed919061073b565b60405180910390f35b34801561010257600080fd5b5061011d600480360381019061011891906105d6565b610250565b60405161012a919061073b565b60405180910390f35b34801561013f57600080fd5b50610148610299565b60405161015591906106f9565b60405180910390f35b61017860048036038101906101739190610628565b610327565b005b610194600480360381019061018f91906105ff565b610459565b005b600080546101a39061086b565b80601f01602080910402602001604051908101604052809291908181526020018280546101cf9061086b565b801561021c5780601f106101f15761010080835404028352916020019161021c565b820191906000526020600020905b8154815290600101906020018083116101ff57829003601f168201915b505050505081565b600460009054906101000a900473ffffffffffffffffffffffffffffffffffffffff1681565b60025481565b6000600360008373ffffffffffffffffffffffffffffffffffffffff1673ffffffffffffffffffffffffffffffffffffffff168152602001908152602001600020549050919050565b600180546102a69061086b565b80601f01602080910402602001604051908101604052809291908181526020018280546102d29061086b565b801561031f5780601f106102f45761010080835404028352916020019161031f565b820191906000526020600020905b81548152906001019060200180831161030257829003601f168201915b505050505081565b81600360003373ffffffffffffffffffffffffffffffffffffffff1673ffffffffffffffffffffffffffffffffffffffff1681526020019081526020016000205410156103a9576040517f08c379a00000000000000000000000000000000000000000000000000000000081526004016103a09061071b565b60405180910390fd5b81600360003373ffffffffffffffffffffffffffffffffffffffff1673ffffffffffffffffffffffffffffffffffffffff16815260200190815260200160002060008282546103f891906107c8565b9250508190555081600360008373ffffffffffffffffffffffffffffffffffffffff1673ffffffffffffffffffffffffffffffffffffffff168152602001908152602001600020600082825461044e9190610772565b925050819055505050565b80600360003373ffffffffffffffffffffffffffffffffffffffff1673ffffffffffffffffffffffffffffffffffffffff1681526020019081526020016000205410156104db576040517f08c379a00000000000000000000000000000000000000000000000000000000081526004016104d29061071b565b60405180910390fd5b80600360003373ffffffffffffffffffffffffffffffffffffffff1673ffffffffffffffffffffffffffffffffffffffff168152602001908152602001600020600082825461052a91906107c8565b925050819055508060036000600460009054906101000a900473ffffffffffffffffffffffffffffffffffffffff1673ffffffffffffffffffffffffffffffffffffffff1673ffffffffffffffffffffffffffffffffffffffff16815260200190815260200160002060008282546105a29190610772565b9250508190555050565b6000813590506105bb81610935565b92915050565b6000813590506105d08161094c565b92915050565b6000602082840312156105e857600080fd5b60006105f6848285016105ac565b91505092915050565b60006020828403121561061157600080fd5b600061061f848285016105c1565b91505092915050565b6000806040838503121561063b57600080fd5b6000610649858286016105c1565b925050602061065a858286016105ac565b9150509250929050565b61066d816107fc565b82525050565b600061067e82610756565b6106888185610761565b9350610698818560208601610838565b6106a1816108fb565b840191505092915050565b60006106b9601183610761565b91506106c48261090c565b602082019050919050565b6106d88161082e565b82525050565b60006020820190506106f36000830184610664565b92915050565b600060208201905081810360008301526107138184610673565b905092915050565b60006020820190508181036000830152610734816106ac565b9050919050565b600060208201905061075060008301846106cf565b92915050565b600081519050919050565b600082825260208201905092915050565b600061077d8261082e565b91506107888361082e565b9250827fffffffffffffffffffffffffffffffffffffffffffffffffffffffffffffffff038211156107bd576107bc61089d565b5b828201905092915050565b60006107d38261082e565b91506107de8361082e565b9250828210156107f1576107f061089d565b5b828203905092915050565b60006108078261080e565b9050919050565b600073ffffffffffffffffffffffffffffffffffffffff82169050919050565b6000819050919050565b60005b8381101561085657808201518184015260208101905061083b565b83811115610865576000848401525b50505050565b6000600282049050600182168061088357607f821691505b60208210811415610897576108966108cc565b5b50919050565b7f4e487b7100000000000000000000000000000000000000000000000000000000600052601160045260246000fd5b7f4e487b7100000000000000000000000000000000000000000000000000000000600052602260045260246000fd5b6000601f19601f8301169050919050565b7f4e6f7420656e6f75676820746f6b656e73000000000000000000000000000000600082015250565b61093e816107fc565b811461094957600080fd5b50565b6109558161082e565b811461096057600080fd5b5056fea26469706673582212201666db13affd0491585b3a02764b29c2ecfd26724eaf04bd9ff86a35a99efabf64736f6c63430008040033",
  "linkReferences": {},
  "deployedLinkReferences": {}
}