{
  "_format": "hh-sol-artifact-1",
  "contractName": "Token",
  "sourceName": "contracts/Token.sol",
  "abi": [
    {
      "inputs": [],
      "stateMutability": "nonpayable",
      "type": "constructor"
    },
    {
      "inputs": [
        {
          "internalType": "address",
          "name": "_account",
          "type": "address"
        }
      ],
      "name": "balanceOf",
      "outputs": [
        {
          "internalType": "uint256",
          "name": "",
          "type": "uint256"
        }
      ],
      "stateMutability": "view",
      "type": "function"
    },
    {
      "inputs": [],
      "name": "name",
      "outputs": [
        {
          "internalType": "string",
          "name": "",
          "type": "string"
        }
      ],
      "stateMutability": "view",
      "type": "function"
    },
    {
      "inputs": [],
      "name": "symbol",
      "outputs": [
        {
          "internalType": "string",
          "name": "",
          "type": "string"
        }
      ],
      "stateMutability": "view",
      "type": "function"
    },
    {
      "inputs": [],
      "name": "to",
      "outputs": [
        {
          "internalType": "address",
          "name": "",
          "type": "address"
        }
      ],
      "stateMutability": "view",
      "type": "function"
    },
    {
      "inputs": [],
      "name": "totalSupply",
      "outputs": [
        {
          "internalType": "uint256",
          "name": "",
          "type": "uint256"
        }
      ],
      "stateMutability": "view",
      "type": "function"
    },
    {
      "inputs": [
        {
          "internalType": "uint256",
          "name": "_amount",
          "type": "uint256"
        }
      ],
      "name": "transfer",
      "outputs": [],
      "stateMutability": "nonpayable",
      "type": "function"
    }
  ],
  "bytecode": "0x60806040526040518060400160405280600f81526020017f446563656e74426e6220546f6b656e00000000000000000000000000000000008152506000908051906020019061004f929190610150565b506040518060400160405280600381526020017f44434200000000000000000000000000000000000000000000000000000000008152506001908051906020019061009b929190610150565b50620f4240600255738626f6940e2eb28930efb4cef49b2d1f2c9c1199600460006101000a81548173ffffffffffffffffffffffffffffffffffffffff021916908373ffffffffffffffffffffffffffffffffffffffff16021790555034801561010457600080fd5b50600254600360003373ffffffffffffffffffffffffffffffffffffffff1673ffffffffffffffffffffffffffffffffffffffff16815260200190815260200160002081905550610254565b82805461015c906101f3565b90600052602060002090601f01602090048101928261017e57600085556101c5565b82601f1061019757805160ff19168380011785556101c5565b828001600101855582156101c5579182015b828111156101c45782518255916020019190600101906101a9565b5b5090506101d291906101d6565b5090565b5b808211156101ef5760008160009055506001016101d7565b5090565b6000600282049050600182168061020b57607f821691505b6020821081141561021f5761021e610225565b5b50919050565b7f4e487b7100000000000000000000000000000000000000000000000000000000600052602260045260246000fd5b6107c0806102636000396000f3fe608060405234801561001057600080fd5b50600436106100625760003560e01c806306fdde031461006757806312514bba1461008557806313151981146100a157806318160ddd146100bf57806370a08231146100dd57806395d89b411461010d575b600080fd5b61006f61012b565b60405161007c9190610520565b60405180910390f35b61009f600480360381019061009a9190610462565b6101b9565b005b6100a961030c565b6040516100b69190610505565b60405180910390f35b6100c7610332565b6040516100d49190610562565b60405180910390f35b6100f760048036038101906100f29190610439565b610338565b6040516101049190610562565b60405180910390f35b610115610381565b6040516101229190610520565b60405180910390f35b6000805461013890610692565b80601f016020809104026020016040519081016040528092919081815260200182805461016490610692565b80156101b15780601f10610186576101008083540402835291602001916101b1565b820191906000526020600020905b81548152906001019060200180831161019457829003601f168201915b505050505081565b80600360003373ffffffffffffffffffffffffffffffffffffffff1673ffffffffffffffffffffffffffffffffffffffff16815260200190815260200160002054101561023b576040517f08c379a000000000000000000000000000000000000000000000000000000000815260040161023290610542565b60405180910390fd5b80600360003373ffffffffffffffffffffffffffffffffffffffff1673ffffffffffffffffffffffffffffffffffffffff168152602001908152602001600020600082825461028a91906105ef565b925050819055508060036000600460009054906101000a900473ffffffffffffffffffffffffffffffffffffffff1673ffffffffffffffffffffffffffffffffffffffff1673ffffffffffffffffffffffffffffffffffffffff16815260200190815260200160002060008282546103029190610599565b9250508190555050565b600460009054906101000a900473ffffffffffffffffffffffffffffffffffffffff1681565b60025481565b6000600360008373ffffffffffffffffffffffffffffffffffffffff1673ffffffffffffffffffffffffffffffffffffffff168152602001908152602001600020549050919050565b6001805461038e90610692565b80601f01602080910402602001604051908101604052809291908181526020018280546103ba90610692565b80156104075780601f106103dc57610100808354040283529160200191610407565b820191906000526020600020905b8154815290600101906020018083116103ea57829003601f168201915b505050505081565b60008135905061041e8161075c565b92915050565b60008135905061043381610773565b92915050565b60006020828403121561044b57600080fd5b60006104598482850161040f565b91505092915050565b60006020828403121561047457600080fd5b600061048284828501610424565b91505092915050565b61049481610623565b82525050565b60006104a58261057d565b6104af8185610588565b93506104bf81856020860161065f565b6104c881610722565b840191505092915050565b60006104e0601183610588565b91506104eb82610733565b602082019050919050565b6104ff81610655565b82525050565b600060208201905061051a600083018461048b565b92915050565b6000602082019050818103600083015261053a818461049a565b905092915050565b6000602082019050818103600083015261055b816104d3565b9050919050565b600060208201905061057760008301846104f6565b92915050565b600081519050919050565b600082825260208201905092915050565b60006105a482610655565b91506105af83610655565b9250827fffffffffffffffffffffffffffffffffffffffffffffffffffffffffffffffff038211156105e4576105e36106c4565b5b828201905092915050565b60006105fa82610655565b915061060583610655565b925082821015610618576106176106c4565b5b828203905092915050565b600061062e82610635565b9050919050565b600073ffffffffffffffffffffffffffffffffffffffff82169050919050565b6000819050919050565b60005b8381101561067d578082015181840152602081019050610662565b8381111561068c576000848401525b50505050565b600060028204905060018216806106aa57607f821691505b602082108114156106be576106bd6106f3565b5b50919050565b7f4e487b7100000000000000000000000000000000000000000000000000000000600052601160045260246000fd5b7f4e487b7100000000000000000000000000000000000000000000000000000000600052602260045260246000fd5b6000601f19601f8301169050919050565b7f4e6f7420656e6f75676820746f6b656e73000000000000000000000000000000600082015250565b61076581610623565b811461077057600080fd5b50565b61077c81610655565b811461078757600080fd5b5056fea26469706673582212203416f8bb8ba2010d56143f7b96169b8c36c66118b299e4e297b8a62655c1748864736f6c63430008040033",
  "linkReferences": {},
  "deployedLinkReferences": {}
}