{
  "_format": "hh-sol-artifact-1",
  "contractName": "ApartmentCreator",
  "sourceName": "contracts/ApartmentRent.sol",
  "abi": [
    {
      "anonymous": false,
      "inputs": [
        {
          "indexed": true,
          "internalType": "uint256",
          "name": "apartmentsId",
          "type": "uint256"
        },
        {
          "indexed": false,
          "internalType": "address",
          "name": "ownerAp",
          "type": "address"
        },
        {
          "indexed": false,
          "internalType": "address",
          "name": "renterAp",
          "type": "address"
        },
        {
          "indexed": false,
          "internalType": "uint256",
          "name": "price",
          "type": "uint256"
        },
        {
          "indexed": false,
          "internalType": "bool",
          "name": "rented",
          "type": "bool"
        }
      ],
      "name": "ApartmentCreated",
      "type": "event"
    },
    {
      "inputs": [
        {
          "internalType": "uint256",
          "name": "_apartmentId",
          "type": "uint256"
        }
      ],
      "name": "apartmentOwner",
      "outputs": [
        {
          "internalType": "address",
          "name": "",
          "type": "address"
        }
      ],
      "stateMutability": "view",
      "type": "function"
    },
    {
      "inputs": [
        {
          "internalType": "uint256",
          "name": "_apartmentId",
          "type": "uint256"
        }
      ],
      "name": "apartmentPrice",
      "outputs": [
        {
          "internalType": "uint256",
          "name": "",
          "type": "uint256"
        }
      ],
      "stateMutability": "view",
      "type": "function"
    },
    {
      "inputs": [
        {
          "internalType": "uint256",
          "name": "_apartmentId",
          "type": "uint256"
        }
      ],
      "name": "apartmentRent",
      "outputs": [],
      "stateMutability": "payable",
      "type": "function"
    },
    {
      "inputs": [
        {
          "internalType": "uint256",
          "name": "_price",
          "type": "uint256"
        }
      ],
      "name": "createApartment",
      "outputs": [],
      "stateMutability": "payable",
      "type": "function"
    },
    {
      "inputs": [],
      "name": "fee",
      "outputs": [
        {
          "internalType": "uint256",
          "name": "",
          "type": "uint256"
        }
      ],
      "stateMutability": "view",
      "type": "function"
    },
    {
      "inputs": [
        {
          "internalType": "uint256",
          "name": "_apartmentId",
          "type": "uint256"
        }
      ],
      "name": "getApartmentOwner",
      "outputs": [
        {
          "internalType": "address",
          "name": "",
          "type": "address"
        }
      ],
      "stateMutability": "view",
      "type": "function"
    },
    {
      "inputs": [
        {
          "internalType": "uint256",
          "name": "_apartmentId",
          "type": "uint256"
        }
      ],
      "name": "getApartmentPrice",
      "outputs": [
        {
          "internalType": "uint256",
          "name": "",
          "type": "uint256"
        }
      ],
      "stateMutability": "view",
      "type": "function"
    },
    {
      "inputs": [
        {
          "internalType": "uint256",
          "name": "_apartmentId",
          "type": "uint256"
        }
      ],
      "name": "getApartmentRenter",
      "outputs": [
        {
          "internalType": "address",
          "name": "",
          "type": "address"
        }
      ],
      "stateMutability": "view",
      "type": "function"
    },
    {
      "inputs": [
        {
          "internalType": "uint256",
          "name": "",
          "type": "uint256"
        }
      ],
      "name": "idToApartment",
      "outputs": [
        {
          "internalType": "uint256",
          "name": "apartmentsId",
          "type": "uint256"
        },
        {
          "internalType": "address payable",
          "name": "ownerAp",
          "type": "address"
        },
        {
          "internalType": "address payable",
          "name": "renterAp",
          "type": "address"
        },
        {
          "internalType": "uint256",
          "name": "price",
          "type": "uint256"
        },
        {
          "internalType": "bool",
          "name": "rented",
          "type": "bool"
        }
      ],
      "stateMutability": "view",
      "type": "function"
    },
    {
      "inputs": [
        {
          "internalType": "uint256",
          "name": "_apartmentId",
          "type": "uint256"
        }
      ],
      "name": "isRented",
      "outputs": [
        {
          "internalType": "uint256",
          "name": "",
          "type": "uint256"
        }
      ],
      "stateMutability": "view",
      "type": "function"
    },
    {
      "inputs": [],
      "name": "owner",
      "outputs": [
        {
          "internalType": "address payable",
          "name": "",
          "type": "address"
        }
      ],
      "stateMutability": "view",
      "type": "function"
    },
    {
      "inputs": [
        {
          "internalType": "uint256",
          "name": "_apartmentId",
          "type": "uint256"
        }
      ],
      "name": "ownerResetApartment",
      "outputs": [],
      "stateMutability": "nonpayable",
      "type": "function"
    },
    {
      "inputs": [],
      "name": "state",
      "outputs": [
        {
          "internalType": "enum ApartmentCreator.State",
          "name": "",
          "type": "uint8"
        }
      ],
      "stateMutability": "view",
      "type": "function"
    }
  ],
  "bytecode": "0x60806040523480156200001157600080fd5b506200005d6040518060400160405280601f81526020017f4372656174696e67206e65772061706172746d656e7420666163746f72793a00815250620000a460201b62000a6b1760201c565b33600160006101000a81548173ffffffffffffffffffffffffffffffffffffffff021916908373ffffffffffffffffffffffffffffffffffffffff16021790555062000238565b6200014481604051602401620000bb9190620001b1565b6040516020818303038152906040527f41304fac000000000000000000000000000000000000000000000000000000007bffffffffffffffffffffffffffffffffffffffffffffffffffffffff19166020820180517bffffffffffffffffffffffffffffffffffffffffffffffffffffffff83818316178352505050506200014760201b60201c565b50565b60008151905060006a636f6e736f6c652e6c6f679050602083016000808483855afa5050505050565b60006200017d82620001d5565b620001898185620001e0565b93506200019b818560208601620001f1565b620001a68162000227565b840191505092915050565b60006020820190508181036000830152620001cd818462000170565b905092915050565b600081519050919050565b600082825260208201905092915050565b60005b8381101562000211578082015181840152602081019050620001f4565b8381111562000221576000848401525b50505050565b6000601f19601f8301169050919050565b61113080620002486000396000f3fe6080604052600436106100c25760003560e01c80638ebc0b3c1161007f578063c19d93fb11610059578063c19d93fb14610288578063ddca3f43146102b3578063ec52a592146102de578063fe5ec9ba1461031b576100c2565b80638ebc0b3c146101e55780639f1070f414610222578063aa15d40f1461024b576100c2565b806314f29e09146100c757806340c8b20c1461010857806367b2be1f1461012457806380f34c69146101615780638d558cc11461017d5780638da5cb5b146101ba575b600080fd5b3480156100d357600080fd5b506100ee60048036038101906100e99190610b66565b610358565b6040516100ff959493929190610e78565b60405180910390f35b610122600480360381019061011d9190610b66565b6103db565b005b34801561013057600080fd5b5061014b60048036038101906101469190610b66565b6105a9565b6040516101589190610ce5565b60405180910390f35b61017b60048036038101906101769190610b66565b610659565b005b34801561018957600080fd5b506101a4600480360381019061019f9190610b66565b61074a565b6040516101b19190610ce5565b60405180910390f35b3480156101c657600080fd5b506101cf61078f565b6040516101dc9190610d00565b60405180910390f35b3480156101f157600080fd5b5061020c60048036038101906102079190610b66565b6107b5565b6040516102199190610e5d565b60405180910390f35b34801561022e57600080fd5b5061024960048036038101906102449190610b66565b6107da565b005b34801561025757600080fd5b50610272600480360381019061026d9190610b66565b6109aa565b60405161027f9190610e5d565b60405180910390f35b34801561029457600080fd5b5061029d6109e8565b6040516102aa9190610d60565b60405180910390f35b3480156102bf57600080fd5b506102c86109fb565b6040516102d59190610e5d565b60405180910390f35b3480156102ea57600080fd5b5061030560048036038101906103009190610b66565b610a01565b6040516103129190610e5d565b60405180910390f35b34801561032757600080fd5b50610342600480360381019061033d9190610b66565b610a26565b60405161034f9190610ce5565b60405180910390f35b60026020528060005260406000206000915090508060000154908060010160009054906101000a900473ffffffffffffffffffffffffffffffffffffffff16908060020160009054906101000a900473ffffffffffffffffffffffffffffffffffffffff16908060030154908060040160009054906101000a900460ff16905085565b6000811161041e576040517f08c379a000000000000000000000000000000000000000000000000000000000815260040161041590610e1d565b60405180910390fd5b6104286000610b04565b60006104346000610b1a565b90506040518060a001604052808281526020013373ffffffffffffffffffffffffffffffffffffffff168152602001600073ffffffffffffffffffffffffffffffffffffffff16815260200183815260200160001515815250600260008381526020019081526020016000206000820151816000015560208201518160010160006101000a81548173ffffffffffffffffffffffffffffffffffffffff021916908373ffffffffffffffffffffffffffffffffffffffff16021790555060408201518160020160006101000a81548173ffffffffffffffffffffffffffffffffffffffff021916908373ffffffffffffffffffffffffffffffffffffffff1602179055506060820151816003015560808201518160040160006101000a81548160ff021916908315150217905550905050807f2439c9df5317aa6c4c3639e0e0b3f2cdacd6daf5f5393cbf2142da87441a67f933600085600060405161059d9493929190610d1b565b60405180910390a25050565b6000600115156002600084815260200190815260200160002060040160009054906101000a900460ff16151514610615576040517f08c379a000000000000000000000000000000000000000000000000000000000815260040161060c90610dbd565b60405180910390fd5b60006002600084815260200190815260200160002060020160009054906101000a900473ffffffffffffffffffffffffffffffffffffffff16905080915050919050565b600015156002600083815260200190815260200160002060040160009054906101000a900460ff161515146106c3576040517f08c379a00000000000000000000000000000000000000000000000000000000081526004016106ba90610e3d565b60405180910390fd5b336002600083815260200190815260200160002060020160006101000a81548173ffffffffffffffffffffffffffffffffffffffff021916908373ffffffffffffffffffffffffffffffffffffffff16021790555060016002600083815260200190815260200160002060040160006101000a81548160ff02191690831515021790555050565b6000806002600084815260200190815260200160002060010160009054906101000a900473ffffffffffffffffffffffffffffffffffffffff16905080915050919050565b600160009054906101000a900473ffffffffffffffffffffffffffffffffffffffff1681565b6000806002600084815260200190815260200160002060030154905080915050919050565b600160009054906101000a900473ffffffffffffffffffffffffffffffffffffffff1673ffffffffffffffffffffffffffffffffffffffff163373ffffffffffffffffffffffffffffffffffffffff161461086a576040517f08c379a000000000000000000000000000000000000000000000000000000000815260040161086190610d9d565b60405180910390fd5b3373ffffffffffffffffffffffffffffffffffffffff166002600083815260200190815260200160002060010160009054906101000a900473ffffffffffffffffffffffffffffffffffffffff1673ffffffffffffffffffffffffffffffffffffffff161461090e576040517f08c379a000000000000000000000000000000000000000000000000000000000815260040161090590610ddd565b60405180910390fd5b600115156002600083815260200190815260200160002060040160009054906101000a900460ff16151514610978576040517f08c379a000000000000000000000000000000000000000000000000000000000815260040161096f90610dfd565b60405180910390fd5b60006002600083815260200190815260200160002060040160006101000a81548160ff02191690831515021790555050565b60006002600083815260200190815260200160002060040160009054906101000a900460ff16156109de57600190506109e3565b600090505b919050565b600460009054906101000a900460ff1681565b60035481565b6000806002600084815260200190815260200160002060030154905080915050919050565b6000806002600084815260200190815260200160002060010160009054906101000a900473ffffffffffffffffffffffffffffffffffffffff16905080915050919050565b610b0181604051602401610a7f9190610d7b565b6040516020818303038152906040527f41304fac000000000000000000000000000000000000000000000000000000007bffffffffffffffffffffffffffffffffffffffffffffffffffffffff19166020820180517bffffffffffffffffffffffffffffffffffffffffffffffffffffffff8381831617835250505050610b28565b50565b6001816000016000828254019250508190555050565b600081600001549050919050565b60008151905060006a636f6e736f6c652e6c6f679050602083016000808483855afa5050505050565b600081359050610b60816110e3565b92915050565b600060208284031215610b7857600080fd5b6000610b8684828501610b51565b91505092915050565b610b9881610ef9565b82525050565b610ba781610ee7565b82525050565b610bb681610f0b565b82525050565b610bc581610f54565b82525050565b6000610bd682610ecb565b610be08185610ed6565b9350610bf0818560208601610f66565b610bf981610fc8565b840191505092915050565b6000610c11601983610ed6565b9150610c1c82610fd9565b602082019050919050565b6000610c34600e83610ed6565b9150610c3f82611002565b602082019050919050565b6000610c57600d83610ed6565b9150610c628261102b565b602082019050919050565b6000610c7a601783610ed6565b9150610c8582611054565b602082019050919050565b6000610c9d601c83610ed6565b9150610ca88261107d565b602082019050919050565b6000610cc0601383610ed6565b9150610ccb826110a6565b602082019050919050565b610cdf81610f4a565b82525050565b6000602082019050610cfa6000830184610b9e565b92915050565b6000602082019050610d156000830184610b8f565b92915050565b6000608082019050610d306000830187610b9e565b610d3d6020830186610b9e565b610d4a6040830185610cd6565b610d576060830184610bad565b95945050505050565b6000602082019050610d756000830184610bbc565b92915050565b60006020820190508181036000830152610d958184610bcb565b905092915050565b60006020820190508181036000830152610db681610c04565b9050919050565b60006020820190508181036000830152610dd681610c27565b9050919050565b60006020820190508181036000830152610df681610c4a565b9050919050565b60006020820190508181036000830152610e1681610c6d565b9050919050565b60006020820190508181036000830152610e3681610c90565b9050919050565b60006020820190508181036000830152610e5681610cb3565b9050919050565b6000602082019050610e726000830184610cd6565b92915050565b600060a082019050610e8d6000830188610cd6565b610e9a6020830187610b8f565b610ea76040830186610b8f565b610eb46060830185610cd6565b610ec16080830184610bad565b9695505050505050565b600081519050919050565b600082825260208201905092915050565b6000610ef282610f2a565b9050919050565b6000610f0482610f2a565b9050919050565b60008115159050919050565b6000819050610f25826110cf565b919050565b600073ffffffffffffffffffffffffffffffffffffffff82169050919050565b6000819050919050565b6000610f5f82610f17565b9050919050565b60005b83811015610f84578082015181840152602081019050610f69565b83811115610f93576000848401525b50505050565b7f4e487b7100000000000000000000000000000000000000000000000000000000600052602160045260246000fd5b6000601f19601f8301169050919050565b7f4f6e6c79206f776e65722063616e2063616c6c20746869732e00000000000000600082015250565b7f4e6f742072656e74656420796574000000000000000000000000000000000000600082015250565b7f4e6f7420746865206f776e657200000000000000000000000000000000000000600082015250565b7f41706172746d656e74206973206e6f742072656e746564000000000000000000600082015250565b7f5072696365206d757374206265206174206c6561737420312077656900000000600082015250565b7f41706172746d656e742069732072656e74656400000000000000000000000000600082015250565b600581106110e0576110df610f99565b5b50565b6110ec81610f4a565b81146110f757600080fd5b5056fea2646970667358221220b4df885031b49009423f54afb1cb28d0dd3cbc539fd6ac0e19f57d72573e8ef664736f6c63430008040033",
  "linkReferences": {},
  "deployedLinkReferences": {}
}