{
  "_format": "hh-sol-artifact-1",
  "contractName": "ApartmentCreator",
  "sourceName": "contracts/ApartmentRent.sol",
  "abi": [
    {
      "inputs": [],
      "stateMutability": "payable",
      "type": "constructor"
    },
    {
      "anonymous": false,
      "inputs": [
        {
          "indexed": true,
          "internalType": "uint256",
          "name": "apartmentsId",
          "type": "uint256"
        },
        {
          "indexed": false,
          "internalType": "address",
          "name": "ownerAp",
          "type": "address"
        },
        {
          "indexed": false,
          "internalType": "address",
          "name": "renter",
          "type": "address"
        },
        {
          "indexed": false,
          "internalType": "uint256",
          "name": "price",
          "type": "uint256"
        },
        {
          "indexed": false,
          "internalType": "bool",
          "name": "rented",
          "type": "bool"
        }
      ],
      "name": "ApartmentCreated",
      "type": "event"
    },
    {
      "anonymous": false,
      "inputs": [
        {
          "indexed": false,
          "internalType": "uint256",
          "name": "when",
          "type": "uint256"
        }
      ],
      "name": "Closed",
      "type": "event"
    },
    {
      "anonymous": false,
      "inputs": [
        {
          "indexed": false,
          "internalType": "uint256",
          "name": "when",
          "type": "uint256"
        },
        {
          "indexed": false,
          "internalType": "address",
          "name": "by",
          "type": "address"
        }
      ],
      "name": "ConfirmPurchase",
      "type": "event"
    },
    {
      "anonymous": false,
      "inputs": [
        {
          "indexed": false,
          "internalType": "uint256",
          "name": "when",
          "type": "uint256"
        },
        {
          "indexed": false,
          "internalType": "address",
          "name": "by",
          "type": "address"
        }
      ],
      "name": "ConfirmReseived",
      "type": "event"
    },
    {
      "anonymous": false,
      "inputs": [
        {
          "indexed": false,
          "internalType": "uint256",
          "name": "when",
          "type": "uint256"
        }
      ],
      "name": "End",
      "type": "event"
    },
    {
      "anonymous": false,
      "inputs": [
        {
          "indexed": false,
          "internalType": "uint256",
          "name": "when",
          "type": "uint256"
        }
      ],
      "name": "OwnerRefundRenter",
      "type": "event"
    },
    {
      "anonymous": false,
      "inputs": [
        {
          "indexed": false,
          "internalType": "uint256",
          "name": "when",
          "type": "uint256"
        }
      ],
      "name": "OwnerRefunded",
      "type": "event"
    },
    {
      "anonymous": false,
      "inputs": [
        {
          "indexed": false,
          "internalType": "uint256",
          "name": "when",
          "type": "uint256"
        }
      ],
      "name": "Restarted",
      "type": "event"
    },
    {
      "inputs": [
        {
          "internalType": "uint256",
          "name": "_apartmentId",
          "type": "uint256"
        }
      ],
      "name": "apartmentOwner",
      "outputs": [
        {
          "internalType": "address",
          "name": "",
          "type": "address"
        }
      ],
      "stateMutability": "view",
      "type": "function"
    },
    {
      "inputs": [
        {
          "internalType": "uint256",
          "name": "_apartmentId",
          "type": "uint256"
        }
      ],
      "name": "apartmentPrice",
      "outputs": [
        {
          "internalType": "uint256",
          "name": "",
          "type": "uint256"
        }
      ],
      "stateMutability": "view",
      "type": "function"
    },
    {
      "inputs": [
        {
          "internalType": "address",
          "name": "_account",
          "type": "address"
        }
      ],
      "name": "balanceOf",
      "outputs": [
        {
          "internalType": "uint256",
          "name": "",
          "type": "uint256"
        }
      ],
      "stateMutability": "view",
      "type": "function"
    },
    {
      "inputs": [],
      "name": "close",
      "outputs": [],
      "stateMutability": "nonpayable",
      "type": "function"
    },
    {
      "inputs": [
        {
          "internalType": "uint256",
          "name": "_apartmentId",
          "type": "uint256"
        },
        {
          "internalType": "uint256",
          "name": "_rentingDays",
          "type": "uint256"
        }
      ],
      "name": "confirmPurchase",
      "outputs": [],
      "stateMutability": "payable",
      "type": "function"
    },
    {
      "inputs": [
        {
          "internalType": "uint256",
          "name": "_apartmentId",
          "type": "uint256"
        },
        {
          "internalType": "uint256",
          "name": "_rentingDays",
          "type": "uint256"
        }
      ],
      "name": "confirmReceived",
      "outputs": [],
      "stateMutability": "nonpayable",
      "type": "function"
    },
    {
      "inputs": [
        {
          "internalType": "uint256",
          "name": "_price",
          "type": "uint256"
        }
      ],
      "name": "createApartment",
      "outputs": [],
      "stateMutability": "payable",
      "type": "function"
    },
    {
      "inputs": [
        {
          "internalType": "uint256",
          "name": "_apartmentId",
          "type": "uint256"
        }
      ],
      "name": "end",
      "outputs": [],
      "stateMutability": "nonpayable",
      "type": "function"
    },
    {
      "inputs": [],
      "name": "fee",
      "outputs": [
        {
          "internalType": "uint256",
          "name": "",
          "type": "uint256"
        }
      ],
      "stateMutability": "view",
      "type": "function"
    },
    {
      "inputs": [
        {
          "internalType": "uint256",
          "name": "",
          "type": "uint256"
        }
      ],
      "name": "idToApartment",
      "outputs": [
        {
          "internalType": "uint256",
          "name": "apartmentsId",
          "type": "uint256"
        },
        {
          "internalType": "address payable",
          "name": "ownerAp",
          "type": "address"
        },
        {
          "internalType": "address payable",
          "name": "renter",
          "type": "address"
        },
        {
          "internalType": "uint256",
          "name": "price",
          "type": "uint256"
        },
        {
          "internalType": "bool",
          "name": "rented",
          "type": "bool"
        }
      ],
      "stateMutability": "view",
      "type": "function"
    },
    {
      "inputs": [
        {
          "internalType": "uint256",
          "name": "_apartmentId",
          "type": "uint256"
        }
      ],
      "name": "isRented",
      "outputs": [
        {
          "internalType": "bool",
          "name": "",
          "type": "bool"
        }
      ],
      "stateMutability": "view",
      "type": "function"
    },
    {
      "inputs": [],
      "name": "name",
      "outputs": [
        {
          "internalType": "string",
          "name": "",
          "type": "string"
        }
      ],
      "stateMutability": "view",
      "type": "function"
    },
    {
      "inputs": [],
      "name": "owner",
      "outputs": [
        {
          "internalType": "address payable",
          "name": "",
          "type": "address"
        }
      ],
      "stateMutability": "view",
      "type": "function"
    },
    {
      "inputs": [
        {
          "internalType": "uint256",
          "name": "_apartmentId",
          "type": "uint256"
        },
        {
          "internalType": "uint256",
          "name": "_rentingDays",
          "type": "uint256"
        }
      ],
      "name": "refundOwner",
      "outputs": [],
      "stateMutability": "nonpayable",
      "type": "function"
    },
    {
      "inputs": [
        {
          "internalType": "uint256",
          "name": "_apartmentId",
          "type": "uint256"
        }
      ],
      "name": "refundRenter",
      "outputs": [],
      "stateMutability": "nonpayable",
      "type": "function"
    },
    {
      "inputs": [],
      "name": "renter",
      "outputs": [
        {
          "internalType": "address payable",
          "name": "",
          "type": "address"
        }
      ],
      "stateMutability": "view",
      "type": "function"
    },
    {
      "inputs": [
        {
          "internalType": "uint256",
          "name": "_apartmentId",
          "type": "uint256"
        },
        {
          "internalType": "uint256",
          "name": "_rentingDays",
          "type": "uint256"
        }
      ],
      "name": "restartContract",
      "outputs": [],
      "stateMutability": "payable",
      "type": "function"
    },
    {
      "inputs": [],
      "name": "state",
      "outputs": [
        {
          "internalType": "enum ApartmentCreator.State",
          "name": "",
          "type": "uint8"
        }
      ],
      "stateMutability": "view",
      "type": "function"
    },
    {
      "inputs": [],
      "name": "symbol",
      "outputs": [
        {
          "internalType": "string",
          "name": "",
          "type": "string"
        }
      ],
      "stateMutability": "view",
      "type": "function"
    },
    {
      "inputs": [],
      "name": "to",
      "outputs": [
        {
          "internalType": "address",
          "name": "",
          "type": "address"
        }
      ],
      "stateMutability": "view",
      "type": "function"
    },
    {
      "inputs": [],
      "name": "totalSupply",
      "outputs": [
        {
          "internalType": "uint256",
          "name": "",
          "type": "uint256"
        }
      ],
      "stateMutability": "view",
      "type": "function"
    },
    {
      "inputs": [
        {
          "internalType": "uint256",
          "name": "_amount",
          "type": "uint256"
        },
        {
          "internalType": "address",
          "name": "_to",
          "type": "address"
        }
      ],
      "name": "transferToken",
      "outputs": [],
      "stateMutability": "payable",
      "type": "function"
    },
    {
      "inputs": [
        {
          "internalType": "uint256",
          "name": "_amount",
          "type": "uint256"
        }
      ],
      "name": "transferfee",
      "outputs": [],
      "stateMutability": "payable",
      "type": "function"
    }
  ],
  "bytecode": "0x60806040526040518060400160405280600f81526020017f446563656e74426e6220546f6b656e0000000000000000000000000000000000815250600090805190602001906200005192919062000336565b506040518060400160405280600381526020017f4443420000000000000000000000000000000000000000000000000000000000815250600190805190602001906200009f92919062000336565b50620f4240600255738626f6940e2eb28930efb4cef49b2d1f2c9c1199600460006101000a81548173ffffffffffffffffffffffffffffffffffffffff021916908373ffffffffffffffffffffffffffffffffffffffff160217905550600254600360003373ffffffffffffffffffffffffffffffffffffffff1673ffffffffffffffffffffffffffffffffffffffff168152602001908152602001600020819055506200018d6040518060400160405280601f81526020017f4372656174696e67206e65772061706172746d656e7420666163746f72793a008152506200026a60201b62001e001760201c565b33600660006101000a81548173ffffffffffffffffffffffffffffffffffffffff021916908373ffffffffffffffffffffffffffffffffffffffff16021790555033600660006101000a81548173ffffffffffffffffffffffffffffffffffffffff021916908373ffffffffffffffffffffffffffffffffffffffff160217905550738626f6940e2eb28930efb4cef49b2d1f2c9c1199600a60006101000a81548173ffffffffffffffffffffffffffffffffffffffff021916908373ffffffffffffffffffffffffffffffffffffffff16021790555062000513565b6200030a8160405160240162000281919062000427565b6040516020818303038152906040527f41304fac000000000000000000000000000000000000000000000000000000007bffffffffffffffffffffffffffffffffffffffffffffffffffffffff19166020820180517bffffffffffffffffffffffffffffffffffffffffffffffffffffffff83818316178352505050506200030d60201b60201c565b50565b60008151905060006a636f6e736f6c652e6c6f679050602083016000808483855afa5050505050565b82805462000344906200049d565b90600052602060002090601f016020900481019282620003685760008555620003b4565b82601f106200038357805160ff1916838001178555620003b4565b82800160010185558215620003b4579182015b82811115620003b357825182559160200191906001019062000396565b5b509050620003c39190620003c7565b5090565b5b80821115620003e2576000816000905550600101620003c8565b5090565b6000620003f3826200044b565b620003ff818562000456565b93506200041181856020860162000467565b6200041c8162000502565b840191505092915050565b60006020820190508181036000830152620004438184620003e6565b905092915050565b600081519050919050565b600082825260208201905092915050565b60005b83811015620004875780820151818401526020810190506200046a565b8381111562000497576000848401525b50505050565b60006002820490506001821680620004b657607f821691505b60208210811415620004cd57620004cc620004d3565b5b50919050565b7f4e487b7100000000000000000000000000000000000000000000000000000000600052602260045260246000fd5b6000601f19601f8301169050919050565b61282180620005236000396000f3fe6080604052600436106101405760003560e01c806361e7b93f116100b6578063bad425901161006f578063bad4259014610411578063c19d93fb1461042d578063cefedb3014610458578063ddca3f4314610474578063ec52a5921461049f578063fe5ec9ba146104dc57610140565b806361e7b93f146102fc57806370a08231146103255780638c1af2e0146103625780638da5cb5b1461037e57806395d89b41146103a9578063aa15d40f146103d457610140565b806318160ddd1161010857806318160ddd146102215780631f11b6a91461024c5780632e88ab0b1461027557806340c8b20c146102a057806343d726d6146102bc5780635a514307146102d357610140565b806306fdde03146101455780630ad24528146101705780630f2965a31461019957806313151981146101b557806314f29e09146101e0575b600080fd5b34801561015157600080fd5b5061015a610519565b6040516101679190612213565b60405180910390f35b34801561017c57600080fd5b5061019760048036038101906101929190611f39565b6105a7565b005b6101b360048036038101906101ae9190611f9e565b6107e4565b005b3480156101c157600080fd5b506101ca610aea565b6040516101d79190612162565b60405180910390f35b3480156101ec57600080fd5b5061020760048036038101906102029190611f39565b610b10565b604051610218959493929190612359565b60405180910390f35b34801561022d57600080fd5b50610236610b93565b6040516102439190612315565b60405180910390f35b34801561025857600080fd5b50610273600480360381019061026e9190611f39565b610b99565b005b34801561028157600080fd5b5061028a610de1565b604051610297919061217d565b60405180910390f35b6102ba60048036038101906102b59190611f39565b610e07565b005b3480156102c857600080fd5b506102d1610fd5565b005b3480156102df57600080fd5b506102fa60048036038101906102f59190611f9e565b61121c565b005b34801561030857600080fd5b50610323600480360381019061031e9190611f9e565b611420565b005b34801561033157600080fd5b5061034c60048036038101906103479190611f10565b611696565b6040516103599190612315565b60405180910390f35b61037c60048036038101906103779190611f9e565b6116df565b005b34801561038a57600080fd5b50610393611a17565b6040516103a0919061217d565b60405180910390f35b3480156103b557600080fd5b506103be611a3d565b6040516103cb9190612213565b60405180910390f35b3480156103e057600080fd5b506103fb60048036038101906103f69190611f39565b611acb565b60405161040891906121dd565b60405180910390f35b61042b60048036038101906104269190611f62565b611af8565b005b34801561043957600080fd5b50610442611c2a565b60405161044f91906121f8565b60405180910390f35b610472600480360381019061046d9190611f39565b611c3d565b005b34801561048057600080fd5b50610489611d90565b6040516104969190612315565b60405180910390f35b3480156104ab57600080fd5b506104c660048036038101906104c19190611f39565b611d96565b6040516104d39190612315565b60405180910390f35b3480156104e857600080fd5b5061050360048036038101906104fe9190611f39565b611dbb565b6040516105109190612162565b60405180910390f35b6000805461052690612594565b80601f016020809104026020016040519081016040528092919081815260200182805461055290612594565b801561059f5780601f106105745761010080835404028352916020019161059f565b820191906000526020600020905b81548152906001019060200180831161058257829003601f168201915b505050505081565b600660009054906101000a900473ffffffffffffffffffffffffffffffffffffffff1673ffffffffffffffffffffffffffffffffffffffff163373ffffffffffffffffffffffffffffffffffffffff1614610637576040517f08c379a000000000000000000000000000000000000000000000000000000000815260040161062e90612235565b60405180910390fd5b60036004811115610671577f4e487b7100000000000000000000000000000000000000000000000000000000600052602160045260246000fd5b600a60149054906101000a900460ff1660048111156106b9577f4e487b7100000000000000000000000000000000000000000000000000000000600052602160045260246000fd5b148061074357506004808111156106f9577f4e487b7100000000000000000000000000000000000000000000000000000000600052602160045260246000fd5b600a60149054906101000a900460ff166004811115610741577f4e487b7100000000000000000000000000000000000000000000000000000000600052602160045260246000fd5b145b156107e157600115156007600083815260200190815260200160002060040160009054906101000a905050507f2c03d2f09622b67ee91478a7e43219c7ced47eff3a3f8bda2eef920181e867664260405161079e9190612315565b60405180910390a1600660009054906101000a900473ffffffffffffffffffffffffffffffffffffffff1673ffffffffffffffffffffffffffffffffffffffff16ff5b50565b600660009054906101000a900473ffffffffffffffffffffffffffffffffffffffff1673ffffffffffffffffffffffffffffffffffffffff163373ffffffffffffffffffffffffffffffffffffffff1614610874576040517f08c379a000000000000000000000000000000000000000000000000000000000815260040161086b90612235565b60405180910390fd5b600360048111156108ae577f4e487b7100000000000000000000000000000000000000000000000000000000600052602160045260246000fd5b600a60149054906101000a900460ff1660048111156108f6577f4e487b7100000000000000000000000000000000000000000000000000000000600052602160045260246000fd5b14806109805750600480811115610936577f4e487b7100000000000000000000000000000000000000000000000000000000600052602160045260246000fd5b600a60149054906101000a900460ff16600481111561097e577f4e487b7100000000000000000000000000000000000000000000000000000000600052602160045260246000fd5b145b15610ae6573481600760008581526020019081526020016000206003015460026109aa919061241e565b6109b4919061241e565b146109f4576040517f08c379a00000000000000000000000000000000000000000000000000000000081526004016109eb90612255565b60405180910390fd5b6000600a60146101000a81548160ff02191690836004811115610a40577f4e487b7100000000000000000000000000000000000000000000000000000000600052602160045260246000fd5b02179055506000600960006101000a81548173ffffffffffffffffffffffffffffffffffffffff021916908373ffffffffffffffffffffffffffffffffffffffff160217905550600115156007600084815260200190815260200160002060040160009054906101000a905050507f6aaf3aad1d1cbaace364e7580ac08458b9f1ae89f2a13c03fc6bc1c85e9690c842604051610add9190612315565b60405180910390a15b5050565b600460009054906101000a900473ffffffffffffffffffffffffffffffffffffffff1681565b60076020528060005260406000206000915090508060000154908060010160009054906101000a900473ffffffffffffffffffffffffffffffffffffffff16908060020160009054906101000a900473ffffffffffffffffffffffffffffffffffffffff16908060030154908060040160009054906101000a900460ff16905085565b60025481565b600960009054906101000a900473ffffffffffffffffffffffffffffffffffffffff1673ffffffffffffffffffffffffffffffffffffffff163373ffffffffffffffffffffffffffffffffffffffff1614610c29576040517f08c379a0000000000000000000000000000000000000000000000000000000008152600401610c20906122f5565b60405180910390fd5b6001806004811115610c64577f4e487b7100000000000000000000000000000000000000000000000000000000600052602160045260246000fd5b600a60149054906101000a900460ff166004811115610cac577f4e487b7100000000000000000000000000000000000000000000000000000000600052602160045260246000fd5b14610cec576040517f08c379a0000000000000000000000000000000000000000000000000000000008152600401610ce390612275565b60405180910390fd5b6000600a60146101000a81548160ff02191690836004811115610d38577f4e487b7100000000000000000000000000000000000000000000000000000000600052602160045260246000fd5b0217905550600015156007600084815260200190815260200160002060040160009054906101000a905050506000600960006101000a81548173ffffffffffffffffffffffffffffffffffffffff021916908373ffffffffffffffffffffffffffffffffffffffff1602179055507f21603d016a64f76de6c5399e14126ba2baf3b2106c091fd71c62123de7c3365442604051610dd59190612315565b60405180910390a15050565b600960009054906101000a900473ffffffffffffffffffffffffffffffffffffffff1681565b60008111610e4a576040517f08c379a0000000000000000000000000000000000000000000000000000000008152600401610e41906122d5565b60405180910390fd5b610e546005611e99565b6000610e606005611eaf565b90506040518060a001604052808281526020013373ffffffffffffffffffffffffffffffffffffffff168152602001600073ffffffffffffffffffffffffffffffffffffffff16815260200183815260200160001515815250600760008381526020019081526020016000206000820151816000015560208201518160010160006101000a81548173ffffffffffffffffffffffffffffffffffffffff021916908373ffffffffffffffffffffffffffffffffffffffff16021790555060408201518160020160006101000a81548173ffffffffffffffffffffffffffffffffffffffff021916908373ffffffffffffffffffffffffffffffffffffffff1602179055506060820151816003015560808201518160040160006101000a81548160ff021916908315150217905550905050807f2439c9df5317aa6c4c3639e0e0b3f2cdacd6daf5f5393cbf2142da87441a67f9336000856000604051610fc99493929190612198565b60405180910390a25050565b600660009054906101000a900473ffffffffffffffffffffffffffffffffffffffff1673ffffffffffffffffffffffffffffffffffffffff163373ffffffffffffffffffffffffffffffffffffffff1614611065576040517f08c379a000000000000000000000000000000000000000000000000000000000815260040161105c90612235565b60405180910390fd5b60008060048111156110a0577f4e487b7100000000000000000000000000000000000000000000000000000000600052602160045260246000fd5b600a60149054906101000a900460ff1660048111156110e8577f4e487b7100000000000000000000000000000000000000000000000000000000600052602160045260246000fd5b14611128576040517f08c379a000000000000000000000000000000000000000000000000000000000815260040161111f90612275565b60405180910390fd5b6003600a60146101000a81548160ff02191690836004811115611174577f4e487b7100000000000000000000000000000000000000000000000000000000600052602160045260246000fd5b0217905550600660009054906101000a900473ffffffffffffffffffffffffffffffffffffffff1673ffffffffffffffffffffffffffffffffffffffff166108fc479081150290604051600060405180830381858888f193505050501580156111e1573d6000803e3d6000fd5b507f6cc09e7b5c3e49861ebe8f6867e1618fbfc14c8d0e968fde37c4243ca02a6f83426040516112119190612315565b60405180910390a150565b600960009054906101000a900473ffffffffffffffffffffffffffffffffffffffff1673ffffffffffffffffffffffffffffffffffffffff163373ffffffffffffffffffffffffffffffffffffffff16146112ac576040517f08c379a00000000000000000000000000000000000000000000000000000000081526004016112a3906122f5565b60405180910390fd5b60018060048111156112e7577f4e487b7100000000000000000000000000000000000000000000000000000000600052602160045260246000fd5b600a60149054906101000a900460ff16600481111561132f577f4e487b7100000000000000000000000000000000000000000000000000000000600052602160045260246000fd5b1461136f576040517f08c379a000000000000000000000000000000000000000000000000000000000815260040161136690612275565b60405180910390fd5b6002600a60146101000a81548160ff021916908360048111156113bb577f4e487b7100000000000000000000000000000000000000000000000000000000600052602160045260246000fd5b02179055507f2c076b74394a814e683d5101011a91a52e40ac779ffebc29be6cea733a57205042600960009054906101000a900473ffffffffffffffffffffffffffffffffffffffff16604051611413929190612330565b60405180910390a1505050565b600660009054906101000a900473ffffffffffffffffffffffffffffffffffffffff1673ffffffffffffffffffffffffffffffffffffffff163373ffffffffffffffffffffffffffffffffffffffff16146114b0576040517f08c379a00000000000000000000000000000000000000000000000000000000081526004016114a790612235565b60405180910390fd5b60028060048111156114eb577f4e487b7100000000000000000000000000000000000000000000000000000000600052602160045260246000fd5b600a60149054906101000a900460ff166004811115611533577f4e487b7100000000000000000000000000000000000000000000000000000000600052602160045260246000fd5b14611573576040517f08c379a000000000000000000000000000000000000000000000000000000000815260040161156a90612275565b60405180910390fd5b6004600a60146101000a81548160ff021916908360048111156115bf577f4e487b7100000000000000000000000000000000000000000000000000000000600052602160045260246000fd5b0217905550600660009054906101000a900473ffffffffffffffffffffffffffffffffffffffff1673ffffffffffffffffffffffffffffffffffffffff166108fc8360076000878152602001908152602001600020600301546003611624919061241e565b61162e919061241e565b9081150290604051600060405180830381858888f19350505050158015611659573d6000803e3d6000fd5b507fe30b4047fe3f241feaa6f773d660f129072aaf8b1fb1ef2d6c19131ff475b773426040516116899190612315565b60405180910390a1505050565b6000600360008373ffffffffffffffffffffffffffffffffffffffff1673ffffffffffffffffffffffffffffffffffffffff168152602001908152602001600020549050919050565b600660009054906101000a900473ffffffffffffffffffffffffffffffffffffffff1673ffffffffffffffffffffffffffffffffffffffff163373ffffffffffffffffffffffffffffffffffffffff161415611770576040517f08c379a000000000000000000000000000000000000000000000000000000000815260040161176790612295565b60405180910390fd5b60008060048111156117ab577f4e487b7100000000000000000000000000000000000000000000000000000000600052602160045260246000fd5b600a60149054906101000a900460ff1660048111156117f3577f4e487b7100000000000000000000000000000000000000000000000000000000600052602160045260246000fd5b14611833576040517f08c379a000000000000000000000000000000000000000000000000000000000815260040161182a90612275565b60405180910390fd5b8160076000858152602001908152602001600020600301546002611857919061241e565b611861919061241e565b34148061186d57600080fd5b600015156007600086815260200190815260200160002060040160009054906101000a900460ff161515146118a157600080fd5b33600960006101000a81548173ffffffffffffffffffffffffffffffffffffffff021916908373ffffffffffffffffffffffffffffffffffffffff160217905550600960009054906101000a900473ffffffffffffffffffffffffffffffffffffffff1673ffffffffffffffffffffffffffffffffffffffff166007600086815260200190815260200160002060020160009054906101000a905050506001600a60146101000a81548160ff0219169083600481111561198a577f4e487b7100000000000000000000000000000000000000000000000000000000600052602160045260246000fd5b0217905550600115156007600086815260200190815260200160002060040160009054906101000a905050507f6df03f50e5eb5f7ec6366825f9ba45fea1a7a29151abb5dcecf204313129bb6142600960009054906101000a900473ffffffffffffffffffffffffffffffffffffffff16604051611a09929190612330565b60405180910390a150505050565b600660009054906101000a900473ffffffffffffffffffffffffffffffffffffffff1681565b60018054611a4a90612594565b80601f0160208091040260200160405190810160405280929190818152602001828054611a7690612594565b8015611ac35780601f10611a9857610100808354040283529160200191611ac3565b820191906000526020600020905b815481529060010190602001808311611aa657829003601f168201915b505050505081565b60006007600083815260200190815260200160002060040160009054906101000a900460ff169050919050565b81600360003373ffffffffffffffffffffffffffffffffffffffff1673ffffffffffffffffffffffffffffffffffffffff168152602001908152602001600020541015611b7a576040517f08c379a0000000000000000000000000000000000000000000000000000000008152600401611b71906122b5565b60405180910390fd5b81600360003373ffffffffffffffffffffffffffffffffffffffff1673ffffffffffffffffffffffffffffffffffffffff1681526020019081526020016000206000828254611bc99190612478565b9250508190555081600360008373ffffffffffffffffffffffffffffffffffffffff1673ffffffffffffffffffffffffffffffffffffffff1681526020019081526020016000206000828254611c1f91906123c8565b925050819055505050565b600a60149054906101000a900460ff1681565b80600360003373ffffffffffffffffffffffffffffffffffffffff1673ffffffffffffffffffffffffffffffffffffffff168152602001908152602001600020541015611cbf576040517f08c379a0000000000000000000000000000000000000000000000000000000008152600401611cb6906122b5565b60405180910390fd5b80600360003373ffffffffffffffffffffffffffffffffffffffff1673ffffffffffffffffffffffffffffffffffffffff1681526020019081526020016000206000828254611d0e9190612478565b925050819055508060036000600460009054906101000a900473ffffffffffffffffffffffffffffffffffffffff1673ffffffffffffffffffffffffffffffffffffffff1673ffffffffffffffffffffffffffffffffffffffff1681526020019081526020016000206000828254611d8691906123c8565b9250508190555050565b60085481565b6000806007600084815260200190815260200160002060030154905080915050919050565b6000806007600084815260200190815260200160002060010160009054906101000a900473ffffffffffffffffffffffffffffffffffffffff16905080915050919050565b611e9681604051602401611e149190612213565b6040516020818303038152906040527f41304fac000000000000000000000000000000000000000000000000000000007bffffffffffffffffffffffffffffffffffffffffffffffffffffffff19166020820180517bffffffffffffffffffffffffffffffffffffffffffffffffffffffff8381831617835250505050611ebd565b50565b6001816000016000828254019250508190555050565b600081600001549050919050565b60008151905060006a636f6e736f6c652e6c6f679050602083016000808483855afa5050505050565b600081359050611ef5816127bd565b92915050565b600081359050611f0a816127d4565b92915050565b600060208284031215611f2257600080fd5b6000611f3084828501611ee6565b91505092915050565b600060208284031215611f4b57600080fd5b6000611f5984828501611efb565b91505092915050565b60008060408385031215611f7557600080fd5b6000611f8385828601611efb565b9250506020611f9485828601611ee6565b9150509250929050565b60008060408385031215611fb157600080fd5b6000611fbf85828601611efb565b9250506020611fd085828601611efb565b9150509250929050565b611fe381612519565b82525050565b611ff2816124be565b82525050565b612001816124ac565b82525050565b612010816124d0565b82525050565b61201f8161252b565b82525050565b6000612030826123ac565b61203a81856123b7565b935061204a818560208601612561565b61205381612653565b840191505092915050565b600061206b6019836123b7565b915061207682612664565b602082019050919050565b600061208e6021836123b7565b91506120998261268d565b604082019050919050565b60006120b1600d836123b7565b91506120bc826126dc565b602082019050919050565b60006120d46020836123b7565b91506120df82612705565b602082019050919050565b60006120f76011836123b7565b91506121028261272e565b602082019050919050565b600061211a601c836123b7565b915061212582612757565b602082019050919050565b600061213d6019836123b7565b915061214882612780565b602082019050919050565b61215c8161250f565b82525050565b60006020820190506121776000830184611ff8565b92915050565b60006020820190506121926000830184611fe9565b92915050565b60006080820190506121ad6000830187611ff8565b6121ba6020830186611ff8565b6121c76040830185612153565b6121d46060830184612007565b95945050505050565b60006020820190506121f26000830184612007565b92915050565b600060208201905061220d6000830184612016565b92915050565b6000602082019050818103600083015261222d8184612025565b905092915050565b6000602082019050818103600083015261224e8161205e565b9050919050565b6000602082019050818103600083015261226e81612081565b9050919050565b6000602082019050818103600083015261228e816120a4565b9050919050565b600060208201905081810360008301526122ae816120c7565b9050919050565b600060208201905081810360008301526122ce816120ea565b9050919050565b600060208201905081810360008301526122ee8161210d565b9050919050565b6000602082019050818103600083015261230e81612130565b9050919050565b600060208201905061232a6000830184612153565b92915050565b60006040820190506123456000830185612153565b6123526020830184611fda565b9392505050565b600060a08201905061236e6000830188612153565b61237b6020830187611fe9565b6123886040830186611fe9565b6123956060830185612153565b6123a26080830184612007565b9695505050505050565b600081519050919050565b600082825260208201905092915050565b60006123d38261250f565b91506123de8361250f565b9250827fffffffffffffffffffffffffffffffffffffffffffffffffffffffffffffffff03821115612413576124126125c6565b5b828201905092915050565b60006124298261250f565b91506124348361250f565b9250817fffffffffffffffffffffffffffffffffffffffffffffffffffffffffffffffff048311821515161561246d5761246c6125c6565b5b828202905092915050565b60006124838261250f565b915061248e8361250f565b9250828210156124a1576124a06125c6565b5b828203905092915050565b60006124b7826124ef565b9050919050565b60006124c9826124ef565b9050919050565b60008115159050919050565b60008190506124ea826127a9565b919050565b600073ffffffffffffffffffffffffffffffffffffffff82169050919050565b6000819050919050565b60006125248261253d565b9050919050565b6000612536826124dc565b9050919050565b60006125488261254f565b9050919050565b600061255a826124ef565b9050919050565b60005b8381101561257f578082015181840152602081019050612564565b8381111561258e576000848401525b50505050565b600060028204905060018216806125ac57607f821691505b602082108114156125c0576125bf612624565b5b50919050565b7f4e487b7100000000000000000000000000000000000000000000000000000000600052601160045260246000fd5b7f4e487b7100000000000000000000000000000000000000000000000000000000600052602160045260246000fd5b7f4e487b7100000000000000000000000000000000000000000000000000000000600052602260045260246000fd5b6000601f19601f8301169050919050565b7f4f6e6c79206f776e65722063616e2063616c6c20746869732e00000000000000600082015250565b7f56616c75652068617320746f20626520657175616c20746f203278207072696360008201527f6500000000000000000000000000000000000000000000000000000000000000602082015250565b7f496e76616c696420737461746500000000000000000000000000000000000000600082015250565b7f4f776e65722073686f756c64206e6f742062652063616c6c696e672074686973600082015250565b7f4e6f7420656e6f75676820746f6b656e73000000000000000000000000000000600082015250565b7f5072696365206d757374206265206174206c6561737420312077656900000000600082015250565b7f4f6e6c792072656e7465722063616e2063616c6c207468697300000000000000600082015250565b600581106127ba576127b96125f5565b5b50565b6127c6816124ac565b81146127d157600080fd5b50565b6127dd8161250f565b81146127e857600080fd5b5056fea2646970667358221220eb83e795f2c73feca48f38cec396d2f2bc91010aa1f76a4a4a35ad99b996e21764736f6c63430008040033",
  "linkReferences": {},
  "deployedLinkReferences": {}
}