{
  "_format": "hh-sol-artifact-1",
  "contractName": "ApartmentCreator",
  "sourceName": "contracts/ApartmentRent.sol",
  "abi": [
    {
      "inputs": [],
      "stateMutability": "payable",
      "type": "constructor"
    },
    {
      "anonymous": false,
      "inputs": [
        {
          "indexed": true,
          "internalType": "uint256",
          "name": "apartmentsId",
          "type": "uint256"
        },
        {
          "indexed": false,
          "internalType": "address",
          "name": "ownerAp",
          "type": "address"
        },
        {
          "indexed": false,
          "internalType": "address",
          "name": "renter",
          "type": "address"
        },
        {
          "indexed": false,
          "internalType": "uint256",
          "name": "price",
          "type": "uint256"
        },
        {
          "indexed": false,
          "internalType": "bool",
          "name": "rented",
          "type": "bool"
        }
      ],
      "name": "ApartmentCreated",
      "type": "event"
    },
    {
      "anonymous": false,
      "inputs": [
        {
          "indexed": false,
          "internalType": "uint256",
          "name": "when",
          "type": "uint256"
        }
      ],
      "name": "Closed",
      "type": "event"
    },
    {
      "anonymous": false,
      "inputs": [
        {
          "indexed": false,
          "internalType": "uint256",
          "name": "when",
          "type": "uint256"
        },
        {
          "indexed": false,
          "internalType": "address",
          "name": "by",
          "type": "address"
        }
      ],
      "name": "ConfirmPurchase",
      "type": "event"
    },
    {
      "anonymous": false,
      "inputs": [
        {
          "indexed": false,
          "internalType": "uint256",
          "name": "when",
          "type": "uint256"
        },
        {
          "indexed": false,
          "internalType": "address",
          "name": "by",
          "type": "address"
        }
      ],
      "name": "ConfirmReseived",
      "type": "event"
    },
    {
      "anonymous": false,
      "inputs": [
        {
          "indexed": false,
          "internalType": "uint256",
          "name": "when",
          "type": "uint256"
        }
      ],
      "name": "End",
      "type": "event"
    },
    {
      "anonymous": false,
      "inputs": [
        {
          "indexed": false,
          "internalType": "uint256",
          "name": "when",
          "type": "uint256"
        }
      ],
      "name": "OwnerRefundRenter",
      "type": "event"
    },
    {
      "anonymous": false,
      "inputs": [
        {
          "indexed": false,
          "internalType": "uint256",
          "name": "when",
          "type": "uint256"
        }
      ],
      "name": "OwnerRefunded",
      "type": "event"
    },
    {
      "anonymous": false,
      "inputs": [
        {
          "indexed": false,
          "internalType": "uint256",
          "name": "when",
          "type": "uint256"
        }
      ],
      "name": "Restarted",
      "type": "event"
    },
    {
      "inputs": [
        {
          "internalType": "uint256",
          "name": "_apartmentId",
          "type": "uint256"
        }
      ],
      "name": "apartmentOwner",
      "outputs": [
        {
          "internalType": "address",
          "name": "",
          "type": "address"
        }
      ],
      "stateMutability": "view",
      "type": "function"
    },
    {
      "inputs": [
        {
          "internalType": "uint256",
          "name": "_apartmentId",
          "type": "uint256"
        }
      ],
      "name": "apartmentPrice",
      "outputs": [
        {
          "internalType": "uint256",
          "name": "",
          "type": "uint256"
        }
      ],
      "stateMutability": "view",
      "type": "function"
    },
    {
      "inputs": [],
      "name": "close",
      "outputs": [],
      "stateMutability": "nonpayable",
      "type": "function"
    },
    {
      "inputs": [
        {
          "internalType": "uint256",
          "name": "_apartmentId",
          "type": "uint256"
        },
        {
          "internalType": "uint256",
          "name": "_rentingDays",
          "type": "uint256"
        }
      ],
      "name": "confirmPurchase",
      "outputs": [],
      "stateMutability": "payable",
      "type": "function"
    },
    {
      "inputs": [
        {
          "internalType": "uint256",
          "name": "_apartmentId",
          "type": "uint256"
        },
        {
          "internalType": "uint256",
          "name": "_rentingDays",
          "type": "uint256"
        }
      ],
      "name": "confirmReceived",
      "outputs": [],
      "stateMutability": "nonpayable",
      "type": "function"
    },
    {
      "inputs": [
        {
          "internalType": "uint256",
          "name": "_price",
          "type": "uint256"
        }
      ],
      "name": "createApartment",
      "outputs": [],
      "stateMutability": "payable",
      "type": "function"
    },
    {
      "inputs": [
        {
          "internalType": "uint256",
          "name": "_apartmentId",
          "type": "uint256"
        }
      ],
      "name": "end",
      "outputs": [],
      "stateMutability": "nonpayable",
      "type": "function"
    },
    {
      "inputs": [],
      "name": "fee",
      "outputs": [
        {
          "internalType": "uint256",
          "name": "",
          "type": "uint256"
        }
      ],
      "stateMutability": "view",
      "type": "function"
    },
    {
      "inputs": [
        {
          "internalType": "uint256",
          "name": "",
          "type": "uint256"
        }
      ],
      "name": "idToApartment",
      "outputs": [
        {
          "internalType": "uint256",
          "name": "apartmentsId",
          "type": "uint256"
        },
        {
          "internalType": "address payable",
          "name": "ownerAp",
          "type": "address"
        },
        {
          "internalType": "address payable",
          "name": "renter",
          "type": "address"
        },
        {
          "internalType": "uint256",
          "name": "price",
          "type": "uint256"
        },
        {
          "internalType": "bool",
          "name": "rented",
          "type": "bool"
        }
      ],
      "stateMutability": "view",
      "type": "function"
    },
    {
      "inputs": [
        {
          "internalType": "uint256",
          "name": "_apartmentId",
          "type": "uint256"
        }
      ],
      "name": "isRented",
      "outputs": [
        {
          "internalType": "bool",
          "name": "",
          "type": "bool"
        }
      ],
      "stateMutability": "view",
      "type": "function"
    },
    {
      "inputs": [],
      "name": "owner",
      "outputs": [
        {
          "internalType": "address payable",
          "name": "",
          "type": "address"
        }
      ],
      "stateMutability": "view",
      "type": "function"
    },
    {
      "inputs": [
        {
          "internalType": "uint256",
          "name": "_apartmentId",
          "type": "uint256"
        },
        {
          "internalType": "uint256",
          "name": "_rentingDays",
          "type": "uint256"
        }
      ],
      "name": "refundOwner",
      "outputs": [],
      "stateMutability": "nonpayable",
      "type": "function"
    },
    {
      "inputs": [
        {
          "internalType": "uint256",
          "name": "_apartmentId",
          "type": "uint256"
        }
      ],
      "name": "refundRenter",
      "outputs": [],
      "stateMutability": "nonpayable",
      "type": "function"
    },
    {
      "inputs": [],
      "name": "renter",
      "outputs": [
        {
          "internalType": "address payable",
          "name": "",
          "type": "address"
        }
      ],
      "stateMutability": "view",
      "type": "function"
    },
    {
      "inputs": [
        {
          "internalType": "uint256",
          "name": "_apartmentId",
          "type": "uint256"
        },
        {
          "internalType": "uint256",
          "name": "_rentingDays",
          "type": "uint256"
        }
      ],
      "name": "restartContract",
      "outputs": [],
      "stateMutability": "payable",
      "type": "function"
    },
    {
      "inputs": [],
      "name": "state",
      "outputs": [
        {
          "internalType": "enum ApartmentCreator.State",
          "name": "",
          "type": "uint8"
        }
      ],
      "stateMutability": "view",
      "type": "function"
    }
  ],
  "bytecode": "0x60806040526200004f6040518060400160405280601f81526020017f4372656174696e67206e65772061706172746d656e7420666163746f72793a008152506200012c60201b620018aa1760201c565b33600160006101000a81548173ffffffffffffffffffffffffffffffffffffffff021916908373ffffffffffffffffffffffffffffffffffffffff16021790555033600160006101000a81548173ffffffffffffffffffffffffffffffffffffffff021916908373ffffffffffffffffffffffffffffffffffffffff160217905550738626f6940e2eb28930efb4cef49b2d1f2c9c1199600560006101000a81548173ffffffffffffffffffffffffffffffffffffffff021916908373ffffffffffffffffffffffffffffffffffffffff160217905550620002c0565b620001cc8160405160240162000143919062000239565b6040516020818303038152906040527f41304fac000000000000000000000000000000000000000000000000000000007bffffffffffffffffffffffffffffffffffffffffffffffffffffffff19166020820180517bffffffffffffffffffffffffffffffffffffffffffffffffffffffff8381831617835250505050620001cf60201b60201c565b50565b60008151905060006a636f6e736f6c652e6c6f679050602083016000808483855afa5050505050565b600062000205826200025d565b62000211818562000268565b93506200022381856020860162000279565b6200022e81620002af565b840191505092915050565b60006020820190508181036000830152620002558184620001f8565b905092915050565b600081519050919050565b600082825260208201905092915050565b60005b83811015620002995780820151818401526020810190506200027c565b83811115620002a9576000848401525b50505050565b6000601f19601f8301169050919050565b6120e380620002d06000396000f3fe6080604052600436106100f35760003560e01c806361e7b93f1161008a578063c19d93fb11610059578063c19d93fb146102db578063ddca3f4314610306578063ec52a59214610331578063fe5ec9ba1461036e576100f3565b806361e7b93f1461022e5780638c1af2e0146102575780638da5cb5b14610273578063aa15d40f1461029e576100f3565b80632e88ab0b116100c65780632e88ab0b146101a757806340c8b20c146101d257806343d726d6146101ee5780635a51430714610205576100f3565b80630ad24528146100f85780630f2965a31461012157806314f29e091461013d5780631f11b6a91461017e575b600080fd5b34801561010457600080fd5b5061011f600480360381019061011a91906119a5565b6103ab565b005b61013b600480360381019061013691906119ce565b6105e8565b005b34801561014957600080fd5b50610164600480360381019061015f91906119a5565b6108ee565b604051610175959493929190611d46565b60405180910390f35b34801561018a57600080fd5b506101a560048036038101906101a091906119a5565b610971565b005b3480156101b357600080fd5b506101bc610bb9565b6040516101c99190611b8a565b60405180910390f35b6101ec60048036038101906101e791906119a5565b610bdf565b005b3480156101fa57600080fd5b50610203610dad565b005b34801561021157600080fd5b5061022c600480360381019061022791906119ce565b610ff4565b005b34801561023a57600080fd5b50610255600480360381019061025091906119ce565b611282565b005b610271600480360381019061026c91906119ce565b6114f8565b005b34801561027f57600080fd5b506102886117d4565b6040516102959190611b8a565b60405180910390f35b3480156102aa57600080fd5b506102c560048036038101906102c091906119a5565b6117fa565b6040516102d29190611bea565b60405180910390f35b3480156102e757600080fd5b506102f0611827565b6040516102fd9190611c05565b60405180910390f35b34801561031257600080fd5b5061031b61183a565b6040516103289190611d02565b60405180910390f35b34801561033d57600080fd5b50610358600480360381019061035391906119a5565b611840565b6040516103659190611d02565b60405180910390f35b34801561037a57600080fd5b50610395600480360381019061039091906119a5565b611865565b6040516103a29190611b6f565b60405180910390f35b600160009054906101000a900473ffffffffffffffffffffffffffffffffffffffff1673ffffffffffffffffffffffffffffffffffffffff163373ffffffffffffffffffffffffffffffffffffffff161461043b576040517f08c379a000000000000000000000000000000000000000000000000000000000815260040161043290611c42565b60405180910390fd5b60036004811115610475577f4e487b7100000000000000000000000000000000000000000000000000000000600052602160045260246000fd5b600560149054906101000a900460ff1660048111156104bd577f4e487b7100000000000000000000000000000000000000000000000000000000600052602160045260246000fd5b148061054757506004808111156104fd577f4e487b7100000000000000000000000000000000000000000000000000000000600052602160045260246000fd5b600560149054906101000a900460ff166004811115610545577f4e487b7100000000000000000000000000000000000000000000000000000000600052602160045260246000fd5b145b156105e557600115156002600083815260200190815260200160002060040160009054906101000a905050507f2c03d2f09622b67ee91478a7e43219c7ced47eff3a3f8bda2eef920181e86766426040516105a29190611d02565b60405180910390a1600160009054906101000a900473ffffffffffffffffffffffffffffffffffffffff1673ffffffffffffffffffffffffffffffffffffffff16ff5b50565b600160009054906101000a900473ffffffffffffffffffffffffffffffffffffffff1673ffffffffffffffffffffffffffffffffffffffff163373ffffffffffffffffffffffffffffffffffffffff1614610678576040517f08c379a000000000000000000000000000000000000000000000000000000000815260040161066f90611c42565b60405180910390fd5b600360048111156106b2577f4e487b7100000000000000000000000000000000000000000000000000000000600052602160045260246000fd5b600560149054906101000a900460ff1660048111156106fa577f4e487b7100000000000000000000000000000000000000000000000000000000600052602160045260246000fd5b1480610784575060048081111561073a577f4e487b7100000000000000000000000000000000000000000000000000000000600052602160045260246000fd5b600560149054906101000a900460ff166004811115610782577f4e487b7100000000000000000000000000000000000000000000000000000000600052602160045260246000fd5b145b156108ea573481600260008581526020019081526020016000206003015460026107ae9190611db5565b6107b89190611db5565b146107f8576040517f08c379a00000000000000000000000000000000000000000000000000000000081526004016107ef90611c62565b60405180910390fd5b6000600560146101000a81548160ff02191690836004811115610844577f4e487b7100000000000000000000000000000000000000000000000000000000600052602160045260246000fd5b02179055506000600460006101000a81548173ffffffffffffffffffffffffffffffffffffffff021916908373ffffffffffffffffffffffffffffffffffffffff160217905550600115156002600084815260200190815260200160002060040160009054906101000a905050507f6aaf3aad1d1cbaace364e7580ac08458b9f1ae89f2a13c03fc6bc1c85e9690c8426040516108e19190611d02565b60405180910390a15b5050565b60026020528060005260406000206000915090508060000154908060010160009054906101000a900473ffffffffffffffffffffffffffffffffffffffff16908060020160009054906101000a900473ffffffffffffffffffffffffffffffffffffffff16908060030154908060040160009054906101000a900460ff16905085565b600460009054906101000a900473ffffffffffffffffffffffffffffffffffffffff1673ffffffffffffffffffffffffffffffffffffffff163373ffffffffffffffffffffffffffffffffffffffff1614610a01576040517f08c379a00000000000000000000000000000000000000000000000000000000081526004016109f890611ce2565b60405180910390fd5b6001806004811115610a3c577f4e487b7100000000000000000000000000000000000000000000000000000000600052602160045260246000fd5b600560149054906101000a900460ff166004811115610a84577f4e487b7100000000000000000000000000000000000000000000000000000000600052602160045260246000fd5b14610ac4576040517f08c379a0000000000000000000000000000000000000000000000000000000008152600401610abb90611c82565b60405180910390fd5b6000600560146101000a81548160ff02191690836004811115610b10577f4e487b7100000000000000000000000000000000000000000000000000000000600052602160045260246000fd5b0217905550600015156002600084815260200190815260200160002060040160009054906101000a905050506000600460006101000a81548173ffffffffffffffffffffffffffffffffffffffff021916908373ffffffffffffffffffffffffffffffffffffffff1602179055507f21603d016a64f76de6c5399e14126ba2baf3b2106c091fd71c62123de7c3365442604051610bad9190611d02565b60405180910390a15050565b600460009054906101000a900473ffffffffffffffffffffffffffffffffffffffff1681565b60008111610c22576040517f08c379a0000000000000000000000000000000000000000000000000000000008152600401610c1990611cc2565b60405180910390fd5b610c2c6000611943565b6000610c386000611959565b90506040518060a001604052808281526020013373ffffffffffffffffffffffffffffffffffffffff168152602001600073ffffffffffffffffffffffffffffffffffffffff16815260200183815260200160001515815250600260008381526020019081526020016000206000820151816000015560208201518160010160006101000a81548173ffffffffffffffffffffffffffffffffffffffff021916908373ffffffffffffffffffffffffffffffffffffffff16021790555060408201518160020160006101000a81548173ffffffffffffffffffffffffffffffffffffffff021916908373ffffffffffffffffffffffffffffffffffffffff1602179055506060820151816003015560808201518160040160006101000a81548160ff021916908315150217905550905050807f2439c9df5317aa6c4c3639e0e0b3f2cdacd6daf5f5393cbf2142da87441a67f9336000856000604051610da19493929190611ba5565b60405180910390a25050565b600160009054906101000a900473ffffffffffffffffffffffffffffffffffffffff1673ffffffffffffffffffffffffffffffffffffffff163373ffffffffffffffffffffffffffffffffffffffff1614610e3d576040517f08c379a0000000000000000000000000000000000000000000000000000000008152600401610e3490611c42565b60405180910390fd5b6000806004811115610e78577f4e487b7100000000000000000000000000000000000000000000000000000000600052602160045260246000fd5b600560149054906101000a900460ff166004811115610ec0577f4e487b7100000000000000000000000000000000000000000000000000000000600052602160045260246000fd5b14610f00576040517f08c379a0000000000000000000000000000000000000000000000000000000008152600401610ef790611c82565b60405180910390fd5b6003600560146101000a81548160ff02191690836004811115610f4c577f4e487b7100000000000000000000000000000000000000000000000000000000600052602160045260246000fd5b0217905550600160009054906101000a900473ffffffffffffffffffffffffffffffffffffffff1673ffffffffffffffffffffffffffffffffffffffff166108fc479081150290604051600060405180830381858888f19350505050158015610fb9573d6000803e3d6000fd5b507f6cc09e7b5c3e49861ebe8f6867e1618fbfc14c8d0e968fde37c4243ca02a6f8342604051610fe99190611d02565b60405180910390a150565b600460009054906101000a900473ffffffffffffffffffffffffffffffffffffffff1673ffffffffffffffffffffffffffffffffffffffff163373ffffffffffffffffffffffffffffffffffffffff1614611084576040517f08c379a000000000000000000000000000000000000000000000000000000000815260040161107b90611ce2565b60405180910390fd5b60018060048111156110bf577f4e487b7100000000000000000000000000000000000000000000000000000000600052602160045260246000fd5b600560149054906101000a900460ff166004811115611107577f4e487b7100000000000000000000000000000000000000000000000000000000600052602160045260246000fd5b14611147576040517f08c379a000000000000000000000000000000000000000000000000000000000815260040161113e90611c82565b60405180910390fd5b6002600560146101000a81548160ff02191690836004811115611193577f4e487b7100000000000000000000000000000000000000000000000000000000600052602160045260246000fd5b0217905550600460009054906101000a900473ffffffffffffffffffffffffffffffffffffffff1673ffffffffffffffffffffffffffffffffffffffff166108fc8360026000878152602001908152602001600020600301546111f69190611db5565b9081150290604051600060405180830381858888f19350505050158015611221573d6000803e3d6000fd5b507f2c076b74394a814e683d5101011a91a52e40ac779ffebc29be6cea733a57205042600460009054906101000a900473ffffffffffffffffffffffffffffffffffffffff16604051611275929190611d1d565b60405180910390a1505050565b600160009054906101000a900473ffffffffffffffffffffffffffffffffffffffff1673ffffffffffffffffffffffffffffffffffffffff163373ffffffffffffffffffffffffffffffffffffffff1614611312576040517f08c379a000000000000000000000000000000000000000000000000000000000815260040161130990611c42565b60405180910390fd5b600280600481111561134d577f4e487b7100000000000000000000000000000000000000000000000000000000600052602160045260246000fd5b600560149054906101000a900460ff166004811115611395577f4e487b7100000000000000000000000000000000000000000000000000000000600052602160045260246000fd5b146113d5576040517f08c379a00000000000000000000000000000000000000000000000000000000081526004016113cc90611c82565b60405180910390fd5b6004600560146101000a81548160ff02191690836004811115611421577f4e487b7100000000000000000000000000000000000000000000000000000000600052602160045260246000fd5b0217905550600160009054906101000a900473ffffffffffffffffffffffffffffffffffffffff1673ffffffffffffffffffffffffffffffffffffffff166108fc83600260008781526020019081526020016000206003015460036114869190611db5565b6114909190611db5565b9081150290604051600060405180830381858888f193505050501580156114bb573d6000803e3d6000fd5b507fe30b4047fe3f241feaa6f773d660f129072aaf8b1fb1ef2d6c19131ff475b773426040516114eb9190611d02565b60405180910390a1505050565b600160009054906101000a900473ffffffffffffffffffffffffffffffffffffffff1673ffffffffffffffffffffffffffffffffffffffff163373ffffffffffffffffffffffffffffffffffffffff161415611589576040517f08c379a000000000000000000000000000000000000000000000000000000000815260040161158090611ca2565b60405180910390fd5b60008060048111156115c4577f4e487b7100000000000000000000000000000000000000000000000000000000600052602160045260246000fd5b600560149054906101000a900460ff16600481111561160c577f4e487b7100000000000000000000000000000000000000000000000000000000600052602160045260246000fd5b1461164c576040517f08c379a000000000000000000000000000000000000000000000000000000000815260040161164390611c82565b60405180910390fd5b81600260008581526020019081526020016000206003015460026116709190611db5565b61167a9190611db5565b34148061168657600080fd5b600015156002600086815260200190815260200160002060040160009054906101000a900460ff161515146116ba57600080fd5b33600460006101000a81548173ffffffffffffffffffffffffffffffffffffffff021916908373ffffffffffffffffffffffffffffffffffffffff1602179055506001600560146101000a81548160ff02191690836004811115611747577f4e487b7100000000000000000000000000000000000000000000000000000000600052602160045260246000fd5b0217905550600115156002600086815260200190815260200160002060040160009054906101000a905050507f6df03f50e5eb5f7ec6366825f9ba45fea1a7a29151abb5dcecf204313129bb6142600460009054906101000a900473ffffffffffffffffffffffffffffffffffffffff166040516117c6929190611d1d565b60405180910390a150505050565b600160009054906101000a900473ffffffffffffffffffffffffffffffffffffffff1681565b60006002600083815260200190815260200160002060040160009054906101000a900460ff169050919050565b600560149054906101000a900460ff1681565b60035481565b6000806002600084815260200190815260200160002060030154905080915050919050565b6000806002600084815260200190815260200160002060010160009054906101000a900473ffffffffffffffffffffffffffffffffffffffff16905080915050919050565b611940816040516024016118be9190611c20565b6040516020818303038152906040527f41304fac000000000000000000000000000000000000000000000000000000007bffffffffffffffffffffffffffffffffffffffffffffffffffffffff19166020820180517bffffffffffffffffffffffffffffffffffffffffffffffffffffffff8381831617835250505050611967565b50565b6001816000016000828254019250508190555050565b600081600001549050919050565b60008151905060006a636f6e736f6c652e6c6f679050602083016000808483855afa5050505050565b60008135905061199f81612096565b92915050565b6000602082840312156119b757600080fd5b60006119c584828501611990565b91505092915050565b600080604083850312156119e157600080fd5b60006119ef85828601611990565b9250506020611a0085828601611990565b9150509250929050565b611a1381611e7c565b82525050565b611a2281611e21565b82525050565b611a3181611e0f565b82525050565b611a4081611e33565b82525050565b611a4f81611e8e565b82525050565b6000611a6082611d99565b611a6a8185611da4565b9350611a7a818560208601611ec4565b611a8381611f55565b840191505092915050565b6000611a9b601983611da4565b9150611aa682611f66565b602082019050919050565b6000611abe602183611da4565b9150611ac982611f8f565b604082019050919050565b6000611ae1600d83611da4565b9150611aec82611fde565b602082019050919050565b6000611b04602083611da4565b9150611b0f82612007565b602082019050919050565b6000611b27601c83611da4565b9150611b3282612030565b602082019050919050565b6000611b4a601983611da4565b9150611b5582612059565b602082019050919050565b611b6981611e72565b82525050565b6000602082019050611b846000830184611a28565b92915050565b6000602082019050611b9f6000830184611a19565b92915050565b6000608082019050611bba6000830187611a28565b611bc76020830186611a28565b611bd46040830185611b60565b611be16060830184611a37565b95945050505050565b6000602082019050611bff6000830184611a37565b92915050565b6000602082019050611c1a6000830184611a46565b92915050565b60006020820190508181036000830152611c3a8184611a55565b905092915050565b60006020820190508181036000830152611c5b81611a8e565b9050919050565b60006020820190508181036000830152611c7b81611ab1565b9050919050565b60006020820190508181036000830152611c9b81611ad4565b9050919050565b60006020820190508181036000830152611cbb81611af7565b9050919050565b60006020820190508181036000830152611cdb81611b1a565b9050919050565b60006020820190508181036000830152611cfb81611b3d565b9050919050565b6000602082019050611d176000830184611b60565b92915050565b6000604082019050611d326000830185611b60565b611d3f6020830184611a0a565b9392505050565b600060a082019050611d5b6000830188611b60565b611d686020830187611a19565b611d756040830186611a19565b611d826060830185611b60565b611d8f6080830184611a37565b9695505050505050565b600081519050919050565b600082825260208201905092915050565b6000611dc082611e72565b9150611dcb83611e72565b9250817fffffffffffffffffffffffffffffffffffffffffffffffffffffffffffffffff0483118215151615611e0457611e03611ef7565b5b828202905092915050565b6000611e1a82611e52565b9050919050565b6000611e2c82611e52565b9050919050565b60008115159050919050565b6000819050611e4d82612082565b919050565b600073ffffffffffffffffffffffffffffffffffffffff82169050919050565b6000819050919050565b6000611e8782611ea0565b9050919050565b6000611e9982611e3f565b9050919050565b6000611eab82611eb2565b9050919050565b6000611ebd82611e52565b9050919050565b60005b83811015611ee2578082015181840152602081019050611ec7565b83811115611ef1576000848401525b50505050565b7f4e487b7100000000000000000000000000000000000000000000000000000000600052601160045260246000fd5b7f4e487b7100000000000000000000000000000000000000000000000000000000600052602160045260246000fd5b6000601f19601f8301169050919050565b7f4f6e6c79206f776e65722063616e2063616c6c20746869732e00000000000000600082015250565b7f56616c75652068617320746f20626520657175616c20746f203278207072696360008201527f6500000000000000000000000000000000000000000000000000000000000000602082015250565b7f496e76616c696420737461746500000000000000000000000000000000000000600082015250565b7f4f776e65722073686f756c64206e6f742062652063616c6c696e672074686973600082015250565b7f5072696365206d757374206265206174206c6561737420312077656900000000600082015250565b7f4f6e6c792072656e7465722063616e2063616c6c207468697300000000000000600082015250565b6005811061209357612092611f26565b5b50565b61209f81611e72565b81146120aa57600080fd5b5056fea26469706673582212209b45d6c431cc35f00b4cac0bbb031d7c9518eba1800e642453e6b3e9b8a1ff5364736f6c63430008040033",
  "linkReferences": {},
  "deployedLinkReferences": {}
}