{
  "_format": "hh-sol-artifact-1",
  "contractName": "ApartmentCreator",
  "sourceName": "contracts/ApartmentRent.sol",
  "abi": [
    {
      "inputs": [],
      "stateMutability": "payable",
      "type": "constructor"
    },
    {
      "anonymous": false,
      "inputs": [
        {
          "indexed": true,
          "internalType": "uint256",
          "name": "apartmentsId",
          "type": "uint256"
        },
        {
          "indexed": false,
          "internalType": "address",
          "name": "owner",
          "type": "address"
        },
        {
          "indexed": false,
          "internalType": "address",
          "name": "renter",
          "type": "address"
        },
        {
          "indexed": false,
          "internalType": "uint256",
          "name": "price",
          "type": "uint256"
        },
        {
          "indexed": false,
          "internalType": "bool",
          "name": "rented",
          "type": "bool"
        }
      ],
      "name": "ApartmentCreated",
      "type": "event"
    },
    {
      "anonymous": false,
      "inputs": [
        {
          "indexed": false,
          "internalType": "uint256",
          "name": "when",
          "type": "uint256"
        }
      ],
      "name": "Closed",
      "type": "event"
    },
    {
      "anonymous": false,
      "inputs": [
        {
          "indexed": false,
          "internalType": "uint256",
          "name": "when",
          "type": "uint256"
        },
        {
          "indexed": false,
          "internalType": "address",
          "name": "by",
          "type": "address"
        }
      ],
      "name": "ConfirmPurchase",
      "type": "event"
    },
    {
      "anonymous": false,
      "inputs": [
        {
          "indexed": false,
          "internalType": "uint256",
          "name": "when",
          "type": "uint256"
        },
        {
          "indexed": false,
          "internalType": "address",
          "name": "by",
          "type": "address"
        }
      ],
      "name": "ConfirmReseived",
      "type": "event"
    },
    {
      "anonymous": false,
      "inputs": [
        {
          "indexed": false,
          "internalType": "uint256",
          "name": "when",
          "type": "uint256"
        }
      ],
      "name": "End",
      "type": "event"
    },
    {
      "anonymous": false,
      "inputs": [
        {
          "indexed": false,
          "internalType": "uint256",
          "name": "when",
          "type": "uint256"
        }
      ],
      "name": "OwnerRefundRenter",
      "type": "event"
    },
    {
      "anonymous": false,
      "inputs": [
        {
          "indexed": false,
          "internalType": "uint256",
          "name": "when",
          "type": "uint256"
        }
      ],
      "name": "OwnerRefunded",
      "type": "event"
    },
    {
      "anonymous": false,
      "inputs": [
        {
          "indexed": false,
          "internalType": "uint256",
          "name": "when",
          "type": "uint256"
        }
      ],
      "name": "Restarted",
      "type": "event"
    },
    {
      "inputs": [
        {
          "internalType": "uint256",
          "name": "_apartmentId",
          "type": "uint256"
        }
      ],
      "name": "apartmentPrice",
      "outputs": [
        {
          "internalType": "uint256",
          "name": "",
          "type": "uint256"
        }
      ],
      "stateMutability": "view",
      "type": "function"
    },
    {
      "inputs": [],
      "name": "close",
      "outputs": [],
      "stateMutability": "nonpayable",
      "type": "function"
    },
    {
      "inputs": [
        {
          "internalType": "uint256",
          "name": "_apartmentId",
          "type": "uint256"
        },
        {
          "internalType": "uint256",
          "name": "_rentingDays",
          "type": "uint256"
        }
      ],
      "name": "confirmPurchase",
      "outputs": [],
      "stateMutability": "payable",
      "type": "function"
    },
    {
      "inputs": [
        {
          "internalType": "uint256",
          "name": "_apartmentId",
          "type": "uint256"
        },
        {
          "internalType": "uint256",
          "name": "_rentingDays",
          "type": "uint256"
        }
      ],
      "name": "confirmReceived",
      "outputs": [],
      "stateMutability": "nonpayable",
      "type": "function"
    },
    {
      "inputs": [
        {
          "internalType": "uint256",
          "name": "_price",
          "type": "uint256"
        }
      ],
      "name": "createApartment",
      "outputs": [],
      "stateMutability": "payable",
      "type": "function"
    },
    {
      "inputs": [
        {
          "internalType": "uint256",
          "name": "_apartmentId",
          "type": "uint256"
        }
      ],
      "name": "end",
      "outputs": [],
      "stateMutability": "nonpayable",
      "type": "function"
    },
    {
      "inputs": [],
      "name": "fee",
      "outputs": [
        {
          "internalType": "uint256",
          "name": "",
          "type": "uint256"
        }
      ],
      "stateMutability": "view",
      "type": "function"
    },
    {
      "inputs": [
        {
          "internalType": "uint256",
          "name": "_apartmentId",
          "type": "uint256"
        }
      ],
      "name": "isRented",
      "outputs": [
        {
          "internalType": "bool",
          "name": "",
          "type": "bool"
        }
      ],
      "stateMutability": "view",
      "type": "function"
    },
    {
      "inputs": [],
      "name": "owner",
      "outputs": [
        {
          "internalType": "address payable",
          "name": "",
          "type": "address"
        }
      ],
      "stateMutability": "view",
      "type": "function"
    },
    {
      "inputs": [
        {
          "internalType": "uint256",
          "name": "_apartmentId",
          "type": "uint256"
        },
        {
          "internalType": "uint256",
          "name": "_rentingDays",
          "type": "uint256"
        }
      ],
      "name": "refundOwner",
      "outputs": [],
      "stateMutability": "nonpayable",
      "type": "function"
    },
    {
      "inputs": [
        {
          "internalType": "uint256",
          "name": "_apartmentId",
          "type": "uint256"
        }
      ],
      "name": "refundRenter",
      "outputs": [],
      "stateMutability": "nonpayable",
      "type": "function"
    },
    {
      "inputs": [],
      "name": "renter",
      "outputs": [
        {
          "internalType": "address payable",
          "name": "",
          "type": "address"
        }
      ],
      "stateMutability": "view",
      "type": "function"
    },
    {
      "inputs": [
        {
          "internalType": "uint256",
          "name": "_apartmentId",
          "type": "uint256"
        },
        {
          "internalType": "uint256",
          "name": "_rentingDays",
          "type": "uint256"
        }
      ],
      "name": "restartContract",
      "outputs": [],
      "stateMutability": "payable",
      "type": "function"
    },
    {
      "inputs": [],
      "name": "state",
      "outputs": [
        {
          "internalType": "enum ApartmentCreator.State",
          "name": "",
          "type": "uint8"
        }
      ],
      "stateMutability": "view",
      "type": "function"
    }
  ],
  "bytecode": "0x608060405267016345785d8a000060055533600260006101000a81548173ffffffffffffffffffffffffffffffffffffffff021916908373ffffffffffffffffffffffffffffffffffffffff160217905550738626f6940e2eb28930efb4cef49b2d1f2c9c1199600460006101000a81548173ffffffffffffffffffffffffffffffffffffffff021916908373ffffffffffffffffffffffffffffffffffffffff16021790555034600181905550611ea8806100bc6000396000f3fe6080604052600436106100dd5760003560e01c806361e7b93f1161007f578063aa15d40f11610059578063aa15d40f14610247578063c19d93fb14610284578063ddca3f43146102af578063ec52a592146102da576100dd565b806361e7b93f146101d75780638c1af2e0146102005780638da5cb5b1461021c576100dd565b80632e88ab0b116100bb5780632e88ab0b1461015057806340c8b20c1461017b57806343d726d6146101975780635a514307146101ae576100dd565b80630ad24528146100e25780630f2965a31461010b5780631f11b6a914610127575b600080fd5b3480156100ee57600080fd5b5061010960048036038101906101049190611882565b610317565b005b610125600480360381019061012091906118ab565b610554565b005b34801561013357600080fd5b5061014e60048036038101906101499190611882565b61085a565b005b34801561015c57600080fd5b50610165610aa2565b6040516101729190611a13565b60405180910390f35b61019560048036038101906101909190611882565b610ac8565b005b3480156101a357600080fd5b506101ac610d91565b005b3480156101ba57600080fd5b506101d560048036038101906101d091906118ab565b610fd8565b005b3480156101e357600080fd5b506101fe60048036038101906101f991906118ab565b611266565b005b61021a600480360381019061021591906118ab565b6114dc565b005b34801561022857600080fd5b506102316117b8565b60405161023e9190611a13565b60405180910390f35b34801561025357600080fd5b5061026e60048036038101906102699190611882565b6117de565b60405161027b9190611a73565b60405180910390f35b34801561029057600080fd5b5061029961180b565b6040516102a69190611a8e565b60405180910390f35b3480156102bb57600080fd5b506102c461181e565b6040516102d19190611b69565b60405180910390f35b3480156102e657600080fd5b5061030160048036038101906102fc9190611882565b611824565b60405161030e9190611b69565b60405180910390f35b600260009054906101000a900473ffffffffffffffffffffffffffffffffffffffff1673ffffffffffffffffffffffffffffffffffffffff163373ffffffffffffffffffffffffffffffffffffffff16146103a7576040517f08c379a000000000000000000000000000000000000000000000000000000000815260040161039e90611aa9565b60405180910390fd5b600360048111156103e1577f4e487b7100000000000000000000000000000000000000000000000000000000600052602160045260246000fd5b600660009054906101000a900460ff166004811115610429577f4e487b7100000000000000000000000000000000000000000000000000000000600052602160045260246000fd5b14806104b35750600480811115610469577f4e487b7100000000000000000000000000000000000000000000000000000000600052602160045260246000fd5b600660009054906101000a900460ff1660048111156104b1577f4e487b7100000000000000000000000000000000000000000000000000000000600052602160045260246000fd5b145b1561055157600115156007600083815260200190815260200160002060040160009054906101000a905050507f2c03d2f09622b67ee91478a7e43219c7ced47eff3a3f8bda2eef920181e867664260405161050e9190611b69565b60405180910390a1600260009054906101000a900473ffffffffffffffffffffffffffffffffffffffff1673ffffffffffffffffffffffffffffffffffffffff16ff5b50565b600260009054906101000a900473ffffffffffffffffffffffffffffffffffffffff1673ffffffffffffffffffffffffffffffffffffffff163373ffffffffffffffffffffffffffffffffffffffff16146105e4576040517f08c379a00000000000000000000000000000000000000000000000000000000081526004016105db90611aa9565b60405180910390fd5b6003600481111561061e577f4e487b7100000000000000000000000000000000000000000000000000000000600052602160045260246000fd5b600660009054906101000a900460ff166004811115610666577f4e487b7100000000000000000000000000000000000000000000000000000000600052602160045260246000fd5b14806106f057506004808111156106a6577f4e487b7100000000000000000000000000000000000000000000000000000000600052602160045260246000fd5b600660009054906101000a900460ff1660048111156106ee577f4e487b7100000000000000000000000000000000000000000000000000000000600052602160045260246000fd5b145b156108565734816007600085815260200190815260200160002060030154600261071a9190611bbe565b6107249190611bbe565b14610764576040517f08c379a000000000000000000000000000000000000000000000000000000000815260040161075b90611ac9565b60405180910390fd5b6000600660006101000a81548160ff021916908360048111156107b0577f4e487b7100000000000000000000000000000000000000000000000000000000600052602160045260246000fd5b02179055506000600360006101000a81548173ffffffffffffffffffffffffffffffffffffffff021916908373ffffffffffffffffffffffffffffffffffffffff160217905550600115156007600084815260200190815260200160002060040160009054906101000a905050507f6aaf3aad1d1cbaace364e7580ac08458b9f1ae89f2a13c03fc6bc1c85e9690c84260405161084d9190611b69565b60405180910390a15b5050565b600360009054906101000a900473ffffffffffffffffffffffffffffffffffffffff1673ffffffffffffffffffffffffffffffffffffffff163373ffffffffffffffffffffffffffffffffffffffff16146108ea576040517f08c379a00000000000000000000000000000000000000000000000000000000081526004016108e190611b49565b60405180910390fd5b6001806004811115610925577f4e487b7100000000000000000000000000000000000000000000000000000000600052602160045260246000fd5b600660009054906101000a900460ff16600481111561096d577f4e487b7100000000000000000000000000000000000000000000000000000000600052602160045260246000fd5b146109ad576040517f08c379a00000000000000000000000000000000000000000000000000000000081526004016109a490611ae9565b60405180910390fd5b6000600660006101000a81548160ff021916908360048111156109f9577f4e487b7100000000000000000000000000000000000000000000000000000000600052602160045260246000fd5b0217905550600015156007600084815260200190815260200160002060040160009054906101000a905050506000600360006101000a81548173ffffffffffffffffffffffffffffffffffffffff021916908373ffffffffffffffffffffffffffffffffffffffff1602179055507f21603d016a64f76de6c5399e14126ba2baf3b2106c091fd71c62123de7c3365442604051610a969190611b69565b60405180910390a15050565b600360009054906101000a900473ffffffffffffffffffffffffffffffffffffffff1681565b600260009054906101000a900473ffffffffffffffffffffffffffffffffffffffff1673ffffffffffffffffffffffffffffffffffffffff163373ffffffffffffffffffffffffffffffffffffffff1614610b58576040517f08c379a0000000000000000000000000000000000000000000000000000000008152600401610b4f90611aa9565b60405180910390fd5b60008111610b9b576040517f08c379a0000000000000000000000000000000000000000000000000000000008152600401610b9290611b29565b60405180910390fd5b610ba56000611849565b6000610bb1600061185f565b90506040518060a001604052808281526020013373ffffffffffffffffffffffffffffffffffffffff168152602001600073ffffffffffffffffffffffffffffffffffffffff16815260200183815260200160001515815250600760008381526020019081526020016000206000820151816000015560208201518160010160006101000a81548173ffffffffffffffffffffffffffffffffffffffff021916908373ffffffffffffffffffffffffffffffffffffffff16021790555060408201518160020160006101000a81548173ffffffffffffffffffffffffffffffffffffffff021916908373ffffffffffffffffffffffffffffffffffffffff1602179055506060820151816003015560808201518160040160006101000a81548160ff021916908315150217905550905050600460009054906101000a900473ffffffffffffffffffffffffffffffffffffffff1673ffffffffffffffffffffffffffffffffffffffff166108fc6001549081150290604051600060405180830381858888f19350505050158015610d4c573d6000803e3d6000fd5b50807f2439c9df5317aa6c4c3639e0e0b3f2cdacd6daf5f5393cbf2142da87441a67f9336000856000604051610d859493929190611a2e565b60405180910390a25050565b600260009054906101000a900473ffffffffffffffffffffffffffffffffffffffff1673ffffffffffffffffffffffffffffffffffffffff163373ffffffffffffffffffffffffffffffffffffffff1614610e21576040517f08c379a0000000000000000000000000000000000000000000000000000000008152600401610e1890611aa9565b60405180910390fd5b6000806004811115610e5c577f4e487b7100000000000000000000000000000000000000000000000000000000600052602160045260246000fd5b600660009054906101000a900460ff166004811115610ea4577f4e487b7100000000000000000000000000000000000000000000000000000000600052602160045260246000fd5b14610ee4576040517f08c379a0000000000000000000000000000000000000000000000000000000008152600401610edb90611ae9565b60405180910390fd5b6003600660006101000a81548160ff02191690836004811115610f30577f4e487b7100000000000000000000000000000000000000000000000000000000600052602160045260246000fd5b0217905550600260009054906101000a900473ffffffffffffffffffffffffffffffffffffffff1673ffffffffffffffffffffffffffffffffffffffff166108fc479081150290604051600060405180830381858888f19350505050158015610f9d573d6000803e3d6000fd5b507f6cc09e7b5c3e49861ebe8f6867e1618fbfc14c8d0e968fde37c4243ca02a6f8342604051610fcd9190611b69565b60405180910390a150565b600360009054906101000a900473ffffffffffffffffffffffffffffffffffffffff1673ffffffffffffffffffffffffffffffffffffffff163373ffffffffffffffffffffffffffffffffffffffff1614611068576040517f08c379a000000000000000000000000000000000000000000000000000000000815260040161105f90611b49565b60405180910390fd5b60018060048111156110a3577f4e487b7100000000000000000000000000000000000000000000000000000000600052602160045260246000fd5b600660009054906101000a900460ff1660048111156110eb577f4e487b7100000000000000000000000000000000000000000000000000000000600052602160045260246000fd5b1461112b576040517f08c379a000000000000000000000000000000000000000000000000000000000815260040161112290611ae9565b60405180910390fd5b6002600660006101000a81548160ff02191690836004811115611177577f4e487b7100000000000000000000000000000000000000000000000000000000600052602160045260246000fd5b0217905550600360009054906101000a900473ffffffffffffffffffffffffffffffffffffffff1673ffffffffffffffffffffffffffffffffffffffff166108fc8360076000878152602001908152602001600020600301546111da9190611bbe565b9081150290604051600060405180830381858888f19350505050158015611205573d6000803e3d6000fd5b507f2c076b74394a814e683d5101011a91a52e40ac779ffebc29be6cea733a57205042600360009054906101000a900473ffffffffffffffffffffffffffffffffffffffff16604051611259929190611b84565b60405180910390a1505050565b600260009054906101000a900473ffffffffffffffffffffffffffffffffffffffff1673ffffffffffffffffffffffffffffffffffffffff163373ffffffffffffffffffffffffffffffffffffffff16146112f6576040517f08c379a00000000000000000000000000000000000000000000000000000000081526004016112ed90611aa9565b60405180910390fd5b6002806004811115611331577f4e487b7100000000000000000000000000000000000000000000000000000000600052602160045260246000fd5b600660009054906101000a900460ff166004811115611379577f4e487b7100000000000000000000000000000000000000000000000000000000600052602160045260246000fd5b146113b9576040517f08c379a00000000000000000000000000000000000000000000000000000000081526004016113b090611ae9565b60405180910390fd5b6004600660006101000a81548160ff02191690836004811115611405577f4e487b7100000000000000000000000000000000000000000000000000000000600052602160045260246000fd5b0217905550600260009054906101000a900473ffffffffffffffffffffffffffffffffffffffff1673ffffffffffffffffffffffffffffffffffffffff166108fc836007600087815260200190815260200160002060030154600361146a9190611bbe565b6114749190611bbe565b9081150290604051600060405180830381858888f1935050505015801561149f573d6000803e3d6000fd5b507fe30b4047fe3f241feaa6f773d660f129072aaf8b1fb1ef2d6c19131ff475b773426040516114cf9190611b69565b60405180910390a1505050565b600260009054906101000a900473ffffffffffffffffffffffffffffffffffffffff1673ffffffffffffffffffffffffffffffffffffffff163373ffffffffffffffffffffffffffffffffffffffff16141561156d576040517f08c379a000000000000000000000000000000000000000000000000000000000815260040161156490611b09565b60405180910390fd5b60008060048111156115a8577f4e487b7100000000000000000000000000000000000000000000000000000000600052602160045260246000fd5b600660009054906101000a900460ff1660048111156115f0577f4e487b7100000000000000000000000000000000000000000000000000000000600052602160045260246000fd5b14611630576040517f08c379a000000000000000000000000000000000000000000000000000000000815260040161162790611ae9565b60405180910390fd5b81600760008581526020019081526020016000206003015460026116549190611bbe565b61165e9190611bbe565b34148061166a57600080fd5b600015156007600086815260200190815260200160002060040160009054906101000a900460ff1615151461169e57600080fd5b33600360006101000a81548173ffffffffffffffffffffffffffffffffffffffff021916908373ffffffffffffffffffffffffffffffffffffffff1602179055506001600660006101000a81548160ff0219169083600481111561172b577f4e487b7100000000000000000000000000000000000000000000000000000000600052602160045260246000fd5b0217905550600115156007600086815260200190815260200160002060040160009054906101000a905050507f6df03f50e5eb5f7ec6366825f9ba45fea1a7a29151abb5dcecf204313129bb6142600360009054906101000a900473ffffffffffffffffffffffffffffffffffffffff166040516117aa929190611b84565b60405180910390a150505050565b600260009054906101000a900473ffffffffffffffffffffffffffffffffffffffff1681565b60006007600083815260200190815260200160002060040160009054906101000a900460ff169050919050565b600660009054906101000a900460ff1681565b60015481565b6000806007600084815260200190815260200160002060030154905080915050919050565b6001816000016000828254019250508190555050565b600081600001549050919050565b60008135905061187c81611e5b565b92915050565b60006020828403121561189457600080fd5b60006118a28482850161186d565b91505092915050565b600080604083850312156118be57600080fd5b60006118cc8582860161186d565b92505060206118dd8582860161186d565b9150509250929050565b6118f081611c85565b82525050565b6118ff81611c2a565b82525050565b61190e81611c18565b82525050565b61191d81611c3c565b82525050565b61192c81611c97565b82525050565b600061193f601983611bad565b915061194a82611d2b565b602082019050919050565b6000611962602183611bad565b915061196d82611d54565b604082019050919050565b6000611985600d83611bad565b915061199082611da3565b602082019050919050565b60006119a8602083611bad565b91506119b382611dcc565b602082019050919050565b60006119cb601c83611bad565b91506119d682611df5565b602082019050919050565b60006119ee601983611bad565b91506119f982611e1e565b602082019050919050565b611a0d81611c7b565b82525050565b6000602082019050611a2860008301846118f6565b92915050565b6000608082019050611a436000830187611905565b611a506020830186611905565b611a5d6040830185611a04565b611a6a6060830184611914565b95945050505050565b6000602082019050611a886000830184611914565b92915050565b6000602082019050611aa36000830184611923565b92915050565b60006020820190508181036000830152611ac281611932565b9050919050565b60006020820190508181036000830152611ae281611955565b9050919050565b60006020820190508181036000830152611b0281611978565b9050919050565b60006020820190508181036000830152611b228161199b565b9050919050565b60006020820190508181036000830152611b42816119be565b9050919050565b60006020820190508181036000830152611b62816119e1565b9050919050565b6000602082019050611b7e6000830184611a04565b92915050565b6000604082019050611b996000830185611a04565b611ba660208301846118e7565b9392505050565b600082825260208201905092915050565b6000611bc982611c7b565b9150611bd483611c7b565b9250817fffffffffffffffffffffffffffffffffffffffffffffffffffffffffffffffff0483118215151615611c0d57611c0c611ccd565b5b828202905092915050565b6000611c2382611c5b565b9050919050565b6000611c3582611c5b565b9050919050565b60008115159050919050565b6000819050611c5682611e47565b919050565b600073ffffffffffffffffffffffffffffffffffffffff82169050919050565b6000819050919050565b6000611c9082611ca9565b9050919050565b6000611ca282611c48565b9050919050565b6000611cb482611cbb565b9050919050565b6000611cc682611c5b565b9050919050565b7f4e487b7100000000000000000000000000000000000000000000000000000000600052601160045260246000fd5b7f4e487b7100000000000000000000000000000000000000000000000000000000600052602160045260246000fd5b7f4f6e6c79206f776e65722063616e2063616c6c20746869732e00000000000000600082015250565b7f56616c75652068617320746f20626520657175616c20746f203278207072696360008201527f6500000000000000000000000000000000000000000000000000000000000000602082015250565b7f496e76616c696420737461746500000000000000000000000000000000000000600082015250565b7f4f776e65722073686f756c64206e6f742062652063616c6c696e672074686973600082015250565b7f5072696365206d757374206265206174206c6561737420312077656900000000600082015250565b7f4f6e6c792072656e7465722063616e2063616c6c207468697300000000000000600082015250565b60058110611e5857611e57611cfc565b5b50565b611e6481611c7b565b8114611e6f57600080fd5b5056fea26469706673582212205abf8d2a94d1605bc1eab3689230855be35174e1144ca07bb936d0b50bf5d1a364736f6c63430008040033",
  "linkReferences": {},
  "deployedLinkReferences": {}
}