{
  "_format": "hh-sol-artifact-1",
  "contractName": "ApartmentCreator",
  "sourceName": "contracts/ApartmentRent.sol",
  "abi": [
    {
      "anonymous": false,
      "inputs": [
        {
          "indexed": true,
          "internalType": "uint256",
          "name": "apartmentsId",
          "type": "uint256"
        },
        {
          "indexed": false,
          "internalType": "address",
          "name": "ownerAp",
          "type": "address"
        },
        {
          "indexed": false,
          "internalType": "address",
          "name": "renterAp",
          "type": "address"
        },
        {
          "indexed": false,
          "internalType": "uint256",
          "name": "price",
          "type": "uint256"
        },
        {
          "indexed": false,
          "internalType": "string",
          "name": "imageLink",
          "type": "string"
        },
        {
          "indexed": false,
          "internalType": "string",
          "name": "adressAp",
          "type": "string"
        },
        {
          "indexed": false,
          "internalType": "string",
          "name": "details",
          "type": "string"
        },
        {
          "indexed": false,
          "internalType": "bool",
          "name": "rented",
          "type": "bool"
        }
      ],
      "name": "ApartmentCreated",
      "type": "event"
    },
    {
      "inputs": [
        {
          "internalType": "uint256",
          "name": "_apartmentId",
          "type": "uint256"
        }
      ],
      "name": "apartmentAdress",
      "outputs": [
        {
          "internalType": "string",
          "name": "",
          "type": "string"
        }
      ],
      "stateMutability": "view",
      "type": "function"
    },
    {
      "inputs": [
        {
          "internalType": "uint256",
          "name": "_apartmentId",
          "type": "uint256"
        }
      ],
      "name": "apartmentImageLink",
      "outputs": [
        {
          "internalType": "string",
          "name": "",
          "type": "string"
        }
      ],
      "stateMutability": "view",
      "type": "function"
    },
    {
      "inputs": [
        {
          "internalType": "uint256",
          "name": "_apartmentId",
          "type": "uint256"
        }
      ],
      "name": "apartmentOwner",
      "outputs": [
        {
          "internalType": "address",
          "name": "",
          "type": "address"
        }
      ],
      "stateMutability": "view",
      "type": "function"
    },
    {
      "inputs": [
        {
          "internalType": "uint256",
          "name": "_apartmentId",
          "type": "uint256"
        }
      ],
      "name": "apartmentPrice",
      "outputs": [
        {
          "internalType": "uint256",
          "name": "",
          "type": "uint256"
        }
      ],
      "stateMutability": "view",
      "type": "function"
    },
    {
      "inputs": [
        {
          "internalType": "uint256",
          "name": "_apartmentId",
          "type": "uint256"
        }
      ],
      "name": "apartmentRent",
      "outputs": [],
      "stateMutability": "payable",
      "type": "function"
    },
    {
      "inputs": [
        {
          "internalType": "uint256",
          "name": "_price",
          "type": "uint256"
        },
        {
          "internalType": "string",
          "name": "_imageLink",
          "type": "string"
        },
        {
          "internalType": "string",
          "name": "_addressAp",
          "type": "string"
        },
        {
          "internalType": "string",
          "name": "_details",
          "type": "string"
        }
      ],
      "name": "createApartment",
      "outputs": [],
      "stateMutability": "payable",
      "type": "function"
    },
    {
      "inputs": [],
      "name": "fee",
      "outputs": [
        {
          "internalType": "uint256",
          "name": "",
          "type": "uint256"
        }
      ],
      "stateMutability": "view",
      "type": "function"
    },
    {
      "inputs": [
        {
          "internalType": "uint256",
          "name": "_apartmentId",
          "type": "uint256"
        }
      ],
      "name": "getApartmentOwner",
      "outputs": [
        {
          "internalType": "address",
          "name": "",
          "type": "address"
        }
      ],
      "stateMutability": "view",
      "type": "function"
    },
    {
      "inputs": [
        {
          "internalType": "uint256",
          "name": "_apartmentId",
          "type": "uint256"
        }
      ],
      "name": "getApartmentPrice",
      "outputs": [
        {
          "internalType": "uint256",
          "name": "",
          "type": "uint256"
        }
      ],
      "stateMutability": "view",
      "type": "function"
    },
    {
      "inputs": [
        {
          "internalType": "uint256",
          "name": "_apartmentId",
          "type": "uint256"
        }
      ],
      "name": "getApartmentRenter",
      "outputs": [
        {
          "internalType": "address",
          "name": "",
          "type": "address"
        }
      ],
      "stateMutability": "view",
      "type": "function"
    },
    {
      "inputs": [
        {
          "internalType": "uint256",
          "name": "",
          "type": "uint256"
        }
      ],
      "name": "idToApartment",
      "outputs": [
        {
          "internalType": "uint256",
          "name": "apartmentsId",
          "type": "uint256"
        },
        {
          "internalType": "address payable",
          "name": "ownerAp",
          "type": "address"
        },
        {
          "internalType": "address payable",
          "name": "renterAp",
          "type": "address"
        },
        {
          "internalType": "uint256",
          "name": "price",
          "type": "uint256"
        },
        {
          "internalType": "string",
          "name": "imageLink",
          "type": "string"
        },
        {
          "internalType": "string",
          "name": "adressAp",
          "type": "string"
        },
        {
          "internalType": "string",
          "name": "details",
          "type": "string"
        },
        {
          "internalType": "bool",
          "name": "rented",
          "type": "bool"
        }
      ],
      "stateMutability": "view",
      "type": "function"
    },
    {
      "inputs": [
        {
          "internalType": "uint256",
          "name": "_apartmentId",
          "type": "uint256"
        }
      ],
      "name": "isRented",
      "outputs": [
        {
          "internalType": "uint256",
          "name": "",
          "type": "uint256"
        }
      ],
      "stateMutability": "view",
      "type": "function"
    },
    {
      "inputs": [],
      "name": "owner",
      "outputs": [
        {
          "internalType": "address payable",
          "name": "",
          "type": "address"
        }
      ],
      "stateMutability": "view",
      "type": "function"
    },
    {
      "inputs": [
        {
          "internalType": "uint256",
          "name": "_apartmentId",
          "type": "uint256"
        }
      ],
      "name": "ownerResetApartment",
      "outputs": [],
      "stateMutability": "nonpayable",
      "type": "function"
    },
    {
      "inputs": [],
      "name": "state",
      "outputs": [
        {
          "internalType": "enum ApartmentCreator.State",
          "name": "",
          "type": "uint8"
        }
      ],
      "stateMutability": "view",
      "type": "function"
    }
  ],
  "bytecode": "0x60806040523480156200001157600080fd5b506200005d6040518060400160405280601f81526020017f4372656174696e67206e65772061706172746d656e7420666163746f72793a00815250620000a460201b62000e871760201c565b33600160006101000a81548173ffffffffffffffffffffffffffffffffffffffff021916908373ffffffffffffffffffffffffffffffffffffffff16021790555062000238565b6200014481604051602401620000bb9190620001b1565b6040516020818303038152906040527f41304fac000000000000000000000000000000000000000000000000000000007bffffffffffffffffffffffffffffffffffffffffffffffffffffffff19166020820180517bffffffffffffffffffffffffffffffffffffffffffffffffffffffff83818316178352505050506200014760201b60201c565b50565b60008151905060006a636f6e736f6c652e6c6f679050602083016000808483855afa5050505050565b60006200017d82620001d5565b620001898185620001e0565b93506200019b818560208601620001f1565b620001a68162000227565b840191505092915050565b60006020820190508181036000830152620001cd818462000170565b905092915050565b600081519050919050565b600082825260208201905092915050565b60005b8381101562000211578082015181840152602081019050620001f4565b8381111562000221576000848401525b50505050565b6000601f19601f8301169050919050565b6118a780620002486000396000f3fe6080604052600436106100e85760003560e01c80638da5cb5b1161008a578063c19d93fb11610059578063c19d93fb1461032b578063ddca3f4314610356578063ec52a59214610381578063fe5ec9ba146103be576100e8565b80638da5cb5b1461025d5780638ebc0b3c146102885780639f1070f4146102c5578063aa15d40f146102ee576100e8565b806367b2be1f116100c657806367b2be1f146101ab5780637a115660146101e857806380f34c69146102045780638d558cc114610220576100e8565b80630d874e87146100ed57806314f29e091461012a5780632b24fa4b1461016e575b600080fd5b3480156100f957600080fd5b50610114600480360381019061010f919061108d565b6103fb565b604051610121919061138c565b60405180910390f35b34801561013657600080fd5b50610151600480360381019061014c919061108d565b6104a9565b604051610165989796959493929190611489565b60405180910390f35b34801561017a57600080fd5b506101956004803603810190610190919061108d565b6106d6565b6040516101a2919061138c565b60405180910390f35b3480156101b757600080fd5b506101d260048036038101906101cd919061108d565b610784565b6040516101df91906112b7565b60405180910390f35b61020260048036038101906101fd91906110b6565b610834565b005b61021e6004803603810190610219919061108d565b610a75565b005b34801561022c57600080fd5b506102476004803603810190610242919061108d565b610b66565b60405161025491906112b7565b60405180910390f35b34801561026957600080fd5b50610272610bab565b60405161027f91906112d2565b60405180910390f35b34801561029457600080fd5b506102af60048036038101906102aa919061108d565b610bd1565b6040516102bc919061146e565b60405180910390f35b3480156102d157600080fd5b506102ec60048036038101906102e7919061108d565b610bf6565b005b3480156102fa57600080fd5b506103156004803603810190610310919061108d565b610dc6565b604051610322919061146e565b60405180910390f35b34801561033757600080fd5b50610340610e04565b60405161034d9190611371565b60405180910390f35b34801561036257600080fd5b5061036b610e17565b604051610378919061146e565b60405180910390f35b34801561038d57600080fd5b506103a860048036038101906103a3919061108d565b610e1d565b6040516103b5919061146e565b60405180910390f35b3480156103ca57600080fd5b506103e560048036038101906103e0919061108d565b610e42565b6040516103f291906112b7565b60405180910390f35b606060006002600084815260200190815260200160002060050180546104209061164f565b80601f016020809104026020016040519081016040528092919081815260200182805461044c9061164f565b80156104995780601f1061046e57610100808354040283529160200191610499565b820191906000526020600020905b81548152906001019060200180831161047c57829003601f168201915b5050505050905080915050919050565b60026020528060005260406000206000915090508060000154908060010160009054906101000a900473ffffffffffffffffffffffffffffffffffffffff16908060020160009054906101000a900473ffffffffffffffffffffffffffffffffffffffff16908060030154908060040180546105249061164f565b80601f01602080910402602001604051908101604052809291908181526020018280546105509061164f565b801561059d5780601f106105725761010080835404028352916020019161059d565b820191906000526020600020905b81548152906001019060200180831161058057829003601f168201915b5050505050908060050180546105b29061164f565b80601f01602080910402602001604051908101604052809291908181526020018280546105de9061164f565b801561062b5780601f106106005761010080835404028352916020019161062b565b820191906000526020600020905b81548152906001019060200180831161060e57829003601f168201915b5050505050908060060180546106409061164f565b80601f016020809104026020016040519081016040528092919081815260200182805461066c9061164f565b80156106b95780601f1061068e576101008083540402835291602001916106b9565b820191906000526020600020905b81548152906001019060200180831161069c57829003601f168201915b5050505050908060070160009054906101000a900460ff16905088565b606060006002600084815260200190815260200160002060040180546106fb9061164f565b80601f01602080910402602001604051908101604052809291908181526020018280546107279061164f565b80156107745780601f1061074957610100808354040283529160200191610774565b820191906000526020600020905b81548152906001019060200180831161075757829003601f168201915b5050505050905080915050919050565b6000600115156002600084815260200190815260200160002060070160009054906101000a900460ff161515146107f0576040517f08c379a00000000000000000000000000000000000000000000000000000000081526004016107e7906113ce565b60405180910390fd5b60006002600084815260200190815260200160002060020160009054906101000a900473ffffffffffffffffffffffffffffffffffffffff16905080915050919050565b60008411610877576040517f08c379a000000000000000000000000000000000000000000000000000000000815260040161086e9061142e565b60405180910390fd5b6108816000610f20565b600061088d6000610f36565b90506040518061010001604052808281526020013373ffffffffffffffffffffffffffffffffffffffff168152602001600073ffffffffffffffffffffffffffffffffffffffff16815260200186815260200185815260200184815260200183815260200160001515815250600260008381526020019081526020016000206000820151816000015560208201518160010160006101000a81548173ffffffffffffffffffffffffffffffffffffffff021916908373ffffffffffffffffffffffffffffffffffffffff16021790555060408201518160020160006101000a81548173ffffffffffffffffffffffffffffffffffffffff021916908373ffffffffffffffffffffffffffffffffffffffff1602179055506060820151816003015560808201518160040190805190602001906109ca929190610f6d565b5060a08201518160050190805190602001906109e7929190610f6d565b5060c0820151816006019080519060200190610a04929190610f6d565b5060e08201518160070160006101000a81548160ff021916908315150217905550905050807fb52555d9bfce3c450bb4d1930febcfee9177e6c0402cf25be2c896760a8d90f5336000888888886000604051610a6697969594939291906112ed565b60405180910390a25050505050565b600015156002600083815260200190815260200160002060070160009054906101000a900460ff16151514610adf576040517f08c379a0000000000000000000000000000000000000000000000000000000008152600401610ad69061144e565b60405180910390fd5b336002600083815260200190815260200160002060020160006101000a81548173ffffffffffffffffffffffffffffffffffffffff021916908373ffffffffffffffffffffffffffffffffffffffff16021790555060016002600083815260200190815260200160002060070160006101000a81548160ff02191690831515021790555050565b6000806002600084815260200190815260200160002060010160009054906101000a900473ffffffffffffffffffffffffffffffffffffffff16905080915050919050565b600160009054906101000a900473ffffffffffffffffffffffffffffffffffffffff1681565b6000806002600084815260200190815260200160002060030154905080915050919050565b600160009054906101000a900473ffffffffffffffffffffffffffffffffffffffff1673ffffffffffffffffffffffffffffffffffffffff163373ffffffffffffffffffffffffffffffffffffffff1614610c86576040517f08c379a0000000000000000000000000000000000000000000000000000000008152600401610c7d906113ae565b60405180910390fd5b3373ffffffffffffffffffffffffffffffffffffffff166002600083815260200190815260200160002060010160009054906101000a900473ffffffffffffffffffffffffffffffffffffffff1673ffffffffffffffffffffffffffffffffffffffff1614610d2a576040517f08c379a0000000000000000000000000000000000000000000000000000000008152600401610d21906113ee565b60405180910390fd5b600115156002600083815260200190815260200160002060070160009054906101000a900460ff16151514610d94576040517f08c379a0000000000000000000000000000000000000000000000000000000008152600401610d8b9061140e565b60405180910390fd5b60006002600083815260200190815260200160002060070160006101000a81548160ff02191690831515021790555050565b60006002600083815260200190815260200160002060070160009054906101000a900460ff1615610dfa5760019050610dff565b600090505b919050565b600460009054906101000a900460ff1681565b60035481565b6000806002600084815260200190815260200160002060030154905080915050919050565b6000806002600084815260200190815260200160002060010160009054906101000a900473ffffffffffffffffffffffffffffffffffffffff16905080915050919050565b610f1d81604051602401610e9b919061138c565b6040516020818303038152906040527f41304fac000000000000000000000000000000000000000000000000000000007bffffffffffffffffffffffffffffffffffffffffffffffffffffffff19166020820180517bffffffffffffffffffffffffffffffffffffffffffffffffffffffff8381831617835250505050610f44565b50565b6001816000016000828254019250508190555050565b600081600001549050919050565b60008151905060006a636f6e736f6c652e6c6f679050602083016000808483855afa5050505050565b828054610f799061164f565b90600052602060002090601f016020900481019282610f9b5760008555610fe2565b82601f10610fb457805160ff1916838001178555610fe2565b82800160010185558215610fe2579182015b82811115610fe1578251825591602001919060010190610fc6565b5b509050610fef9190610ff3565b5090565b5b8082111561100c576000816000905550600101610ff4565b5090565b600061102361101e84611541565b61151c565b90508281526020810184848401111561103b57600080fd5b61104684828561160d565b509392505050565b600082601f83011261105f57600080fd5b813561106f848260208601611010565b91505092915050565b6000813590506110878161185a565b92915050565b60006020828403121561109f57600080fd5b60006110ad84828501611078565b91505092915050565b600080600080608085870312156110cc57600080fd5b60006110da87828801611078565b945050602085013567ffffffffffffffff8111156110f757600080fd5b6111038782880161104e565b935050604085013567ffffffffffffffff81111561112057600080fd5b61112c8782880161104e565b925050606085013567ffffffffffffffff81111561114957600080fd5b6111558782880161104e565b91505092959194509250565b61116a816115a0565b82525050565b6111798161158e565b82525050565b611188816115b2565b82525050565b611197816115fb565b82525050565b60006111a882611572565b6111b2818561157d565b93506111c281856020860161161c565b6111cb8161173f565b840191505092915050565b60006111e360198361157d565b91506111ee82611750565b602082019050919050565b6000611206600e8361157d565b915061121182611779565b602082019050919050565b6000611229600d8361157d565b9150611234826117a2565b602082019050919050565b600061124c60178361157d565b9150611257826117cb565b602082019050919050565b600061126f601c8361157d565b915061127a826117f4565b602082019050919050565b600061129260138361157d565b915061129d8261181d565b602082019050919050565b6112b1816115f1565b82525050565b60006020820190506112cc6000830184611170565b92915050565b60006020820190506112e76000830184611161565b92915050565b600060e082019050611302600083018a611170565b61130f6020830189611170565b61131c60408301886112a8565b818103606083015261132e818761119d565b90508181036080830152611342818661119d565b905081810360a0830152611356818561119d565b905061136560c083018461117f565b98975050505050505050565b6000602082019050611386600083018461118e565b92915050565b600060208201905081810360008301526113a6818461119d565b905092915050565b600060208201905081810360008301526113c7816111d6565b9050919050565b600060208201905081810360008301526113e7816111f9565b9050919050565b600060208201905081810360008301526114078161121c565b9050919050565b600060208201905081810360008301526114278161123f565b9050919050565b6000602082019050818103600083015261144781611262565b9050919050565b6000602082019050818103600083015261146781611285565b9050919050565b600060208201905061148360008301846112a8565b92915050565b60006101008201905061149f600083018b6112a8565b6114ac602083018a611161565b6114b96040830189611161565b6114c660608301886112a8565b81810360808301526114d8818761119d565b905081810360a08301526114ec818661119d565b905081810360c0830152611500818561119d565b905061150f60e083018461117f565b9998505050505050505050565b6000611526611537565b90506115328282611681565b919050565b6000604051905090565b600067ffffffffffffffff82111561155c5761155b611710565b5b6115658261173f565b9050602081019050919050565b600081519050919050565b600082825260208201905092915050565b6000611599826115d1565b9050919050565b60006115ab826115d1565b9050919050565b60008115159050919050565b60008190506115cc82611846565b919050565b600073ffffffffffffffffffffffffffffffffffffffff82169050919050565b6000819050919050565b6000611606826115be565b9050919050565b82818337600083830152505050565b60005b8381101561163a57808201518184015260208101905061161f565b83811115611649576000848401525b50505050565b6000600282049050600182168061166757607f821691505b6020821081141561167b5761167a6116e1565b5b50919050565b61168a8261173f565b810181811067ffffffffffffffff821117156116a9576116a8611710565b5b80604052505050565b7f4e487b7100000000000000000000000000000000000000000000000000000000600052602160045260246000fd5b7f4e487b7100000000000000000000000000000000000000000000000000000000600052602260045260246000fd5b7f4e487b7100000000000000000000000000000000000000000000000000000000600052604160045260246000fd5b6000601f19601f8301169050919050565b7f4f6e6c79206f776e65722063616e2063616c6c20746869732e00000000000000600082015250565b7f4e6f742072656e74656420796574000000000000000000000000000000000000600082015250565b7f4e6f7420746865206f776e657200000000000000000000000000000000000000600082015250565b7f41706172746d656e74206973206e6f742072656e746564000000000000000000600082015250565b7f5072696365206d757374206265206174206c6561737420312077656900000000600082015250565b7f41706172746d656e742069732072656e74656400000000000000000000000000600082015250565b60058110611857576118566116b2565b5b50565b611863816115f1565b811461186e57600080fd5b5056fea2646970667358221220c876d39f3f7ee5d57aeefdcf73ec201836cc5f60aad2463f3badc274632d511064736f6c63430008040033",
  "linkReferences": {},
  "deployedLinkReferences": {}
}