{
  "_format": "hh-sol-artifact-1",
  "contractName": "ApartmentCreator",
  "sourceName": "contracts/ApartmentRent.sol",
  "abi": [
    {
      "anonymous": false,
      "inputs": [
        {
          "indexed": true,
          "internalType": "uint256",
          "name": "apartmentsId",
          "type": "uint256"
        },
        {
          "indexed": false,
          "internalType": "address",
          "name": "ownerAp",
          "type": "address"
        },
        {
          "indexed": false,
          "internalType": "address",
          "name": "renterAp",
          "type": "address"
        },
        {
          "indexed": false,
          "internalType": "uint256",
          "name": "price",
          "type": "uint256"
        },
        {
          "indexed": false,
          "internalType": "string",
          "name": "imageLink",
          "type": "string"
        },
        {
          "indexed": false,
          "internalType": "string",
          "name": "adressAp",
          "type": "string"
        },
        {
          "indexed": false,
          "internalType": "string",
          "name": "details",
          "type": "string"
        },
        {
          "indexed": false,
          "internalType": "bool",
          "name": "rented",
          "type": "bool"
        }
      ],
      "name": "ApartmentCreated",
      "type": "event"
    },
    {
      "inputs": [
        {
          "internalType": "uint256",
          "name": "_apartmentId",
          "type": "uint256"
        }
      ],
      "name": "apartmentAdress",
      "outputs": [
        {
          "internalType": "string",
          "name": "",
          "type": "string"
        }
      ],
      "stateMutability": "view",
      "type": "function"
    },
    {
      "inputs": [
        {
          "internalType": "uint256",
          "name": "_apartmentId",
          "type": "uint256"
        }
      ],
      "name": "apartmentImageLink",
      "outputs": [
        {
          "internalType": "string",
          "name": "",
          "type": "string"
        }
      ],
      "stateMutability": "view",
      "type": "function"
    },
    {
      "inputs": [
        {
          "internalType": "uint256",
          "name": "_apartmentId",
          "type": "uint256"
        }
      ],
      "name": "apartmentOwner",
      "outputs": [
        {
          "internalType": "address",
          "name": "",
          "type": "address"
        }
      ],
      "stateMutability": "view",
      "type": "function"
    },
    {
      "inputs": [
        {
          "internalType": "uint256",
          "name": "_apartmentId",
          "type": "uint256"
        }
      ],
      "name": "apartmentPrice",
      "outputs": [
        {
          "internalType": "uint256",
          "name": "",
          "type": "uint256"
        }
      ],
      "stateMutability": "view",
      "type": "function"
    },
    {
      "inputs": [
        {
          "internalType": "uint256",
          "name": "_apartmentId",
          "type": "uint256"
        }
      ],
      "name": "apartmentRent",
      "outputs": [],
      "stateMutability": "payable",
      "type": "function"
    },
    {
      "inputs": [
        {
          "internalType": "uint256",
          "name": "_price",
          "type": "uint256"
        },
        {
          "internalType": "string",
          "name": "_imageLink",
          "type": "string"
        },
        {
          "internalType": "string",
          "name": "_addressAp",
          "type": "string"
        },
        {
          "internalType": "string",
          "name": "_details",
          "type": "string"
        }
      ],
      "name": "createApartment",
      "outputs": [],
      "stateMutability": "payable",
      "type": "function"
    },
    {
      "inputs": [],
      "name": "fee",
      "outputs": [
        {
          "internalType": "uint256",
          "name": "",
          "type": "uint256"
        }
      ],
      "stateMutability": "view",
      "type": "function"
    },
    {
      "inputs": [],
      "name": "fetchApartmentsCreated",
      "outputs": [
        {
          "components": [
            {
              "internalType": "uint256",
              "name": "apartmentsId",
              "type": "uint256"
            },
            {
              "internalType": "address payable",
              "name": "ownerAp",
              "type": "address"
            },
            {
              "internalType": "address payable",
              "name": "renterAp",
              "type": "address"
            },
            {
              "internalType": "uint256",
              "name": "price",
              "type": "uint256"
            },
            {
              "internalType": "string",
              "name": "imageLink",
              "type": "string"
            },
            {
              "internalType": "string",
              "name": "adressAp",
              "type": "string"
            },
            {
              "internalType": "string",
              "name": "details",
              "type": "string"
            },
            {
              "internalType": "bool",
              "name": "rented",
              "type": "bool"
            }
          ],
          "internalType": "struct CreateApartment.Apartment[]",
          "name": "",
          "type": "tuple[]"
        }
      ],
      "stateMutability": "view",
      "type": "function"
    },
    {
      "inputs": [
        {
          "internalType": "uint256",
          "name": "_apartmentId",
          "type": "uint256"
        }
      ],
      "name": "getApartmentOwner",
      "outputs": [
        {
          "internalType": "address",
          "name": "",
          "type": "address"
        }
      ],
      "stateMutability": "view",
      "type": "function"
    },
    {
      "inputs": [
        {
          "internalType": "uint256",
          "name": "_apartmentId",
          "type": "uint256"
        }
      ],
      "name": "getApartmentPrice",
      "outputs": [
        {
          "internalType": "uint256",
          "name": "",
          "type": "uint256"
        }
      ],
      "stateMutability": "view",
      "type": "function"
    },
    {
      "inputs": [
        {
          "internalType": "uint256",
          "name": "_apartmentId",
          "type": "uint256"
        }
      ],
      "name": "getApartmentRenter",
      "outputs": [
        {
          "internalType": "address",
          "name": "",
          "type": "address"
        }
      ],
      "stateMutability": "view",
      "type": "function"
    },
    {
      "inputs": [
        {
          "internalType": "uint256",
          "name": "",
          "type": "uint256"
        }
      ],
      "name": "idToApartment",
      "outputs": [
        {
          "internalType": "uint256",
          "name": "apartmentsId",
          "type": "uint256"
        },
        {
          "internalType": "address payable",
          "name": "ownerAp",
          "type": "address"
        },
        {
          "internalType": "address payable",
          "name": "renterAp",
          "type": "address"
        },
        {
          "internalType": "uint256",
          "name": "price",
          "type": "uint256"
        },
        {
          "internalType": "string",
          "name": "imageLink",
          "type": "string"
        },
        {
          "internalType": "string",
          "name": "adressAp",
          "type": "string"
        },
        {
          "internalType": "string",
          "name": "details",
          "type": "string"
        },
        {
          "internalType": "bool",
          "name": "rented",
          "type": "bool"
        }
      ],
      "stateMutability": "view",
      "type": "function"
    },
    {
      "inputs": [
        {
          "internalType": "uint256",
          "name": "_apartmentId",
          "type": "uint256"
        }
      ],
      "name": "isRented",
      "outputs": [
        {
          "internalType": "uint256",
          "name": "",
          "type": "uint256"
        }
      ],
      "stateMutability": "view",
      "type": "function"
    },
    {
      "inputs": [],
      "name": "owner",
      "outputs": [
        {
          "internalType": "address payable",
          "name": "",
          "type": "address"
        }
      ],
      "stateMutability": "view",
      "type": "function"
    },
    {
      "inputs": [
        {
          "internalType": "uint256",
          "name": "_apartmentId",
          "type": "uint256"
        }
      ],
      "name": "ownerResetApartment",
      "outputs": [],
      "stateMutability": "nonpayable",
      "type": "function"
    },
    {
      "inputs": [],
      "name": "state",
      "outputs": [
        {
          "internalType": "enum ApartmentCreator.State",
          "name": "",
          "type": "uint8"
        }
      ],
      "stateMutability": "view",
      "type": "function"
    }
  ],
  "bytecode": "0x60806040523480156200001157600080fd5b506200005d6040518060400160405280601f81526020017f4372656174696e67206e65772061706172746d656e7420666163746f72793a00815250620000a460201b6200128f1760201c565b33600160006101000a81548173ffffffffffffffffffffffffffffffffffffffff021916908373ffffffffffffffffffffffffffffffffffffffff16021790555062000238565b6200014481604051602401620000bb9190620001b1565b6040516020818303038152906040527f41304fac000000000000000000000000000000000000000000000000000000007bffffffffffffffffffffffffffffffffffffffffffffffffffffffff19166020820180517bffffffffffffffffffffffffffffffffffffffffffffffffffffffff83818316178352505050506200014760201b60201c565b50565b60008151905060006a636f6e736f6c652e6c6f679050602083016000808483855afa5050505050565b60006200017d82620001d5565b620001898185620001e0565b93506200019b818560208601620001f1565b620001a68162000227565b840191505092915050565b60006020820190508181036000830152620001cd818462000170565b905092915050565b600081519050919050565b600082825260208201905092915050565b60005b8381101562000211578082015181840152602081019050620001f4565b8381111562000221576000848401525b50505050565b6000601f19601f8301169050919050565b61200980620002486000396000f3fe6080604052600436106100f35760003560e01c80638da5cb5b1161008a578063c19d93fb11610059578063c19d93fb14610361578063ddca3f431461038c578063ec52a592146103b7578063fe5ec9ba146103f4576100f3565b80638da5cb5b146102935780638ebc0b3c146102be5780639f1070f4146102fb578063aa15d40f14610324576100f3565b806367b2be1f116100c657806367b2be1f146101e15780637a1156601461021e57806380f34c691461023a5780638d558cc114610256576100f3565b80630d874e87146100f857806314f29e091461013557806327385b0f146101795780632b24fa4b146101a4575b600080fd5b34801561010457600080fd5b5061011f600480360381019061011a9190611508565b610431565b60405161012c91906119d6565b60405180910390f35b34801561014157600080fd5b5061015c60048036038101906101579190611508565b6104df565b604051610170989796959493929190611ad3565b60405180910390f35b34801561018557600080fd5b5061018e61070c565b60405161019b9190611999565b60405180910390f35b3480156101b057600080fd5b506101cb60048036038101906101c69190611508565b610ade565b6040516101d891906119d6565b60405180910390f35b3480156101ed57600080fd5b5061020860048036038101906102039190611508565b610b8c565b60405161021591906118df565b60405180910390f35b61023860048036038101906102339190611531565b610c3c565b005b610254600480360381019061024f9190611508565b610e7d565b005b34801561026257600080fd5b5061027d60048036038101906102789190611508565b610f6e565b60405161028a91906118df565b60405180910390f35b34801561029f57600080fd5b506102a8610fb3565b6040516102b591906118fa565b60405180910390f35b3480156102ca57600080fd5b506102e560048036038101906102e09190611508565b610fd9565b6040516102f29190611ab8565b60405180910390f35b34801561030757600080fd5b50610322600480360381019061031d9190611508565b610ffe565b005b34801561033057600080fd5b5061034b60048036038101906103469190611508565b6111ce565b6040516103589190611ab8565b60405180910390f35b34801561036d57600080fd5b5061037661120c565b60405161038391906119bb565b60405180910390f35b34801561039857600080fd5b506103a161121f565b6040516103ae9190611ab8565b60405180910390f35b3480156103c357600080fd5b506103de60048036038101906103d99190611508565b611225565b6040516103eb9190611ab8565b60405180910390f35b34801561040057600080fd5b5061041b60048036038101906104169190611508565b61124a565b60405161042891906118df565b60405180910390f35b6060600060026000848152602001908152602001600020600501805461045690611d39565b80601f016020809104026020016040519081016040528092919081815260200182805461048290611d39565b80156104cf5780601f106104a4576101008083540402835291602001916104cf565b820191906000526020600020905b8154815290600101906020018083116104b257829003601f168201915b5050505050905080915050919050565b60026020528060005260406000206000915090508060000154908060010160009054906101000a900473ffffffffffffffffffffffffffffffffffffffff16908060020160009054906101000a900473ffffffffffffffffffffffffffffffffffffffff169080600301549080600401805461055a90611d39565b80601f016020809104026020016040519081016040528092919081815260200182805461058690611d39565b80156105d35780601f106105a8576101008083540402835291602001916105d3565b820191906000526020600020905b8154815290600101906020018083116105b657829003601f168201915b5050505050908060050180546105e890611d39565b80601f016020809104026020016040519081016040528092919081815260200182805461061490611d39565b80156106615780601f1061063657610100808354040283529160200191610661565b820191906000526020600020905b81548152906001019060200180831161064457829003601f168201915b50505050509080600601805461067690611d39565b80601f01602080910402602001604051908101604052809291908181526020018280546106a290611d39565b80156106ef5780601f106106c4576101008083540402835291602001916106ef565b820191906000526020600020905b8154815290600101906020018083116106d257829003601f168201915b5050505050908060070160009054906101000a900460ff16905088565b6060600061071a6000611328565b905060008167ffffffffffffffff81111561075e577f4e487b7100000000000000000000000000000000000000000000000000000000600052604160045260246000fd5b60405190808252806020026020018201604052801561079757816020015b610784611375565b81526020019060019003908161077c5790505b5090506000805b83811015610ad45760006001826107b59190611c22565b905060006002600083815260200190815260200160002090508060405180610100016040529081600082015481526020016001820160009054906101000a900473ffffffffffffffffffffffffffffffffffffffff1673ffffffffffffffffffffffffffffffffffffffff1673ffffffffffffffffffffffffffffffffffffffff1681526020016002820160009054906101000a900473ffffffffffffffffffffffffffffffffffffffff1673ffffffffffffffffffffffffffffffffffffffff1673ffffffffffffffffffffffffffffffffffffffff168152602001600382015481526020016004820180546108ab90611d39565b80601f01602080910402602001604051908101604052809291908181526020018280546108d790611d39565b80156109245780601f106108f957610100808354040283529160200191610924565b820191906000526020600020905b81548152906001019060200180831161090757829003601f168201915b5050505050815260200160058201805461093d90611d39565b80601f016020809104026020016040519081016040528092919081815260200182805461096990611d39565b80156109b65780601f1061098b576101008083540402835291602001916109b6565b820191906000526020600020905b81548152906001019060200180831161099957829003601f168201915b505050505081526020016006820180546109cf90611d39565b80601f01602080910402602001604051908101604052809291908181526020018280546109fb90611d39565b8015610a485780601f10610a1d57610100808354040283529160200191610a48565b820191906000526020600020905b815481529060010190602001808311610a2b57829003601f168201915b505050505081526020016007820160009054906101000a900460ff161515151581525050858581518110610aa5577f4e487b7100000000000000000000000000000000000000000000000000000000600052603260045260246000fd5b6020026020010181905250600184610abd9190611c22565b935050508080610acc90611d9c565b91505061079e565b5081935050505090565b60606000600260008481526020019081526020016000206004018054610b0390611d39565b80601f0160208091040260200160405190810160405280929190818152602001828054610b2f90611d39565b8015610b7c5780601f10610b5157610100808354040283529160200191610b7c565b820191906000526020600020905b815481529060010190602001808311610b5f57829003601f168201915b5050505050905080915050919050565b6000600115156002600084815260200190815260200160002060070160009054906101000a900460ff16151514610bf8576040517f08c379a0000000000000000000000000000000000000000000000000000000008152600401610bef90611a18565b60405180910390fd5b60006002600084815260200190815260200160002060020160009054906101000a900473ffffffffffffffffffffffffffffffffffffffff16905080915050919050565b60008411610c7f576040517f08c379a0000000000000000000000000000000000000000000000000000000008152600401610c7690611a78565b60405180910390fd5b610c896000611336565b6000610c956000611328565b90506040518061010001604052808281526020013373ffffffffffffffffffffffffffffffffffffffff168152602001600073ffffffffffffffffffffffffffffffffffffffff16815260200186815260200185815260200184815260200183815260200160001515815250600260008381526020019081526020016000206000820151816000015560208201518160010160006101000a81548173ffffffffffffffffffffffffffffffffffffffff021916908373ffffffffffffffffffffffffffffffffffffffff16021790555060408201518160020160006101000a81548173ffffffffffffffffffffffffffffffffffffffff021916908373ffffffffffffffffffffffffffffffffffffffff160217905550606082015181600301556080820151816004019080519060200190610dd29291906113e8565b5060a0820151816005019080519060200190610def9291906113e8565b5060c0820151816006019080519060200190610e0c9291906113e8565b5060e08201518160070160006101000a81548160ff021916908315150217905550905050807fb52555d9bfce3c450bb4d1930febcfee9177e6c0402cf25be2c896760a8d90f5336000888888886000604051610e6e9796959493929190611915565b60405180910390a25050505050565b600015156002600083815260200190815260200160002060070160009054906101000a900460ff16151514610ee7576040517f08c379a0000000000000000000000000000000000000000000000000000000008152600401610ede90611a98565b60405180910390fd5b336002600083815260200190815260200160002060020160006101000a81548173ffffffffffffffffffffffffffffffffffffffff021916908373ffffffffffffffffffffffffffffffffffffffff16021790555060016002600083815260200190815260200160002060070160006101000a81548160ff02191690831515021790555050565b6000806002600084815260200190815260200160002060010160009054906101000a900473ffffffffffffffffffffffffffffffffffffffff16905080915050919050565b600160009054906101000a900473ffffffffffffffffffffffffffffffffffffffff1681565b6000806002600084815260200190815260200160002060030154905080915050919050565b600160009054906101000a900473ffffffffffffffffffffffffffffffffffffffff1673ffffffffffffffffffffffffffffffffffffffff163373ffffffffffffffffffffffffffffffffffffffff161461108e576040517f08c379a0000000000000000000000000000000000000000000000000000000008152600401611085906119f8565b60405180910390fd5b3373ffffffffffffffffffffffffffffffffffffffff166002600083815260200190815260200160002060010160009054906101000a900473ffffffffffffffffffffffffffffffffffffffff1673ffffffffffffffffffffffffffffffffffffffff1614611132576040517f08c379a000000000000000000000000000000000000000000000000000000000815260040161112990611a38565b60405180910390fd5b600115156002600083815260200190815260200160002060070160009054906101000a900460ff1615151461119c576040517f08c379a000000000000000000000000000000000000000000000000000000000815260040161119390611a58565b60405180910390fd5b60006002600083815260200190815260200160002060070160006101000a81548160ff02191690831515021790555050565b60006002600083815260200190815260200160002060070160009054906101000a900460ff16156112025760019050611207565b600090505b919050565b600460009054906101000a900460ff1681565b60035481565b6000806002600084815260200190815260200160002060030154905080915050919050565b6000806002600084815260200190815260200160002060010160009054906101000a900473ffffffffffffffffffffffffffffffffffffffff16905080915050919050565b611325816040516024016112a391906119d6565b6040516020818303038152906040527f41304fac000000000000000000000000000000000000000000000000000000007bffffffffffffffffffffffffffffffffffffffffffffffffffffffff19166020820180517bffffffffffffffffffffffffffffffffffffffffffffffffffffffff838183161783525050505061134c565b50565b600081600001549050919050565b6001816000016000828254019250508190555050565b60008151905060006a636f6e736f6c652e6c6f679050602083016000808483855afa5050505050565b60405180610100016040528060008152602001600073ffffffffffffffffffffffffffffffffffffffff168152602001600073ffffffffffffffffffffffffffffffffffffffff168152602001600081526020016060815260200160608152602001606081526020016000151581525090565b8280546113f490611d39565b90600052602060002090601f016020900481019282611416576000855561145d565b82601f1061142f57805160ff191683800117855561145d565b8280016001018555821561145d579182015b8281111561145c578251825591602001919060010190611441565b5b50905061146a919061146e565b5090565b5b8082111561148757600081600090555060010161146f565b5090565b600061149e61149984611b8b565b611b66565b9050828152602081018484840111156114b657600080fd5b6114c1848285611cf7565b509392505050565b600082601f8301126114da57600080fd5b81356114ea84826020860161148b565b91505092915050565b60008135905061150281611fbc565b92915050565b60006020828403121561151a57600080fd5b6000611528848285016114f3565b91505092915050565b6000806000806080858703121561154757600080fd5b6000611555878288016114f3565b945050602085013567ffffffffffffffff81111561157257600080fd5b61157e878288016114c9565b935050604085013567ffffffffffffffff81111561159b57600080fd5b6115a7878288016114c9565b925050606085013567ffffffffffffffff8111156115c457600080fd5b6115d0878288016114c9565b91505092959194509250565b60006115e88383611803565b905092915050565b6115f981611c8a565b82525050565b61160881611c8a565b82525050565b61161781611c78565b82525050565b600061162882611bcc565b6116328185611bef565b93508360208202850161164485611bbc565b8060005b85811015611680578484038952815161166185826115dc565b945061166c83611be2565b925060208a01995050600181019050611648565b50829750879550505050505092915050565b61169b81611c9c565b82525050565b6116aa81611c9c565b82525050565b6116b981611ce5565b82525050565b60006116ca82611bd7565b6116d48185611c00565b93506116e4818560208601611d06565b6116ed81611ea1565b840191505092915050565b600061170382611bd7565b61170d8185611c11565b935061171d818560208601611d06565b61172681611ea1565b840191505092915050565b600061173e601983611c11565b915061174982611eb2565b602082019050919050565b6000611761600e83611c11565b915061176c82611edb565b602082019050919050565b6000611784600d83611c11565b915061178f82611f04565b602082019050919050565b60006117a7601783611c11565b91506117b282611f2d565b602082019050919050565b60006117ca601c83611c11565b91506117d582611f56565b602082019050919050565b60006117ed601383611c11565b91506117f882611f7f565b602082019050919050565b60006101008301600083015161181c60008601826118c1565b50602083015161182f60208601826115f0565b50604083015161184260408601826115f0565b50606083015161185560608601826118c1565b506080830151848203608086015261186d82826116bf565b91505060a083015184820360a086015261188782826116bf565b91505060c083015184820360c08601526118a182826116bf565b91505060e08301516118b660e0860182611692565b508091505092915050565b6118ca81611cdb565b82525050565b6118d981611cdb565b82525050565b60006020820190506118f4600083018461160e565b92915050565b600060208201905061190f60008301846115ff565b92915050565b600060e08201905061192a600083018a61160e565b611937602083018961160e565b61194460408301886118d0565b818103606083015261195681876116f8565b9050818103608083015261196a81866116f8565b905081810360a083015261197e81856116f8565b905061198d60c08301846116a1565b98975050505050505050565b600060208201905081810360008301526119b3818461161d565b905092915050565b60006020820190506119d060008301846116b0565b92915050565b600060208201905081810360008301526119f081846116f8565b905092915050565b60006020820190508181036000830152611a1181611731565b9050919050565b60006020820190508181036000830152611a3181611754565b9050919050565b60006020820190508181036000830152611a5181611777565b9050919050565b60006020820190508181036000830152611a718161179a565b9050919050565b60006020820190508181036000830152611a91816117bd565b9050919050565b60006020820190508181036000830152611ab1816117e0565b9050919050565b6000602082019050611acd60008301846118d0565b92915050565b600061010082019050611ae9600083018b6118d0565b611af6602083018a6115ff565b611b0360408301896115ff565b611b1060608301886118d0565b8181036080830152611b2281876116f8565b905081810360a0830152611b3681866116f8565b905081810360c0830152611b4a81856116f8565b9050611b5960e08301846116a1565b9998505050505050505050565b6000611b70611b81565b9050611b7c8282611d6b565b919050565b6000604051905090565b600067ffffffffffffffff821115611ba657611ba5611e72565b5b611baf82611ea1565b9050602081019050919050565b6000819050602082019050919050565b600081519050919050565b600081519050919050565b6000602082019050919050565b600082825260208201905092915050565b600082825260208201905092915050565b600082825260208201905092915050565b6000611c2d82611cdb565b9150611c3883611cdb565b9250827fffffffffffffffffffffffffffffffffffffffffffffffffffffffffffffffff03821115611c6d57611c6c611de5565b5b828201905092915050565b6000611c8382611cbb565b9050919050565b6000611c9582611cbb565b9050919050565b60008115159050919050565b6000819050611cb682611fa8565b919050565b600073ffffffffffffffffffffffffffffffffffffffff82169050919050565b6000819050919050565b6000611cf082611ca8565b9050919050565b82818337600083830152505050565b60005b83811015611d24578082015181840152602081019050611d09565b83811115611d33576000848401525b50505050565b60006002820490506001821680611d5157607f821691505b60208210811415611d6557611d64611e43565b5b50919050565b611d7482611ea1565b810181811067ffffffffffffffff82111715611d9357611d92611e72565b5b80604052505050565b6000611da782611cdb565b91507fffffffffffffffffffffffffffffffffffffffffffffffffffffffffffffffff821415611dda57611dd9611de5565b5b600182019050919050565b7f4e487b7100000000000000000000000000000000000000000000000000000000600052601160045260246000fd5b7f4e487b7100000000000000000000000000000000000000000000000000000000600052602160045260246000fd5b7f4e487b7100000000000000000000000000000000000000000000000000000000600052602260045260246000fd5b7f4e487b7100000000000000000000000000000000000000000000000000000000600052604160045260246000fd5b6000601f19601f8301169050919050565b7f4f6e6c79206f776e65722063616e2063616c6c20746869732e00000000000000600082015250565b7f4e6f742072656e74656420796574000000000000000000000000000000000000600082015250565b7f4e6f7420746865206f776e657200000000000000000000000000000000000000600082015250565b7f41706172746d656e74206973206e6f742072656e746564000000000000000000600082015250565b7f5072696365206d757374206265206174206c6561737420312077656900000000600082015250565b7f41706172746d656e742069732072656e74656400000000000000000000000000600082015250565b60058110611fb957611fb8611e14565b5b50565b611fc581611cdb565b8114611fd057600080fd5b5056fea264697066735822122008f2c2b7d530cbba6b36bf7a0826da4dec3d13f59d9b44320aa702898021309c64736f6c63430008040033",
  "linkReferences": {},
  "deployedLinkReferences": {}
}