{
  "_format": "hh-sol-artifact-1",
  "contractName": "ApartmentCreator",
  "sourceName": "contracts/ApartmentRent.sol",
  "abi": [
    {
      "anonymous": false,
      "inputs": [
        {
          "indexed": true,
          "internalType": "uint256",
          "name": "apartmentsId",
          "type": "uint256"
        },
        {
          "indexed": false,
          "internalType": "address",
          "name": "ownerAp",
          "type": "address"
        },
        {
          "indexed": false,
          "internalType": "address",
          "name": "renter",
          "type": "address"
        },
        {
          "indexed": false,
          "internalType": "uint256",
          "name": "price",
          "type": "uint256"
        },
        {
          "indexed": false,
          "internalType": "bool",
          "name": "rented",
          "type": "bool"
        }
      ],
      "name": "ApartmentCreated",
      "type": "event"
    },
    {
      "inputs": [
        {
          "internalType": "uint256",
          "name": "_apartmentId",
          "type": "uint256"
        }
      ],
      "name": "apartmentOwner",
      "outputs": [
        {
          "internalType": "address",
          "name": "",
          "type": "address"
        }
      ],
      "stateMutability": "view",
      "type": "function"
    },
    {
      "inputs": [
        {
          "internalType": "uint256",
          "name": "_apartmentId",
          "type": "uint256"
        }
      ],
      "name": "apartmentPrice",
      "outputs": [
        {
          "internalType": "uint256",
          "name": "",
          "type": "uint256"
        }
      ],
      "stateMutability": "view",
      "type": "function"
    },
    {
      "inputs": [
        {
          "internalType": "uint256",
          "name": "_apartmentId",
          "type": "uint256"
        }
      ],
      "name": "apartmentRent",
      "outputs": [],
      "stateMutability": "payable",
      "type": "function"
    },
    {
      "inputs": [
        {
          "internalType": "uint256",
          "name": "_price",
          "type": "uint256"
        }
      ],
      "name": "createApartment",
      "outputs": [],
      "stateMutability": "payable",
      "type": "function"
    },
    {
      "inputs": [],
      "name": "fee",
      "outputs": [
        {
          "internalType": "uint256",
          "name": "",
          "type": "uint256"
        }
      ],
      "stateMutability": "view",
      "type": "function"
    },
    {
      "inputs": [
        {
          "internalType": "uint256",
          "name": "_apartmentId",
          "type": "uint256"
        }
      ],
      "name": "getApartmentOwner",
      "outputs": [
        {
          "internalType": "address",
          "name": "",
          "type": "address"
        }
      ],
      "stateMutability": "view",
      "type": "function"
    },
    {
      "inputs": [
        {
          "internalType": "uint256",
          "name": "_apartmentId",
          "type": "uint256"
        }
      ],
      "name": "getApartmentPrice",
      "outputs": [
        {
          "internalType": "uint256",
          "name": "",
          "type": "uint256"
        }
      ],
      "stateMutability": "view",
      "type": "function"
    },
    {
      "inputs": [
        {
          "internalType": "uint256",
          "name": "",
          "type": "uint256"
        }
      ],
      "name": "idToApartment",
      "outputs": [
        {
          "internalType": "uint256",
          "name": "apartmentsId",
          "type": "uint256"
        },
        {
          "internalType": "address payable",
          "name": "ownerAp",
          "type": "address"
        },
        {
          "internalType": "address payable",
          "name": "renter",
          "type": "address"
        },
        {
          "internalType": "uint256",
          "name": "price",
          "type": "uint256"
        },
        {
          "internalType": "bool",
          "name": "rented",
          "type": "bool"
        }
      ],
      "stateMutability": "view",
      "type": "function"
    },
    {
      "inputs": [
        {
          "internalType": "uint256",
          "name": "_apartmentId",
          "type": "uint256"
        }
      ],
      "name": "isRented",
      "outputs": [
        {
          "internalType": "uint256",
          "name": "",
          "type": "uint256"
        }
      ],
      "stateMutability": "view",
      "type": "function"
    },
    {
      "inputs": [],
      "name": "name",
      "outputs": [
        {
          "internalType": "string",
          "name": "",
          "type": "string"
        }
      ],
      "stateMutability": "view",
      "type": "function"
    },
    {
      "inputs": [],
      "name": "owner",
      "outputs": [
        {
          "internalType": "address payable",
          "name": "",
          "type": "address"
        }
      ],
      "stateMutability": "view",
      "type": "function"
    },
    {
      "inputs": [
        {
          "internalType": "uint256",
          "name": "_apartmentId",
          "type": "uint256"
        }
      ],
      "name": "ownerResetApartment",
      "outputs": [],
      "stateMutability": "payable",
      "type": "function"
    },
    {
      "inputs": [],
      "name": "renter",
      "outputs": [
        {
          "internalType": "address payable",
          "name": "",
          "type": "address"
        }
      ],
      "stateMutability": "view",
      "type": "function"
    },
    {
      "inputs": [],
      "name": "state",
      "outputs": [
        {
          "internalType": "enum ApartmentCreator.State",
          "name": "",
          "type": "uint8"
        }
      ],
      "stateMutability": "view",
      "type": "function"
    },
    {
      "inputs": [],
      "name": "symbol",
      "outputs": [
        {
          "internalType": "string",
          "name": "",
          "type": "string"
        }
      ],
      "stateMutability": "view",
      "type": "function"
    },
    {
      "inputs": [],
      "name": "to",
      "outputs": [
        {
          "internalType": "address",
          "name": "",
          "type": "address"
        }
      ],
      "stateMutability": "view",
      "type": "function"
    },
    {
      "inputs": [],
      "name": "totalSupply",
      "outputs": [
        {
          "internalType": "uint256",
          "name": "",
          "type": "uint256"
        }
      ],
      "stateMutability": "view",
      "type": "function"
    },
    {
      "inputs": [
        {
          "internalType": "uint256",
          "name": "_amount",
          "type": "uint256"
        },
        {
          "internalType": "address",
          "name": "_to",
          "type": "address"
        }
      ],
      "name": "transferTokenRent",
      "outputs": [],
      "stateMutability": "payable",
      "type": "function"
    },
    {
      "inputs": [
        {
          "internalType": "uint256",
          "name": "_amount",
          "type": "uint256"
        }
      ],
      "name": "transferfee",
      "outputs": [],
      "stateMutability": "payable",
      "type": "function"
    }
  ],
  "bytecode": "0x60806040526040518060400160405280600f81526020017f446563656e74426e6220546f6b656e00000000000000000000000000000000008152506000908051906020019062000051929190620002ae565b506040518060400160405280600381526020017f4443420000000000000000000000000000000000000000000000000000000000815250600190805190602001906200009f929190620002ae565b50620f4240600255738626f6940e2eb28930efb4cef49b2d1f2c9c1199600460006101000a81548173ffffffffffffffffffffffffffffffffffffffff021916908373ffffffffffffffffffffffffffffffffffffffff1602179055503480156200010957600080fd5b50600254600360003373ffffffffffffffffffffffffffffffffffffffff1673ffffffffffffffffffffffffffffffffffffffff168152602001908152602001600020819055506200019b6040518060400160405280601f81526020017f4372656174696e67206e65772061706172746d656e7420666163746f72793a00815250620001e260201b62000deb1760201c565b33600660006101000a81548173ffffffffffffffffffffffffffffffffffffffff021916908373ffffffffffffffffffffffffffffffffffffffff1602179055506200048b565b6200028281604051602401620001f991906200039f565b6040516020818303038152906040527f41304fac000000000000000000000000000000000000000000000000000000007bffffffffffffffffffffffffffffffffffffffffffffffffffffffff19166020820180517bffffffffffffffffffffffffffffffffffffffffffffffffffffffff83818316178352505050506200028560201b60201c565b50565b60008151905060006a636f6e736f6c652e6c6f679050602083016000808483855afa5050505050565b828054620002bc9062000415565b90600052602060002090601f016020900481019282620002e057600085556200032c565b82601f10620002fb57805160ff19168380011785556200032c565b828001600101855582156200032c579182015b828111156200032b5782518255916020019190600101906200030e565b5b5090506200033b91906200033f565b5090565b5b808211156200035a57600081600090555060010162000340565b5090565b60006200036b82620003c3565b620003778185620003ce565b935062000389818560208601620003df565b62000394816200047a565b840191505092915050565b60006020820190508181036000830152620003bb81846200035e565b905092915050565b600081519050919050565b600082825260208201905092915050565b60005b83811015620003ff578082015181840152602081019050620003e2565b838111156200040f576000848401525b50505050565b600060028204905060018216806200042e57607f821691505b602082108114156200044557620004446200044b565b5b50919050565b7f4e487b7100000000000000000000000000000000000000000000000000000000600052602260045260246000fd5b6000601f19601f8301169050919050565b6114ee806200049b6000396000f3fe6080604052600436106101145760003560e01c80638da5cb5b116100a0578063c19d93fb11610064578063c19d93fb14610383578063cefedb30146103ae578063ddca3f43146103ca578063ec52a592146103f5578063fe5ec9ba1461043257610114565b80638da5cb5b146102975780638ebc0b3c146102c257806395d89b41146102ff5780639f1070f41461032a578063aa15d40f1461034657610114565b80632e88ab0b116100e75780632e88ab0b146101db57806335a7d68f1461020657806340c8b20c1461022257806380f34c691461023e5780638d558cc11461025a57610114565b806306fdde0314610119578063131519811461014457806314f29e091461016f57806318160ddd146101b0575b600080fd5b34801561012557600080fd5b5061012e61046f565b60405161013b91906110e3565b60405180910390f35b34801561015057600080fd5b506101596104fd565b604051610166919061104d565b60405180910390f35b34801561017b57600080fd5b5061019660048036038101906101919190610efb565b610523565b6040516101a7959493929190611180565b60405180910390f35b3480156101bc57600080fd5b506101c56105a6565b6040516101d29190611165565b60405180910390f35b3480156101e757600080fd5b506101f06105ac565b6040516101fd9190611068565b60405180910390f35b610220600480360381019061021b9190610f24565b6105d2565b005b61023c60048036038101906102379190610efb565b610704565b005b61025860048036038101906102539190610efb565b6108d2565b005b34801561026657600080fd5b50610281600480360381019061027c9190610efb565b610a19565b60405161028e919061104d565b60405180910390f35b3480156102a357600080fd5b506102ac610a5e565b6040516102b99190611068565b60405180910390f35b3480156102ce57600080fd5b506102e960048036038101906102e49190610efb565b610a84565b6040516102f69190611165565b60405180910390f35b34801561030b57600080fd5b50610314610aa9565b60405161032191906110e3565b60405180910390f35b610344600480360381019061033f9190610efb565b610b37565b005b34801561035257600080fd5b5061036d60048036038101906103689190610efb565b610bd7565b60405161037a9190611165565b60405180910390f35b34801561038f57600080fd5b50610398610c15565b6040516103a591906110c8565b60405180910390f35b6103c860048036038101906103c39190610efb565b610c28565b005b3480156103d657600080fd5b506103df610d7b565b6040516103ec9190611165565b60405180910390f35b34801561040157600080fd5b5061041c60048036038101906104179190610efb565b610d81565b6040516104299190611165565b60405180910390f35b34801561043e57600080fd5b5061045960048036038101906104549190610efb565b610da6565b604051610466919061104d565b60405180910390f35b6000805461047c9061132b565b80601f01602080910402602001604051908101604052809291908181526020018280546104a89061132b565b80156104f55780601f106104ca576101008083540402835291602001916104f5565b820191906000526020600020905b8154815290600101906020018083116104d857829003601f168201915b505050505081565b600460009054906101000a900473ffffffffffffffffffffffffffffffffffffffff1681565b60076020528060005260406000206000915090508060000154908060010160009054906101000a900473ffffffffffffffffffffffffffffffffffffffff16908060020160009054906101000a900473ffffffffffffffffffffffffffffffffffffffff16908060030154908060040160009054906101000a900460ff16905085565b60025481565b600960009054906101000a900473ffffffffffffffffffffffffffffffffffffffff1681565b81600360003373ffffffffffffffffffffffffffffffffffffffff1673ffffffffffffffffffffffffffffffffffffffff168152602001908152602001600020541015610654576040517f08c379a000000000000000000000000000000000000000000000000000000000815260040161064b90611105565b60405180910390fd5b81600360003373ffffffffffffffffffffffffffffffffffffffff1673ffffffffffffffffffffffffffffffffffffffff16815260200190815260200160002060008282546106a39190611245565b9250508190555081600360008373ffffffffffffffffffffffffffffffffffffffff1673ffffffffffffffffffffffffffffffffffffffff16815260200190815260200160002060008282546106f991906111ef565b925050819055505050565b60008111610747576040517f08c379a000000000000000000000000000000000000000000000000000000000815260040161073e90611125565b60405180910390fd5b6107516005610e84565b600061075d6005610e9a565b90506040518060a001604052808281526020013373ffffffffffffffffffffffffffffffffffffffff168152602001600073ffffffffffffffffffffffffffffffffffffffff16815260200183815260200160001515815250600760008381526020019081526020016000206000820151816000015560208201518160010160006101000a81548173ffffffffffffffffffffffffffffffffffffffff021916908373ffffffffffffffffffffffffffffffffffffffff16021790555060408201518160020160006101000a81548173ffffffffffffffffffffffffffffffffffffffff021916908373ffffffffffffffffffffffffffffffffffffffff1602179055506060820151816003015560808201518160040160006101000a81548160ff021916908315150217905550905050807f2439c9df5317aa6c4c3639e0e0b3f2cdacd6daf5f5393cbf2142da87441a67f93360008560006040516108c69493929190611083565b60405180910390a25050565b600015156007600083815260200190815260200160002060040160009054906101000a900460ff1615151461093c576040517f08c379a000000000000000000000000000000000000000000000000000000000815260040161093390611145565b60405180910390fd5b336007600083815260200190815260200160002060020160006101000a81548173ffffffffffffffffffffffffffffffffffffffff021916908373ffffffffffffffffffffffffffffffffffffffff16021790555060016007600083815260200190815260200160002060040160006101000a81548160ff021916908315150217905550610a1660076000838152602001908152602001600020600301546007600084815260200190815260200160002060010160009054906101000a900473ffffffffffffffffffffffffffffffffffffffff166105d2565b50565b6000806007600084815260200190815260200160002060010160009054906101000a900473ffffffffffffffffffffffffffffffffffffffff16905080915050919050565b600660009054906101000a900473ffffffffffffffffffffffffffffffffffffffff1681565b6000806007600084815260200190815260200160002060030154905080915050919050565b60018054610ab69061132b565b80601f0160208091040260200160405190810160405280929190818152602001828054610ae29061132b565b8015610b2f5780601f10610b0457610100808354040283529160200191610b2f565b820191906000526020600020905b815481529060010190602001808311610b1257829003601f168201915b505050505081565b3373ffffffffffffffffffffffffffffffffffffffff166007600083815260200190815260200160002060010160009054906101000a900473ffffffffffffffffffffffffffffffffffffffff1673ffffffffffffffffffffffffffffffffffffffff1614610ba557600080fd5b60006007600083815260200190815260200160002060040160006101000a81548160ff02191690831515021790555050565b60006007600083815260200190815260200160002060040160009054906101000a900460ff1615610c0b5760019050610c10565b600090505b919050565b600960149054906101000a900460ff1681565b80600360003373ffffffffffffffffffffffffffffffffffffffff1673ffffffffffffffffffffffffffffffffffffffff168152602001908152602001600020541015610caa576040517f08c379a0000000000000000000000000000000000000000000000000000000008152600401610ca190611105565b60405180910390fd5b80600360003373ffffffffffffffffffffffffffffffffffffffff1673ffffffffffffffffffffffffffffffffffffffff1681526020019081526020016000206000828254610cf99190611245565b925050819055508060036000600460009054906101000a900473ffffffffffffffffffffffffffffffffffffffff1673ffffffffffffffffffffffffffffffffffffffff1673ffffffffffffffffffffffffffffffffffffffff1681526020019081526020016000206000828254610d7191906111ef565b9250508190555050565b60085481565b6000806007600084815260200190815260200160002060030154905080915050919050565b6000806007600084815260200190815260200160002060010160009054906101000a900473ffffffffffffffffffffffffffffffffffffffff16905080915050919050565b610e8181604051602401610dff91906110e3565b6040516020818303038152906040527f41304fac000000000000000000000000000000000000000000000000000000007bffffffffffffffffffffffffffffffffffffffffffffffffffffffff19166020820180517bffffffffffffffffffffffffffffffffffffffffffffffffffffffff8381831617835250505050610ea8565b50565b6001816000016000828254019250508190555050565b600081600001549050919050565b60008151905060006a636f6e736f6c652e6c6f679050602083016000808483855afa5050505050565b600081359050610ee08161148a565b92915050565b600081359050610ef5816114a1565b92915050565b600060208284031215610f0d57600080fd5b6000610f1b84828501610ee6565b91505092915050565b60008060408385031215610f3757600080fd5b6000610f4585828601610ee6565b9250506020610f5685828601610ed1565b9150509250929050565b610f698161128b565b82525050565b610f7881611279565b82525050565b610f878161129d565b82525050565b610f96816112e6565b82525050565b6000610fa7826111d3565b610fb181856111de565b9350610fc18185602086016112f8565b610fca816113ea565b840191505092915050565b6000610fe26011836111de565b9150610fed826113fb565b602082019050919050565b6000611005601c836111de565b915061101082611424565b602082019050919050565b60006110286013836111de565b91506110338261144d565b602082019050919050565b611047816112dc565b82525050565b60006020820190506110626000830184610f6f565b92915050565b600060208201905061107d6000830184610f60565b92915050565b60006080820190506110986000830187610f6f565b6110a56020830186610f6f565b6110b2604083018561103e565b6110bf6060830184610f7e565b95945050505050565b60006020820190506110dd6000830184610f8d565b92915050565b600060208201905081810360008301526110fd8184610f9c565b905092915050565b6000602082019050818103600083015261111e81610fd5565b9050919050565b6000602082019050818103600083015261113e81610ff8565b9050919050565b6000602082019050818103600083015261115e8161101b565b9050919050565b600060208201905061117a600083018461103e565b92915050565b600060a082019050611195600083018861103e565b6111a26020830187610f60565b6111af6040830186610f60565b6111bc606083018561103e565b6111c96080830184610f7e565b9695505050505050565b600081519050919050565b600082825260208201905092915050565b60006111fa826112dc565b9150611205836112dc565b9250827fffffffffffffffffffffffffffffffffffffffffffffffffffffffffffffffff0382111561123a5761123961135d565b5b828201905092915050565b6000611250826112dc565b915061125b836112dc565b92508282101561126e5761126d61135d565b5b828203905092915050565b6000611284826112bc565b9050919050565b6000611296826112bc565b9050919050565b60008115159050919050565b60008190506112b782611476565b919050565b600073ffffffffffffffffffffffffffffffffffffffff82169050919050565b6000819050919050565b60006112f1826112a9565b9050919050565b60005b838110156113165780820151818401526020810190506112fb565b83811115611325576000848401525b50505050565b6000600282049050600182168061134357607f821691505b60208210811415611357576113566113bb565b5b50919050565b7f4e487b7100000000000000000000000000000000000000000000000000000000600052601160045260246000fd5b7f4e487b7100000000000000000000000000000000000000000000000000000000600052602160045260246000fd5b7f4e487b7100000000000000000000000000000000000000000000000000000000600052602260045260246000fd5b6000601f19601f8301169050919050565b7f4e6f7420656e6f75676820746f6b656e73000000000000000000000000000000600082015250565b7f5072696365206d757374206265206174206c6561737420312077656900000000600082015250565b7f41706172746d656e742069732072656e74656400000000000000000000000000600082015250565b600581106114875761148661138c565b5b50565b61149381611279565b811461149e57600080fd5b50565b6114aa816112dc565b81146114b557600080fd5b5056fea2646970667358221220734724a58ac08361f5f925f13fd7efbc1feaa404533599b4ed2c5d42a27794e564736f6c63430008040033",
  "linkReferences": {},
  "deployedLinkReferences": {}
}