{
  "_format": "hh-sol-artifact-1",
  "contractName": "ApartmentCreator",
  "sourceName": "contracts/ApartmentRent.sol",
  "abi": [
    {
      "anonymous": false,
      "inputs": [
        {
          "indexed": true,
          "internalType": "uint256",
          "name": "apartmentsId",
          "type": "uint256"
        },
        {
          "indexed": false,
          "internalType": "address",
          "name": "ownerAp",
          "type": "address"
        },
        {
          "indexed": false,
          "internalType": "address",
          "name": "renter",
          "type": "address"
        },
        {
          "indexed": false,
          "internalType": "uint256",
          "name": "price",
          "type": "uint256"
        },
        {
          "indexed": false,
          "internalType": "bool",
          "name": "rented",
          "type": "bool"
        }
      ],
      "name": "ApartmentCreated",
      "type": "event"
    },
    {
      "inputs": [
        {
          "internalType": "uint256",
          "name": "_apartmentId",
          "type": "uint256"
        }
      ],
      "name": "apartmentOwner",
      "outputs": [
        {
          "internalType": "address",
          "name": "",
          "type": "address"
        }
      ],
      "stateMutability": "view",
      "type": "function"
    },
    {
      "inputs": [
        {
          "internalType": "uint256",
          "name": "_apartmentId",
          "type": "uint256"
        }
      ],
      "name": "apartmentPrice",
      "outputs": [
        {
          "internalType": "uint256",
          "name": "",
          "type": "uint256"
        }
      ],
      "stateMutability": "view",
      "type": "function"
    },
    {
      "inputs": [
        {
          "internalType": "uint256",
          "name": "_apartmentId",
          "type": "uint256"
        }
      ],
      "name": "apartmentRent",
      "outputs": [],
      "stateMutability": "payable",
      "type": "function"
    },
    {
      "inputs": [
        {
          "internalType": "uint256",
          "name": "_price",
          "type": "uint256"
        }
      ],
      "name": "createApartment",
      "outputs": [],
      "stateMutability": "payable",
      "type": "function"
    },
    {
      "inputs": [],
      "name": "fee",
      "outputs": [
        {
          "internalType": "uint256",
          "name": "",
          "type": "uint256"
        }
      ],
      "stateMutability": "view",
      "type": "function"
    },
    {
      "inputs": [
        {
          "internalType": "uint256",
          "name": "_apartmentId",
          "type": "uint256"
        }
      ],
      "name": "getApartmentOwner",
      "outputs": [
        {
          "internalType": "address",
          "name": "",
          "type": "address"
        }
      ],
      "stateMutability": "view",
      "type": "function"
    },
    {
      "inputs": [
        {
          "internalType": "uint256",
          "name": "_apartmentId",
          "type": "uint256"
        }
      ],
      "name": "getApartmentPrice",
      "outputs": [
        {
          "internalType": "uint256",
          "name": "",
          "type": "uint256"
        }
      ],
      "stateMutability": "view",
      "type": "function"
    },
    {
      "inputs": [
        {
          "internalType": "uint256",
          "name": "",
          "type": "uint256"
        }
      ],
      "name": "idToApartment",
      "outputs": [
        {
          "internalType": "uint256",
          "name": "apartmentsId",
          "type": "uint256"
        },
        {
          "internalType": "address payable",
          "name": "ownerAp",
          "type": "address"
        },
        {
          "internalType": "address payable",
          "name": "renter",
          "type": "address"
        },
        {
          "internalType": "uint256",
          "name": "price",
          "type": "uint256"
        },
        {
          "internalType": "bool",
          "name": "rented",
          "type": "bool"
        }
      ],
      "stateMutability": "view",
      "type": "function"
    },
    {
      "inputs": [
        {
          "internalType": "uint256",
          "name": "_apartmentId",
          "type": "uint256"
        }
      ],
      "name": "isRented",
      "outputs": [
        {
          "internalType": "uint256",
          "name": "",
          "type": "uint256"
        }
      ],
      "stateMutability": "view",
      "type": "function"
    },
    {
      "inputs": [],
      "name": "name",
      "outputs": [
        {
          "internalType": "string",
          "name": "",
          "type": "string"
        }
      ],
      "stateMutability": "view",
      "type": "function"
    },
    {
      "inputs": [],
      "name": "owner",
      "outputs": [
        {
          "internalType": "address payable",
          "name": "",
          "type": "address"
        }
      ],
      "stateMutability": "view",
      "type": "function"
    },
    {
      "inputs": [
        {
          "internalType": "uint256",
          "name": "_apartmentId",
          "type": "uint256"
        }
      ],
      "name": "ownerResetApartment",
      "outputs": [],
      "stateMutability": "nonpayable",
      "type": "function"
    },
    {
      "inputs": [],
      "name": "renter",
      "outputs": [
        {
          "internalType": "address payable",
          "name": "",
          "type": "address"
        }
      ],
      "stateMutability": "view",
      "type": "function"
    },
    {
      "inputs": [],
      "name": "state",
      "outputs": [
        {
          "internalType": "enum ApartmentCreator.State",
          "name": "",
          "type": "uint8"
        }
      ],
      "stateMutability": "view",
      "type": "function"
    },
    {
      "inputs": [],
      "name": "symbol",
      "outputs": [
        {
          "internalType": "string",
          "name": "",
          "type": "string"
        }
      ],
      "stateMutability": "view",
      "type": "function"
    },
    {
      "inputs": [],
      "name": "to",
      "outputs": [
        {
          "internalType": "address",
          "name": "",
          "type": "address"
        }
      ],
      "stateMutability": "view",
      "type": "function"
    },
    {
      "inputs": [],
      "name": "totalSupply",
      "outputs": [
        {
          "internalType": "uint256",
          "name": "",
          "type": "uint256"
        }
      ],
      "stateMutability": "view",
      "type": "function"
    },
    {
      "inputs": [
        {
          "internalType": "uint256",
          "name": "_amount",
          "type": "uint256"
        },
        {
          "internalType": "address",
          "name": "_to",
          "type": "address"
        }
      ],
      "name": "transferTokenRent",
      "outputs": [],
      "stateMutability": "payable",
      "type": "function"
    },
    {
      "inputs": [
        {
          "internalType": "uint256",
          "name": "_amount",
          "type": "uint256"
        }
      ],
      "name": "transferfee",
      "outputs": [],
      "stateMutability": "payable",
      "type": "function"
    }
  ],
  "bytecode": "0x60806040526040518060400160405280600f81526020017f446563656e74426e6220546f6b656e00000000000000000000000000000000008152506000908051906020019062000051929190620002ae565b506040518060400160405280600381526020017f4443420000000000000000000000000000000000000000000000000000000000815250600190805190602001906200009f929190620002ae565b50620f4240600255738626f6940e2eb28930efb4cef49b2d1f2c9c1199600460006101000a81548173ffffffffffffffffffffffffffffffffffffffff021916908373ffffffffffffffffffffffffffffffffffffffff1602179055503480156200010957600080fd5b50600254600360003373ffffffffffffffffffffffffffffffffffffffff1673ffffffffffffffffffffffffffffffffffffffff168152602001908152602001600020819055506200019b6040518060400160405280601f81526020017f4372656174696e67206e65772061706172746d656e7420666163746f72793a00815250620001e260201b62000e2e1760201c565b33600660006101000a81548173ffffffffffffffffffffffffffffffffffffffff021916908373ffffffffffffffffffffffffffffffffffffffff1602179055506200048b565b6200028281604051602401620001f991906200039f565b6040516020818303038152906040527f41304fac000000000000000000000000000000000000000000000000000000007bffffffffffffffffffffffffffffffffffffffffffffffffffffffff19166020820180517bffffffffffffffffffffffffffffffffffffffffffffffffffffffff83818316178352505050506200028560201b60201c565b50565b60008151905060006a636f6e736f6c652e6c6f679050602083016000808483855afa5050505050565b828054620002bc9062000415565b90600052602060002090601f016020900481019282620002e057600085556200032c565b82601f10620002fb57805160ff19168380011785556200032c565b828001600101855582156200032c579182015b828111156200032b5782518255916020019190600101906200030e565b5b5090506200033b91906200033f565b5090565b5b808211156200035a57600081600090555060010162000340565b5090565b60006200036b82620003c3565b620003778185620003ce565b935062000389818560208601620003df565b62000394816200047a565b840191505092915050565b60006020820190508181036000830152620003bb81846200035e565b905092915050565b600081519050919050565b600082825260208201905092915050565b60005b83811015620003ff578082015181840152602081019050620003e2565b838111156200040f576000848401525b50505050565b600060028204905060018216806200042e57607f821691505b602082108114156200044557620004446200044b565b5b50919050565b7f4e487b7100000000000000000000000000000000000000000000000000000000600052602260045260246000fd5b6000601f19601f8301169050919050565b61159d806200049b6000396000f3fe6080604052600436106101145760003560e01c80638da5cb5b116100a0578063c19d93fb11610064578063c19d93fb14610390578063cefedb30146103bb578063ddca3f43146103d7578063ec52a59214610402578063fe5ec9ba1461043f57610114565b80638da5cb5b146102975780638ebc0b3c146102c257806395d89b41146102ff5780639f1070f41461032a578063aa15d40f1461035357610114565b80632e88ab0b116100e75780632e88ab0b146101db57806335a7d68f1461020657806340c8b20c1461022257806380f34c691461023e5780638d558cc11461025a57610114565b806306fdde0314610119578063131519811461014457806314f29e091461016f57806318160ddd146101b0575b600080fd5b34801561012557600080fd5b5061012e61047c565b60405161013b9190611149565b60405180910390f35b34801561015057600080fd5b5061015961050a565b60405161016691906110b3565b60405180910390f35b34801561017b57600080fd5b5061019660048036038101906101919190610f3e565b610530565b6040516101a7959493929190611206565b60405180910390f35b3480156101bc57600080fd5b506101c56105b3565b6040516101d291906111eb565b60405180910390f35b3480156101e757600080fd5b506101f06105b9565b6040516101fd91906110ce565b60405180910390f35b610220600480360381019061021b9190610f67565b6105df565b005b61023c60048036038101906102379190610f3e565b610711565b005b61025860048036038101906102539190610f3e565b6108df565b005b34801561026657600080fd5b50610281600480360381019061027c9190610f3e565b610a26565b60405161028e91906110b3565b60405180910390f35b3480156102a357600080fd5b506102ac610a6b565b6040516102b991906110ce565b60405180910390f35b3480156102ce57600080fd5b506102e960048036038101906102e49190610f3e565b610a91565b6040516102f691906111eb565b60405180910390f35b34801561030b57600080fd5b50610314610ab6565b6040516103219190611149565b60405180910390f35b34801561033657600080fd5b50610351600480360381019061034c9190610f3e565b610b44565b005b34801561035f57600080fd5b5061037a60048036038101906103759190610f3e565b610c1a565b60405161038791906111eb565b60405180910390f35b34801561039c57600080fd5b506103a5610c58565b6040516103b2919061112e565b60405180910390f35b6103d560048036038101906103d09190610f3e565b610c6b565b005b3480156103e357600080fd5b506103ec610dbe565b6040516103f991906111eb565b60405180910390f35b34801561040e57600080fd5b5061042960048036038101906104249190610f3e565b610dc4565b60405161043691906111eb565b60405180910390f35b34801561044b57600080fd5b5061046660048036038101906104619190610f3e565b610de9565b60405161047391906110b3565b60405180910390f35b60008054610489906113b1565b80601f01602080910402602001604051908101604052809291908181526020018280546104b5906113b1565b80156105025780601f106104d757610100808354040283529160200191610502565b820191906000526020600020905b8154815290600101906020018083116104e557829003601f168201915b505050505081565b600460009054906101000a900473ffffffffffffffffffffffffffffffffffffffff1681565b60076020528060005260406000206000915090508060000154908060010160009054906101000a900473ffffffffffffffffffffffffffffffffffffffff16908060020160009054906101000a900473ffffffffffffffffffffffffffffffffffffffff16908060030154908060040160009054906101000a900460ff16905085565b60025481565b600960009054906101000a900473ffffffffffffffffffffffffffffffffffffffff1681565b81600360003373ffffffffffffffffffffffffffffffffffffffff1673ffffffffffffffffffffffffffffffffffffffff168152602001908152602001600020541015610661576040517f08c379a00000000000000000000000000000000000000000000000000000000081526004016106589061118b565b60405180910390fd5b81600360003373ffffffffffffffffffffffffffffffffffffffff1673ffffffffffffffffffffffffffffffffffffffff16815260200190815260200160002060008282546106b091906112cb565b9250508190555081600360008373ffffffffffffffffffffffffffffffffffffffff1673ffffffffffffffffffffffffffffffffffffffff16815260200190815260200160002060008282546107069190611275565b925050819055505050565b60008111610754576040517f08c379a000000000000000000000000000000000000000000000000000000000815260040161074b906111ab565b60405180910390fd5b61075e6005610ec7565b600061076a6005610edd565b90506040518060a001604052808281526020013373ffffffffffffffffffffffffffffffffffffffff168152602001600073ffffffffffffffffffffffffffffffffffffffff16815260200183815260200160001515815250600760008381526020019081526020016000206000820151816000015560208201518160010160006101000a81548173ffffffffffffffffffffffffffffffffffffffff021916908373ffffffffffffffffffffffffffffffffffffffff16021790555060408201518160020160006101000a81548173ffffffffffffffffffffffffffffffffffffffff021916908373ffffffffffffffffffffffffffffffffffffffff1602179055506060820151816003015560808201518160040160006101000a81548160ff021916908315150217905550905050807f2439c9df5317aa6c4c3639e0e0b3f2cdacd6daf5f5393cbf2142da87441a67f93360008560006040516108d394939291906110e9565b60405180910390a25050565b600015156007600083815260200190815260200160002060040160009054906101000a900460ff16151514610949576040517f08c379a0000000000000000000000000000000000000000000000000000000008152600401610940906111cb565b60405180910390fd5b336007600083815260200190815260200160002060020160006101000a81548173ffffffffffffffffffffffffffffffffffffffff021916908373ffffffffffffffffffffffffffffffffffffffff16021790555060016007600083815260200190815260200160002060040160006101000a81548160ff021916908315150217905550610a2360076000838152602001908152602001600020600301546007600084815260200190815260200160002060010160009054906101000a900473ffffffffffffffffffffffffffffffffffffffff166105df565b50565b6000806007600084815260200190815260200160002060010160009054906101000a900473ffffffffffffffffffffffffffffffffffffffff16905080915050919050565b600660009054906101000a900473ffffffffffffffffffffffffffffffffffffffff1681565b6000806007600084815260200190815260200160002060030154905080915050919050565b60018054610ac3906113b1565b80601f0160208091040260200160405190810160405280929190818152602001828054610aef906113b1565b8015610b3c5780601f10610b1157610100808354040283529160200191610b3c565b820191906000526020600020905b815481529060010190602001808311610b1f57829003601f168201915b505050505081565b3373ffffffffffffffffffffffffffffffffffffffff166007600083815260200190815260200160002060010160009054906101000a900473ffffffffffffffffffffffffffffffffffffffff1673ffffffffffffffffffffffffffffffffffffffff1614610be8576040517f08c379a0000000000000000000000000000000000000000000000000000000008152600401610bdf9061116b565b60405180910390fd5b60006007600083815260200190815260200160002060040160006101000a81548160ff02191690831515021790555050565b60006007600083815260200190815260200160002060040160009054906101000a900460ff1615610c4e5760019050610c53565b600090505b919050565b600960149054906101000a900460ff1681565b80600360003373ffffffffffffffffffffffffffffffffffffffff1673ffffffffffffffffffffffffffffffffffffffff168152602001908152602001600020541015610ced576040517f08c379a0000000000000000000000000000000000000000000000000000000008152600401610ce49061118b565b60405180910390fd5b80600360003373ffffffffffffffffffffffffffffffffffffffff1673ffffffffffffffffffffffffffffffffffffffff1681526020019081526020016000206000828254610d3c91906112cb565b925050819055508060036000600460009054906101000a900473ffffffffffffffffffffffffffffffffffffffff1673ffffffffffffffffffffffffffffffffffffffff1673ffffffffffffffffffffffffffffffffffffffff1681526020019081526020016000206000828254610db49190611275565b9250508190555050565b60085481565b6000806007600084815260200190815260200160002060030154905080915050919050565b6000806007600084815260200190815260200160002060010160009054906101000a900473ffffffffffffffffffffffffffffffffffffffff16905080915050919050565b610ec481604051602401610e429190611149565b6040516020818303038152906040527f41304fac000000000000000000000000000000000000000000000000000000007bffffffffffffffffffffffffffffffffffffffffffffffffffffffff19166020820180517bffffffffffffffffffffffffffffffffffffffffffffffffffffffff8381831617835250505050610eeb565b50565b6001816000016000828254019250508190555050565b600081600001549050919050565b60008151905060006a636f6e736f6c652e6c6f679050602083016000808483855afa5050505050565b600081359050610f2381611539565b92915050565b600081359050610f3881611550565b92915050565b600060208284031215610f5057600080fd5b6000610f5e84828501610f29565b91505092915050565b60008060408385031215610f7a57600080fd5b6000610f8885828601610f29565b9250506020610f9985828601610f14565b9150509250929050565b610fac81611311565b82525050565b610fbb816112ff565b82525050565b610fca81611323565b82525050565b610fd98161136c565b82525050565b6000610fea82611259565b610ff48185611264565b935061100481856020860161137e565b61100d81611470565b840191505092915050565b6000611025600983611264565b915061103082611481565b602082019050919050565b6000611048601183611264565b9150611053826114aa565b602082019050919050565b600061106b601c83611264565b9150611076826114d3565b602082019050919050565b600061108e601383611264565b9150611099826114fc565b602082019050919050565b6110ad81611362565b82525050565b60006020820190506110c86000830184610fb2565b92915050565b60006020820190506110e36000830184610fa3565b92915050565b60006080820190506110fe6000830187610fb2565b61110b6020830186610fb2565b61111860408301856110a4565b6111256060830184610fc1565b95945050505050565b60006020820190506111436000830184610fd0565b92915050565b600060208201905081810360008301526111638184610fdf565b905092915050565b6000602082019050818103600083015261118481611018565b9050919050565b600060208201905081810360008301526111a48161103b565b9050919050565b600060208201905081810360008301526111c48161105e565b9050919050565b600060208201905081810360008301526111e481611081565b9050919050565b600060208201905061120060008301846110a4565b92915050565b600060a08201905061121b60008301886110a4565b6112286020830187610fa3565b6112356040830186610fa3565b61124260608301856110a4565b61124f6080830184610fc1565b9695505050505050565b600081519050919050565b600082825260208201905092915050565b600061128082611362565b915061128b83611362565b9250827fffffffffffffffffffffffffffffffffffffffffffffffffffffffffffffffff038211156112c0576112bf6113e3565b5b828201905092915050565b60006112d682611362565b91506112e183611362565b9250828210156112f4576112f36113e3565b5b828203905092915050565b600061130a82611342565b9050919050565b600061131c82611342565b9050919050565b60008115159050919050565b600081905061133d82611525565b919050565b600073ffffffffffffffffffffffffffffffffffffffff82169050919050565b6000819050919050565b60006113778261132f565b9050919050565b60005b8381101561139c578082015181840152602081019050611381565b838111156113ab576000848401525b50505050565b600060028204905060018216806113c957607f821691505b602082108114156113dd576113dc611441565b5b50919050565b7f4e487b7100000000000000000000000000000000000000000000000000000000600052601160045260246000fd5b7f4e487b7100000000000000000000000000000000000000000000000000000000600052602160045260246000fd5b7f4e487b7100000000000000000000000000000000000000000000000000000000600052602260045260246000fd5b6000601f19601f8301169050919050565b7f4e6f74206f776e65720000000000000000000000000000000000000000000000600082015250565b7f4e6f7420656e6f75676820746f6b656e73000000000000000000000000000000600082015250565b7f5072696365206d757374206265206174206c6561737420312077656900000000600082015250565b7f41706172746d656e742069732072656e74656400000000000000000000000000600082015250565b6005811061153657611535611412565b5b50565b611542816112ff565b811461154d57600080fd5b50565b61155981611362565b811461156457600080fd5b5056fea2646970667358221220c33fffa9e23f67f90d15f16922e3382a10b0e2e766c965e71f470d9bf9cddd7864736f6c63430008040033",
  "linkReferences": {},
  "deployedLinkReferences": {}
}