{
  "_format": "hh-sol-artifact-1",
  "contractName": "CreateApartment",
  "sourceName": "contracts/CreateApartment.sol",
  "abi": [
    {
      "inputs": [],
      "stateMutability": "nonpayable",
      "type": "constructor"
    },
    {
      "anonymous": false,
      "inputs": [
        {
          "indexed": true,
          "internalType": "uint256",
          "name": "apartmentsId",
          "type": "uint256"
        },
        {
          "indexed": false,
          "internalType": "address",
          "name": "ownerAp",
          "type": "address"
        },
        {
          "indexed": false,
          "internalType": "address",
          "name": "renterAp",
          "type": "address"
        },
        {
          "indexed": false,
          "internalType": "uint256",
          "name": "price",
          "type": "uint256"
        },
        {
          "indexed": false,
          "internalType": "string",
          "name": "imageLink",
          "type": "string"
        },
        {
          "indexed": false,
          "internalType": "string",
          "name": "adressAp",
          "type": "string"
        },
        {
          "indexed": false,
          "internalType": "string",
          "name": "details",
          "type": "string"
        },
        {
          "indexed": false,
          "internalType": "bool",
          "name": "rented",
          "type": "bool"
        }
      ],
      "name": "ApartmentCreated",
      "type": "event"
    },
    {
      "inputs": [
        {
          "internalType": "uint256",
          "name": "_apartmentId",
          "type": "uint256"
        }
      ],
      "name": "apartmentAdress",
      "outputs": [
        {
          "internalType": "string",
          "name": "",
          "type": "string"
        }
      ],
      "stateMutability": "view",
      "type": "function"
    },
    {
      "inputs": [
        {
          "internalType": "uint256",
          "name": "_apartmentId",
          "type": "uint256"
        }
      ],
      "name": "apartmentImageLink",
      "outputs": [
        {
          "internalType": "string",
          "name": "",
          "type": "string"
        }
      ],
      "stateMutability": "view",
      "type": "function"
    },
    {
      "inputs": [
        {
          "internalType": "uint256",
          "name": "_apartmentId",
          "type": "uint256"
        }
      ],
      "name": "apartmentRent",
      "outputs": [],
      "stateMutability": "payable",
      "type": "function"
    },
    {
      "inputs": [
        {
          "internalType": "uint256",
          "name": "_price",
          "type": "uint256"
        },
        {
          "internalType": "string",
          "name": "_imageLink",
          "type": "string"
        },
        {
          "internalType": "string",
          "name": "_addressAp",
          "type": "string"
        },
        {
          "internalType": "string",
          "name": "_details",
          "type": "string"
        }
      ],
      "name": "createApartment",
      "outputs": [],
      "stateMutability": "payable",
      "type": "function"
    },
    {
      "inputs": [],
      "name": "fetchApartmentsCreated",
      "outputs": [
        {
          "components": [
            {
              "internalType": "uint256",
              "name": "apartmentsId",
              "type": "uint256"
            },
            {
              "internalType": "address payable",
              "name": "ownerAp",
              "type": "address"
            },
            {
              "internalType": "address payable",
              "name": "renterAp",
              "type": "address"
            },
            {
              "internalType": "uint256",
              "name": "price",
              "type": "uint256"
            },
            {
              "internalType": "string",
              "name": "imageLink",
              "type": "string"
            },
            {
              "internalType": "string",
              "name": "adressAp",
              "type": "string"
            },
            {
              "internalType": "string",
              "name": "details",
              "type": "string"
            },
            {
              "internalType": "bool",
              "name": "rented",
              "type": "bool"
            }
          ],
          "internalType": "struct CreateApartment.Apartment[]",
          "name": "",
          "type": "tuple[]"
        }
      ],
      "stateMutability": "view",
      "type": "function"
    },
    {
      "inputs": [
        {
          "internalType": "uint256",
          "name": "_apartmentId",
          "type": "uint256"
        }
      ],
      "name": "getApartmentOwner",
      "outputs": [
        {
          "internalType": "address",
          "name": "",
          "type": "address"
        }
      ],
      "stateMutability": "view",
      "type": "function"
    },
    {
      "inputs": [
        {
          "internalType": "uint256",
          "name": "_apartmentId",
          "type": "uint256"
        }
      ],
      "name": "getApartmentPrice",
      "outputs": [
        {
          "internalType": "uint256",
          "name": "",
          "type": "uint256"
        }
      ],
      "stateMutability": "view",
      "type": "function"
    },
    {
      "inputs": [
        {
          "internalType": "uint256",
          "name": "_apartmentId",
          "type": "uint256"
        }
      ],
      "name": "getApartmentRenter",
      "outputs": [
        {
          "internalType": "address",
          "name": "",
          "type": "address"
        }
      ],
      "stateMutability": "view",
      "type": "function"
    },
    {
      "inputs": [
        {
          "internalType": "uint256",
          "name": "",
          "type": "uint256"
        }
      ],
      "name": "idToApartment",
      "outputs": [
        {
          "internalType": "uint256",
          "name": "apartmentsId",
          "type": "uint256"
        },
        {
          "internalType": "address payable",
          "name": "ownerAp",
          "type": "address"
        },
        {
          "internalType": "address payable",
          "name": "renterAp",
          "type": "address"
        },
        {
          "internalType": "uint256",
          "name": "price",
          "type": "uint256"
        },
        {
          "internalType": "string",
          "name": "imageLink",
          "type": "string"
        },
        {
          "internalType": "string",
          "name": "adressAp",
          "type": "string"
        },
        {
          "internalType": "string",
          "name": "details",
          "type": "string"
        },
        {
          "internalType": "bool",
          "name": "rented",
          "type": "bool"
        }
      ],
      "stateMutability": "view",
      "type": "function"
    },
    {
      "inputs": [
        {
          "internalType": "uint256",
          "name": "_apartmentId",
          "type": "uint256"
        }
      ],
      "name": "isRented",
      "outputs": [
        {
          "internalType": "uint256",
          "name": "",
          "type": "uint256"
        }
      ],
      "stateMutability": "view",
      "type": "function"
    },
    {
      "inputs": [],
      "name": "owner",
      "outputs": [
        {
          "internalType": "address payable",
          "name": "",
          "type": "address"
        }
      ],
      "stateMutability": "view",
      "type": "function"
    },
    {
      "inputs": [
        {
          "internalType": "uint256",
          "name": "_apartmentId",
          "type": "uint256"
        }
      ],
      "name": "ownerResetApartment",
      "outputs": [],
      "stateMutability": "nonpayable",
      "type": "function"
    }
  ],
  "bytecode": "0x60806040523480156200001157600080fd5b506200005d6040518060400160405280601f81526020017f4372656174696e67206e65772061706172746d656e7420666163746f72793a00815250620000a460201b620010601760201c565b33600160006101000a81548173ffffffffffffffffffffffffffffffffffffffff021916908373ffffffffffffffffffffffffffffffffffffffff16021790555062000238565b6200014481604051602401620000bb9190620001b1565b6040516020818303038152906040527f41304fac000000000000000000000000000000000000000000000000000000007bffffffffffffffffffffffffffffffffffffffffffffffffffffffff19166020820180517bffffffffffffffffffffffffffffffffffffffffffffffffffffffff83818316178352505050506200014760201b60201c565b50565b60008151905060006a636f6e736f6c652e6c6f679050602083016000808483855afa5050505050565b60006200017d82620001d5565b620001898185620001e0565b93506200019b818560208601620001f1565b620001a68162000227565b840191505092915050565b60006020820190508181036000830152620001cd818462000170565b905092915050565b600081519050919050565b600082825260208201905092915050565b60005b8381101562000211578082015181840152602081019050620001f4565b8381111562000221576000848401525b50505050565b6000601f19601f8301169050919050565b611cdc80620002486000396000f3fe6080604052600436106100a75760003560e01c806380f34c691161006457806380f34c69146101ee5780638d558cc11461020a5780638da5cb5b146102475780638ebc0b3c146102725780639f1070f4146102af578063aa15d40f146102d8576100a7565b80630d874e87146100ac57806314f29e09146100e957806327385b0f1461012d5780632b24fa4b1461015857806367b2be1f146101955780637a115660146101d2575b600080fd5b3480156100b857600080fd5b506100d360048036038101906100ce91906112d9565b610315565b6040516100e0919061175a565b60405180910390f35b3480156100f557600080fd5b50610110600480360381019061010b91906112d9565b6103c3565b604051610124989796959493929190611837565b60405180910390f35b34801561013957600080fd5b506101426105f0565b60405161014f9190611738565b60405180910390f35b34801561016457600080fd5b5061017f600480360381019061017a91906112d9565b6109c2565b60405161018c919061175a565b60405180910390f35b3480156101a157600080fd5b506101bc60048036038101906101b791906112d9565b610a70565b6040516101c9919061167e565b60405180910390f35b6101ec60048036038101906101e79190611302565b610b20565b005b610208600480360381019061020391906112d9565b610d61565b005b34801561021657600080fd5b50610231600480360381019061022c91906112d9565b610e52565b60405161023e919061167e565b60405180910390f35b34801561025357600080fd5b5061025c610e97565b6040516102699190611699565b60405180910390f35b34801561027e57600080fd5b50610299600480360381019061029491906112d9565b610ebd565b6040516102a6919061181c565b60405180910390f35b3480156102bb57600080fd5b506102d660048036038101906102d191906112d9565b610ee2565b005b3480156102e457600080fd5b506102ff60048036038101906102fa91906112d9565b611022565b60405161030c919061181c565b60405180910390f35b6060600060026000848152602001908152602001600020600501805461033a90611a78565b80601f016020809104026020016040519081016040528092919081815260200182805461036690611a78565b80156103b35780601f10610388576101008083540402835291602001916103b3565b820191906000526020600020905b81548152906001019060200180831161039657829003601f168201915b5050505050905080915050919050565b60026020528060005260406000206000915090508060000154908060010160009054906101000a900473ffffffffffffffffffffffffffffffffffffffff16908060020160009054906101000a900473ffffffffffffffffffffffffffffffffffffffff169080600301549080600401805461043e90611a78565b80601f016020809104026020016040519081016040528092919081815260200182805461046a90611a78565b80156104b75780601f1061048c576101008083540402835291602001916104b7565b820191906000526020600020905b81548152906001019060200180831161049a57829003601f168201915b5050505050908060050180546104cc90611a78565b80601f01602080910402602001604051908101604052809291908181526020018280546104f890611a78565b80156105455780601f1061051a57610100808354040283529160200191610545565b820191906000526020600020905b81548152906001019060200180831161052857829003601f168201915b50505050509080600601805461055a90611a78565b80601f016020809104026020016040519081016040528092919081815260200182805461058690611a78565b80156105d35780601f106105a8576101008083540402835291602001916105d3565b820191906000526020600020905b8154815290600101906020018083116105b657829003601f168201915b5050505050908060070160009054906101000a900460ff16905088565b606060006105fe60006110f9565b905060008167ffffffffffffffff811115610642577f4e487b7100000000000000000000000000000000000000000000000000000000600052604160045260246000fd5b60405190808252806020026020018201604052801561067b57816020015b610668611146565b8152602001906001900390816106605790505b5090506000805b838110156109b85760006001826106999190611986565b905060006002600083815260200190815260200160002090508060405180610100016040529081600082015481526020016001820160009054906101000a900473ffffffffffffffffffffffffffffffffffffffff1673ffffffffffffffffffffffffffffffffffffffff1673ffffffffffffffffffffffffffffffffffffffff1681526020016002820160009054906101000a900473ffffffffffffffffffffffffffffffffffffffff1673ffffffffffffffffffffffffffffffffffffffff1673ffffffffffffffffffffffffffffffffffffffff1681526020016003820154815260200160048201805461078f90611a78565b80601f01602080910402602001604051908101604052809291908181526020018280546107bb90611a78565b80156108085780601f106107dd57610100808354040283529160200191610808565b820191906000526020600020905b8154815290600101906020018083116107eb57829003601f168201915b5050505050815260200160058201805461082190611a78565b80601f016020809104026020016040519081016040528092919081815260200182805461084d90611a78565b801561089a5780601f1061086f5761010080835404028352916020019161089a565b820191906000526020600020905b81548152906001019060200180831161087d57829003601f168201915b505050505081526020016006820180546108b390611a78565b80601f01602080910402602001604051908101604052809291908181526020018280546108df90611a78565b801561092c5780601f106109015761010080835404028352916020019161092c565b820191906000526020600020905b81548152906001019060200180831161090f57829003601f168201915b505050505081526020016007820160009054906101000a900460ff161515151581525050858581518110610989577f4e487b7100000000000000000000000000000000000000000000000000000000600052603260045260246000fd5b60200260200101819052506001846109a19190611986565b9350505080806109b090611adb565b915050610682565b5081935050505090565b606060006002600084815260200190815260200160002060040180546109e790611a78565b80601f0160208091040260200160405190810160405280929190818152602001828054610a1390611a78565b8015610a605780601f10610a3557610100808354040283529160200191610a60565b820191906000526020600020905b815481529060010190602001808311610a4357829003601f168201915b5050505050905080915050919050565b6000600115156002600084815260200190815260200160002060070160009054906101000a900460ff16151514610adc576040517f08c379a0000000000000000000000000000000000000000000000000000000008152600401610ad39061177c565b60405180910390fd5b60006002600084815260200190815260200160002060020160009054906101000a900473ffffffffffffffffffffffffffffffffffffffff16905080915050919050565b60008411610b63576040517f08c379a0000000000000000000000000000000000000000000000000000000008152600401610b5a906117dc565b60405180910390fd5b610b6d6000611107565b6000610b7960006110f9565b90506040518061010001604052808281526020013373ffffffffffffffffffffffffffffffffffffffff168152602001600073ffffffffffffffffffffffffffffffffffffffff16815260200186815260200185815260200184815260200183815260200160001515815250600260008381526020019081526020016000206000820151816000015560208201518160010160006101000a81548173ffffffffffffffffffffffffffffffffffffffff021916908373ffffffffffffffffffffffffffffffffffffffff16021790555060408201518160020160006101000a81548173ffffffffffffffffffffffffffffffffffffffff021916908373ffffffffffffffffffffffffffffffffffffffff160217905550606082015181600301556080820151816004019080519060200190610cb69291906111b9565b5060a0820151816005019080519060200190610cd39291906111b9565b5060c0820151816006019080519060200190610cf09291906111b9565b5060e08201518160070160006101000a81548160ff021916908315150217905550905050807fb52555d9bfce3c450bb4d1930febcfee9177e6c0402cf25be2c896760a8d90f5336000888888886000604051610d5297969594939291906116b4565b60405180910390a25050505050565b600015156002600083815260200190815260200160002060070160009054906101000a900460ff16151514610dcb576040517f08c379a0000000000000000000000000000000000000000000000000000000008152600401610dc2906117fc565b60405180910390fd5b336002600083815260200190815260200160002060020160006101000a81548173ffffffffffffffffffffffffffffffffffffffff021916908373ffffffffffffffffffffffffffffffffffffffff16021790555060016002600083815260200190815260200160002060070160006101000a81548160ff02191690831515021790555050565b6000806002600084815260200190815260200160002060010160009054906101000a900473ffffffffffffffffffffffffffffffffffffffff16905080915050919050565b600160009054906101000a900473ffffffffffffffffffffffffffffffffffffffff1681565b6000806002600084815260200190815260200160002060030154905080915050919050565b3373ffffffffffffffffffffffffffffffffffffffff166002600083815260200190815260200160002060010160009054906101000a900473ffffffffffffffffffffffffffffffffffffffff1673ffffffffffffffffffffffffffffffffffffffff1614610f86576040517f08c379a0000000000000000000000000000000000000000000000000000000008152600401610f7d9061179c565b60405180910390fd5b600115156002600083815260200190815260200160002060070160009054906101000a900460ff16151514610ff0576040517f08c379a0000000000000000000000000000000000000000000000000000000008152600401610fe7906117bc565b60405180910390fd5b60006002600083815260200190815260200160002060070160006101000a81548160ff02191690831515021790555050565b60006002600083815260200190815260200160002060070160009054906101000a900460ff1615611056576001905061105b565b600090505b919050565b6110f681604051602401611074919061175a565b6040516020818303038152906040527f41304fac000000000000000000000000000000000000000000000000000000007bffffffffffffffffffffffffffffffffffffffffffffffffffffffff19166020820180517bffffffffffffffffffffffffffffffffffffffffffffffffffffffff838183161783525050505061111d565b50565b600081600001549050919050565b6001816000016000828254019250508190555050565b60008151905060006a636f6e736f6c652e6c6f679050602083016000808483855afa5050505050565b60405180610100016040528060008152602001600073ffffffffffffffffffffffffffffffffffffffff168152602001600073ffffffffffffffffffffffffffffffffffffffff168152602001600081526020016060815260200160608152602001606081526020016000151581525090565b8280546111c590611a78565b90600052602060002090601f0160209004810192826111e7576000855561122e565b82601f1061120057805160ff191683800117855561122e565b8280016001018555821561122e579182015b8281111561122d578251825591602001919060010190611212565b5b50905061123b919061123f565b5090565b5b80821115611258576000816000905550600101611240565b5090565b600061126f61126a846118ef565b6118ca565b90508281526020810184848401111561128757600080fd5b611292848285611a36565b509392505050565b600082601f8301126112ab57600080fd5b81356112bb84826020860161125c565b91505092915050565b6000813590506112d381611c8f565b92915050565b6000602082840312156112eb57600080fd5b60006112f9848285016112c4565b91505092915050565b6000806000806080858703121561131857600080fd5b6000611326878288016112c4565b945050602085013567ffffffffffffffff81111561134357600080fd5b61134f8782880161129a565b935050604085013567ffffffffffffffff81111561136c57600080fd5b6113788782880161129a565b925050606085013567ffffffffffffffff81111561139557600080fd5b6113a18782880161129a565b91505092959194509250565b60006113b983836115a2565b905092915050565b6113ca816119ee565b82525050565b6113d9816119ee565b82525050565b6113e8816119dc565b82525050565b60006113f982611930565b6114038185611953565b93508360208202850161141585611920565b8060005b85811015611451578484038952815161143285826113ad565b945061143d83611946565b925060208a01995050600181019050611419565b50829750879550505050505092915050565b61146c81611a00565b82525050565b61147b81611a00565b82525050565b600061148c8261193b565b6114968185611964565b93506114a6818560208601611a45565b6114af81611bb1565b840191505092915050565b60006114c58261193b565b6114cf8185611975565b93506114df818560208601611a45565b6114e881611bb1565b840191505092915050565b6000611500600e83611975565b915061150b82611bc2565b602082019050919050565b6000611523600d83611975565b915061152e82611beb565b602082019050919050565b6000611546601783611975565b915061155182611c14565b602082019050919050565b6000611569601c83611975565b915061157482611c3d565b602082019050919050565b600061158c601383611975565b915061159782611c66565b602082019050919050565b6000610100830160008301516115bb6000860182611660565b5060208301516115ce60208601826113c1565b5060408301516115e160408601826113c1565b5060608301516115f46060860182611660565b506080830151848203608086015261160c8282611481565b91505060a083015184820360a08601526116268282611481565b91505060c083015184820360c08601526116408282611481565b91505060e083015161165560e0860182611463565b508091505092915050565b61166981611a2c565b82525050565b61167881611a2c565b82525050565b600060208201905061169360008301846113df565b92915050565b60006020820190506116ae60008301846113d0565b92915050565b600060e0820190506116c9600083018a6113df565b6116d660208301896113df565b6116e3604083018861166f565b81810360608301526116f581876114ba565b9050818103608083015261170981866114ba565b905081810360a083015261171d81856114ba565b905061172c60c0830184611472565b98975050505050505050565b6000602082019050818103600083015261175281846113ee565b905092915050565b6000602082019050818103600083015261177481846114ba565b905092915050565b60006020820190508181036000830152611795816114f3565b9050919050565b600060208201905081810360008301526117b581611516565b9050919050565b600060208201905081810360008301526117d581611539565b9050919050565b600060208201905081810360008301526117f58161155c565b9050919050565b600060208201905081810360008301526118158161157f565b9050919050565b6000602082019050611831600083018461166f565b92915050565b60006101008201905061184d600083018b61166f565b61185a602083018a6113d0565b61186760408301896113d0565b611874606083018861166f565b818103608083015261188681876114ba565b905081810360a083015261189a81866114ba565b905081810360c08301526118ae81856114ba565b90506118bd60e0830184611472565b9998505050505050505050565b60006118d46118e5565b90506118e08282611aaa565b919050565b6000604051905090565b600067ffffffffffffffff82111561190a57611909611b82565b5b61191382611bb1565b9050602081019050919050565b6000819050602082019050919050565b600081519050919050565b600081519050919050565b6000602082019050919050565b600082825260208201905092915050565b600082825260208201905092915050565b600082825260208201905092915050565b600061199182611a2c565b915061199c83611a2c565b9250827fffffffffffffffffffffffffffffffffffffffffffffffffffffffffffffffff038211156119d1576119d0611b24565b5b828201905092915050565b60006119e782611a0c565b9050919050565b60006119f982611a0c565b9050919050565b60008115159050919050565b600073ffffffffffffffffffffffffffffffffffffffff82169050919050565b6000819050919050565b82818337600083830152505050565b60005b83811015611a63578082015181840152602081019050611a48565b83811115611a72576000848401525b50505050565b60006002820490506001821680611a9057607f821691505b60208210811415611aa457611aa3611b53565b5b50919050565b611ab382611bb1565b810181811067ffffffffffffffff82111715611ad257611ad1611b82565b5b80604052505050565b6000611ae682611a2c565b91507fffffffffffffffffffffffffffffffffffffffffffffffffffffffffffffffff821415611b1957611b18611b24565b5b600182019050919050565b7f4e487b7100000000000000000000000000000000000000000000000000000000600052601160045260246000fd5b7f4e487b7100000000000000000000000000000000000000000000000000000000600052602260045260246000fd5b7f4e487b7100000000000000000000000000000000000000000000000000000000600052604160045260246000fd5b6000601f19601f8301169050919050565b7f4e6f742072656e74656420796574000000000000000000000000000000000000600082015250565b7f4e6f7420746865206f776e657200000000000000000000000000000000000000600082015250565b7f41706172746d656e74206973206e6f742072656e746564000000000000000000600082015250565b7f5072696365206d757374206265206174206c6561737420312077656900000000600082015250565b7f41706172746d656e742069732072656e74656400000000000000000000000000600082015250565b611c9881611a2c565b8114611ca357600080fd5b5056fea26469706673582212207f3e40f8444548136406023cd3aebb5b546ac8f0c9e43789d3fedf074ef272aa64736f6c63430008040033",
  "linkReferences": {},
  "deployedLinkReferences": {}
}