{
  "_format": "hh-sol-artifact-1",
  "contractName": "CreateApartment",
  "sourceName": "contracts/CreateApartment.sol",
  "abi": [
    {
      "inputs": [],
      "stateMutability": "nonpayable",
      "type": "constructor"
    },
    {
      "anonymous": false,
      "inputs": [
        {
          "indexed": true,
          "internalType": "uint256",
          "name": "apartmentsId",
          "type": "uint256"
        },
        {
          "indexed": false,
          "internalType": "address",
          "name": "ownerAp",
          "type": "address"
        },
        {
          "indexed": false,
          "internalType": "address",
          "name": "renter",
          "type": "address"
        },
        {
          "indexed": false,
          "internalType": "uint256",
          "name": "price",
          "type": "uint256"
        },
        {
          "indexed": false,
          "internalType": "bool",
          "name": "rented",
          "type": "bool"
        }
      ],
      "name": "ApartmentCreated",
      "type": "event"
    },
    {
      "inputs": [
        {
          "internalType": "uint256",
          "name": "_apartmentId",
          "type": "uint256"
        }
      ],
      "name": "apartmentOwner",
      "outputs": [
        {
          "internalType": "address",
          "name": "",
          "type": "address"
        }
      ],
      "stateMutability": "view",
      "type": "function"
    },
    {
      "inputs": [
        {
          "internalType": "uint256",
          "name": "_apartmentId",
          "type": "uint256"
        }
      ],
      "name": "apartmentPrice",
      "outputs": [
        {
          "internalType": "uint256",
          "name": "",
          "type": "uint256"
        }
      ],
      "stateMutability": "view",
      "type": "function"
    },
    {
      "inputs": [
        {
          "internalType": "address",
          "name": "_account",
          "type": "address"
        }
      ],
      "name": "balanceOf",
      "outputs": [
        {
          "internalType": "uint256",
          "name": "",
          "type": "uint256"
        }
      ],
      "stateMutability": "view",
      "type": "function"
    },
    {
      "inputs": [
        {
          "internalType": "uint256",
          "name": "_price",
          "type": "uint256"
        }
      ],
      "name": "createApartment",
      "outputs": [],
      "stateMutability": "payable",
      "type": "function"
    },
    {
      "inputs": [
        {
          "internalType": "uint256",
          "name": "",
          "type": "uint256"
        }
      ],
      "name": "idToApartment",
      "outputs": [
        {
          "internalType": "uint256",
          "name": "apartmentsId",
          "type": "uint256"
        },
        {
          "internalType": "address payable",
          "name": "ownerAp",
          "type": "address"
        },
        {
          "internalType": "address payable",
          "name": "renter",
          "type": "address"
        },
        {
          "internalType": "uint256",
          "name": "price",
          "type": "uint256"
        },
        {
          "internalType": "bool",
          "name": "rented",
          "type": "bool"
        }
      ],
      "stateMutability": "view",
      "type": "function"
    },
    {
      "inputs": [],
      "name": "name",
      "outputs": [
        {
          "internalType": "string",
          "name": "",
          "type": "string"
        }
      ],
      "stateMutability": "view",
      "type": "function"
    },
    {
      "inputs": [],
      "name": "owner",
      "outputs": [
        {
          "internalType": "address payable",
          "name": "",
          "type": "address"
        }
      ],
      "stateMutability": "view",
      "type": "function"
    },
    {
      "inputs": [],
      "name": "symbol",
      "outputs": [
        {
          "internalType": "string",
          "name": "",
          "type": "string"
        }
      ],
      "stateMutability": "view",
      "type": "function"
    },
    {
      "inputs": [],
      "name": "to",
      "outputs": [
        {
          "internalType": "address",
          "name": "",
          "type": "address"
        }
      ],
      "stateMutability": "view",
      "type": "function"
    },
    {
      "inputs": [],
      "name": "totalSupply",
      "outputs": [
        {
          "internalType": "uint256",
          "name": "",
          "type": "uint256"
        }
      ],
      "stateMutability": "view",
      "type": "function"
    },
    {
      "inputs": [
        {
          "internalType": "uint256",
          "name": "_amount",
          "type": "uint256"
        },
        {
          "internalType": "address",
          "name": "_to",
          "type": "address"
        }
      ],
      "name": "transferToken",
      "outputs": [],
      "stateMutability": "payable",
      "type": "function"
    },
    {
      "inputs": [
        {
          "internalType": "uint256",
          "name": "_amount",
          "type": "uint256"
        }
      ],
      "name": "transferfee",
      "outputs": [],
      "stateMutability": "payable",
      "type": "function"
    }
  ],
  "bytecode": "0x60806040526040518060400160405280600f81526020017f446563656e74426e6220546f6b656e00000000000000000000000000000000008152506000908051906020019062000051929190620002ae565b506040518060400160405280600381526020017f4443420000000000000000000000000000000000000000000000000000000000815250600190805190602001906200009f929190620002ae565b50620f4240600255738626f6940e2eb28930efb4cef49b2d1f2c9c1199600460006101000a81548173ffffffffffffffffffffffffffffffffffffffff021916908373ffffffffffffffffffffffffffffffffffffffff1602179055503480156200010957600080fd5b50600254600360003373ffffffffffffffffffffffffffffffffffffffff1673ffffffffffffffffffffffffffffffffffffffff168152602001908152602001600020819055506200019b6040518060400160405280601f81526020017f4372656174696e67206e65772061706172746d656e7420666163746f72793a00815250620001e260201b620009c61760201c565b33600660006101000a81548173ffffffffffffffffffffffffffffffffffffffff021916908373ffffffffffffffffffffffffffffffffffffffff1602179055506200048b565b6200028281604051602401620001f991906200039f565b6040516020818303038152906040527f41304fac000000000000000000000000000000000000000000000000000000007bffffffffffffffffffffffffffffffffffffffffffffffffffffffff19166020820180517bffffffffffffffffffffffffffffffffffffffffffffffffffffffff83818316178352505050506200028560201b60201c565b50565b60008151905060006a636f6e736f6c652e6c6f679050602083016000808483855afa5050505050565b828054620002bc9062000415565b90600052602060002090601f016020900481019282620002e057600085556200032c565b82601f10620002fb57805160ff19168380011785556200032c565b828001600101855582156200032c579182015b828111156200032b5782518255916020019190600101906200030e565b5b5090506200033b91906200033f565b5090565b5b808211156200035a57600081600090555060010162000340565b5090565b60006200036b82620003c3565b620003778185620003ce565b935062000389818560208601620003df565b62000394816200047a565b840191505092915050565b60006020820190508181036000830152620003bb81846200035e565b905092915050565b600081519050919050565b600082825260208201905092915050565b60005b83811015620003ff578082015181840152602081019050620003e2565b838111156200040f576000848401525b50505050565b600060028204905060018216806200042e57607f821691505b602082108114156200044557620004446200044b565b5b50919050565b7f4e487b7100000000000000000000000000000000000000000000000000000000600052602260045260246000fd5b6000601f19601f8301169050919050565b610ff4806200049b6000396000f3fe6080604052600436106100a75760003560e01c80638da5cb5b116100645780638da5cb5b146101c757806395d89b41146101f2578063bad425901461021d578063cefedb3014610239578063ec52a59214610255578063fe5ec9ba14610292576100a7565b806306fdde03146100ac57806313151981146100d757806314f29e091461010257806318160ddd1461014357806340c8b20c1461016e57806370a082311461018a575b600080fd5b3480156100b857600080fd5b506100c16102cf565b6040516100ce9190610c9a565b60405180910390f35b3480156100e357600080fd5b506100ec61035d565b6040516100f99190610c1f565b60405180910390f35b34801561010e57600080fd5b5061012960048036038101906101249190610aff565b610383565b60405161013a959493929190610d17565b60405180910390f35b34801561014f57600080fd5b50610158610406565b6040516101659190610cfc565b60405180910390f35b61018860048036038101906101839190610aff565b61040c565b005b34801561019657600080fd5b506101b160048036038101906101ac9190610ad6565b6105da565b6040516101be9190610cfc565b60405180910390f35b3480156101d357600080fd5b506101dc610623565b6040516101e99190610c3a565b60405180910390f35b3480156101fe57600080fd5b50610207610649565b6040516102149190610c9a565b60405180910390f35b61023760048036038101906102329190610b28565b6106d7565b005b610253600480360381019061024e9190610aff565b610809565b005b34801561026157600080fd5b5061027c60048036038101906102779190610aff565b61095c565b6040516102899190610cfc565b60405180910390f35b34801561029e57600080fd5b506102b960048036038101906102b49190610aff565b610981565b6040516102c69190610c1f565b60405180910390f35b600080546102dc90610e9d565b80601f016020809104026020016040519081016040528092919081815260200182805461030890610e9d565b80156103555780601f1061032a57610100808354040283529160200191610355565b820191906000526020600020905b81548152906001019060200180831161033857829003601f168201915b505050505081565b600460009054906101000a900473ffffffffffffffffffffffffffffffffffffffff1681565b60076020528060005260406000206000915090508060000154908060010160009054906101000a900473ffffffffffffffffffffffffffffffffffffffff16908060020160009054906101000a900473ffffffffffffffffffffffffffffffffffffffff16908060030154908060040160009054906101000a900460ff16905085565b60025481565b6000811161044f576040517f08c379a000000000000000000000000000000000000000000000000000000000815260040161044690610cdc565b60405180910390fd5b6104596005610a5f565b60006104656005610a75565b90506040518060a001604052808281526020013373ffffffffffffffffffffffffffffffffffffffff168152602001600073ffffffffffffffffffffffffffffffffffffffff16815260200183815260200160001515815250600760008381526020019081526020016000206000820151816000015560208201518160010160006101000a81548173ffffffffffffffffffffffffffffffffffffffff021916908373ffffffffffffffffffffffffffffffffffffffff16021790555060408201518160020160006101000a81548173ffffffffffffffffffffffffffffffffffffffff021916908373ffffffffffffffffffffffffffffffffffffffff1602179055506060820151816003015560808201518160040160006101000a81548160ff021916908315150217905550905050807f2439c9df5317aa6c4c3639e0e0b3f2cdacd6daf5f5393cbf2142da87441a67f93360008560006040516105ce9493929190610c55565b60405180910390a25050565b6000600360008373ffffffffffffffffffffffffffffffffffffffff1673ffffffffffffffffffffffffffffffffffffffff168152602001908152602001600020549050919050565b600660009054906101000a900473ffffffffffffffffffffffffffffffffffffffff1681565b6001805461065690610e9d565b80601f016020809104026020016040519081016040528092919081815260200182805461068290610e9d565b80156106cf5780601f106106a4576101008083540402835291602001916106cf565b820191906000526020600020905b8154815290600101906020018083116106b257829003601f168201915b505050505081565b81600360003373ffffffffffffffffffffffffffffffffffffffff1673ffffffffffffffffffffffffffffffffffffffff168152602001908152602001600020541015610759576040517f08c379a000000000000000000000000000000000000000000000000000000000815260040161075090610cbc565b60405180910390fd5b81600360003373ffffffffffffffffffffffffffffffffffffffff1673ffffffffffffffffffffffffffffffffffffffff16815260200190815260200160002060008282546107a89190610ddc565b9250508190555081600360008373ffffffffffffffffffffffffffffffffffffffff1673ffffffffffffffffffffffffffffffffffffffff16815260200190815260200160002060008282546107fe9190610d86565b925050819055505050565b80600360003373ffffffffffffffffffffffffffffffffffffffff1673ffffffffffffffffffffffffffffffffffffffff16815260200190815260200160002054101561088b576040517f08c379a000000000000000000000000000000000000000000000000000000000815260040161088290610cbc565b60405180910390fd5b80600360003373ffffffffffffffffffffffffffffffffffffffff1673ffffffffffffffffffffffffffffffffffffffff16815260200190815260200160002060008282546108da9190610ddc565b925050819055508060036000600460009054906101000a900473ffffffffffffffffffffffffffffffffffffffff1673ffffffffffffffffffffffffffffffffffffffff1673ffffffffffffffffffffffffffffffffffffffff16815260200190815260200160002060008282546109529190610d86565b9250508190555050565b6000806007600084815260200190815260200160002060030154905080915050919050565b6000806007600084815260200190815260200160002060010160009054906101000a900473ffffffffffffffffffffffffffffffffffffffff16905080915050919050565b610a5c816040516024016109da9190610c9a565b6040516020818303038152906040527f41304fac000000000000000000000000000000000000000000000000000000007bffffffffffffffffffffffffffffffffffffffffffffffffffffffff19166020820180517bffffffffffffffffffffffffffffffffffffffffffffffffffffffff8381831617835250505050610a83565b50565b6001816000016000828254019250508190555050565b600081600001549050919050565b60008151905060006a636f6e736f6c652e6c6f679050602083016000808483855afa5050505050565b600081359050610abb81610f90565b92915050565b600081359050610ad081610fa7565b92915050565b600060208284031215610ae857600080fd5b6000610af684828501610aac565b91505092915050565b600060208284031215610b1157600080fd5b6000610b1f84828501610ac1565b91505092915050565b60008060408385031215610b3b57600080fd5b6000610b4985828601610ac1565b9250506020610b5a85828601610aac565b9150509250929050565b610b6d81610e22565b82525050565b610b7c81610e10565b82525050565b610b8b81610e34565b82525050565b6000610b9c82610d6a565b610ba68185610d75565b9350610bb6818560208601610e6a565b610bbf81610f2d565b840191505092915050565b6000610bd7601183610d75565b9150610be282610f3e565b602082019050919050565b6000610bfa601c83610d75565b9150610c0582610f67565b602082019050919050565b610c1981610e60565b82525050565b6000602082019050610c346000830184610b73565b92915050565b6000602082019050610c4f6000830184610b64565b92915050565b6000608082019050610c6a6000830187610b73565b610c776020830186610b73565b610c846040830185610c10565b610c916060830184610b82565b95945050505050565b60006020820190508181036000830152610cb48184610b91565b905092915050565b60006020820190508181036000830152610cd581610bca565b9050919050565b60006020820190508181036000830152610cf581610bed565b9050919050565b6000602082019050610d116000830184610c10565b92915050565b600060a082019050610d2c6000830188610c10565b610d396020830187610b64565b610d466040830186610b64565b610d536060830185610c10565b610d606080830184610b82565b9695505050505050565b600081519050919050565b600082825260208201905092915050565b6000610d9182610e60565b9150610d9c83610e60565b9250827fffffffffffffffffffffffffffffffffffffffffffffffffffffffffffffffff03821115610dd157610dd0610ecf565b5b828201905092915050565b6000610de782610e60565b9150610df283610e60565b925082821015610e0557610e04610ecf565b5b828203905092915050565b6000610e1b82610e40565b9050919050565b6000610e2d82610e40565b9050919050565b60008115159050919050565b600073ffffffffffffffffffffffffffffffffffffffff82169050919050565b6000819050919050565b60005b83811015610e88578082015181840152602081019050610e6d565b83811115610e97576000848401525b50505050565b60006002820490506001821680610eb557607f821691505b60208210811415610ec957610ec8610efe565b5b50919050565b7f4e487b7100000000000000000000000000000000000000000000000000000000600052601160045260246000fd5b7f4e487b7100000000000000000000000000000000000000000000000000000000600052602260045260246000fd5b6000601f19601f8301169050919050565b7f4e6f7420656e6f75676820746f6b656e73000000000000000000000000000000600082015250565b7f5072696365206d757374206265206174206c6561737420312077656900000000600082015250565b610f9981610e10565b8114610fa457600080fd5b50565b610fb081610e60565b8114610fbb57600080fd5b5056fea264697066735822122087383740e1f61d9355549685d6d8283ebe9eb2bcd6a4d12b78f00cd330e00b4864736f6c63430008040033",
  "linkReferences": {},
  "deployedLinkReferences": {}
}