{
  "_format": "hh-sol-artifact-1",
  "contractName": "CreateApartment",
  "sourceName": "contracts/CreateApartment.sol",
  "abi": [
    {
      "inputs": [],
      "stateMutability": "nonpayable",
      "type": "constructor"
    },
    {
      "anonymous": false,
      "inputs": [
        {
          "indexed": true,
          "internalType": "uint256",
          "name": "apartmentsId",
          "type": "uint256"
        },
        {
          "indexed": false,
          "internalType": "address",
          "name": "ownerAp",
          "type": "address"
        },
        {
          "indexed": false,
          "internalType": "address",
          "name": "renterAp",
          "type": "address"
        },
        {
          "indexed": false,
          "internalType": "uint256",
          "name": "price",
          "type": "uint256"
        },
        {
          "indexed": false,
          "internalType": "string",
          "name": "imageLink",
          "type": "string"
        },
        {
          "indexed": false,
          "internalType": "string",
          "name": "adressAp",
          "type": "string"
        },
        {
          "indexed": false,
          "internalType": "string",
          "name": "details",
          "type": "string"
        },
        {
          "indexed": false,
          "internalType": "bool",
          "name": "rented",
          "type": "bool"
        }
      ],
      "name": "ApartmentCreated",
      "type": "event"
    },
    {
      "inputs": [
        {
          "internalType": "uint256",
          "name": "_apartmentId",
          "type": "uint256"
        }
      ],
      "name": "apartmentAdress",
      "outputs": [
        {
          "internalType": "string",
          "name": "",
          "type": "string"
        }
      ],
      "stateMutability": "view",
      "type": "function"
    },
    {
      "inputs": [
        {
          "internalType": "uint256",
          "name": "_apartmentId",
          "type": "uint256"
        }
      ],
      "name": "apartmentImageLink",
      "outputs": [
        {
          "internalType": "string",
          "name": "",
          "type": "string"
        }
      ],
      "stateMutability": "view",
      "type": "function"
    },
    {
      "inputs": [
        {
          "internalType": "uint256",
          "name": "_apartmentId",
          "type": "uint256"
        }
      ],
      "name": "apartmentOwner",
      "outputs": [
        {
          "internalType": "address",
          "name": "",
          "type": "address"
        }
      ],
      "stateMutability": "view",
      "type": "function"
    },
    {
      "inputs": [
        {
          "internalType": "uint256",
          "name": "_apartmentId",
          "type": "uint256"
        }
      ],
      "name": "apartmentPrice",
      "outputs": [
        {
          "internalType": "uint256",
          "name": "",
          "type": "uint256"
        }
      ],
      "stateMutability": "view",
      "type": "function"
    },
    {
      "inputs": [
        {
          "internalType": "uint256",
          "name": "_price",
          "type": "uint256"
        },
        {
          "internalType": "string",
          "name": "_imageLink",
          "type": "string"
        },
        {
          "internalType": "string",
          "name": "_addressAp",
          "type": "string"
        },
        {
          "internalType": "string",
          "name": "_details",
          "type": "string"
        }
      ],
      "name": "createApartment",
      "outputs": [],
      "stateMutability": "payable",
      "type": "function"
    },
    {
      "inputs": [
        {
          "internalType": "uint256",
          "name": "",
          "type": "uint256"
        }
      ],
      "name": "idToApartment",
      "outputs": [
        {
          "internalType": "uint256",
          "name": "apartmentsId",
          "type": "uint256"
        },
        {
          "internalType": "address payable",
          "name": "ownerAp",
          "type": "address"
        },
        {
          "internalType": "address payable",
          "name": "renterAp",
          "type": "address"
        },
        {
          "internalType": "uint256",
          "name": "price",
          "type": "uint256"
        },
        {
          "internalType": "string",
          "name": "imageLink",
          "type": "string"
        },
        {
          "internalType": "string",
          "name": "adressAp",
          "type": "string"
        },
        {
          "internalType": "string",
          "name": "details",
          "type": "string"
        },
        {
          "internalType": "bool",
          "name": "rented",
          "type": "bool"
        }
      ],
      "stateMutability": "view",
      "type": "function"
    },
    {
      "inputs": [],
      "name": "owner",
      "outputs": [
        {
          "internalType": "address payable",
          "name": "",
          "type": "address"
        }
      ],
      "stateMutability": "view",
      "type": "function"
    }
  ],
  "bytecode": "0x60806040523480156200001157600080fd5b506200005d6040518060400160405280601f81526020017f4372656174696e67206e65772061706172746d656e7420666163746f72793a00815250620000a460201b6200084e1760201c565b33600160006101000a81548173ffffffffffffffffffffffffffffffffffffffff021916908373ffffffffffffffffffffffffffffffffffffffff16021790555062000238565b6200014481604051602401620000bb9190620001b1565b6040516020818303038152906040527f41304fac000000000000000000000000000000000000000000000000000000007bffffffffffffffffffffffffffffffffffffffffffffffffffffffff19166020820180517bffffffffffffffffffffffffffffffffffffffffffffffffffffffff83818316178352505050506200014760201b60201c565b50565b60008151905060006a636f6e736f6c652e6c6f679050602083016000808483855afa5050505050565b60006200017d82620001d5565b620001898185620001e0565b93506200019b818560208601620001f1565b620001a68162000227565b840191505092915050565b60006020820190508181036000830152620001cd818462000170565b905092915050565b600081519050919050565b600082825260208201905092915050565b60005b8381101562000211578082015181840152602081019050620001f4565b8381111562000221576000848401525b50505050565b6000601f19601f8301169050919050565b610fc080620002486000396000f3fe6080604052600436106100705760003560e01c80637a1156601161004e5780637a115660146101335780638da5cb5b1461014f578063ec52a5921461017a578063fe5ec9ba146101b757610070565b80630d874e871461007557806314f29e09146100b25780632b24fa4b146100f6575b600080fd5b34801561008157600080fd5b5061009c60048036038101906100979190610a54565b6101f4565b6040516100a99190610c7a565b60405180910390f35b3480156100be57600080fd5b506100d960048036038101906100d49190610a54565b6102a2565b6040516100ed989796959493929190610cd7565b60405180910390f35b34801561010257600080fd5b5061011d60048036038101906101189190610a54565b6104cf565b60405161012a9190610c7a565b60405180910390f35b61014d60048036038101906101489190610a7d565b61057d565b005b34801561015b57600080fd5b506101646107be565b6040516101719190610bdb565b60405180910390f35b34801561018657600080fd5b506101a1600480360381019061019c9190610a54565b6107e4565b6040516101ae9190610cbc565b60405180910390f35b3480156101c357600080fd5b506101de60048036038101906101d99190610a54565b610809565b6040516101eb9190610bc0565b60405180910390f35b6060600060026000848152602001908152602001600020600501805461021990610e78565b80601f016020809104026020016040519081016040528092919081815260200182805461024590610e78565b80156102925780601f1061026757610100808354040283529160200191610292565b820191906000526020600020905b81548152906001019060200180831161027557829003601f168201915b5050505050905080915050919050565b60026020528060005260406000206000915090508060000154908060010160009054906101000a900473ffffffffffffffffffffffffffffffffffffffff16908060020160009054906101000a900473ffffffffffffffffffffffffffffffffffffffff169080600301549080600401805461031d90610e78565b80601f016020809104026020016040519081016040528092919081815260200182805461034990610e78565b80156103965780601f1061036b57610100808354040283529160200191610396565b820191906000526020600020905b81548152906001019060200180831161037957829003601f168201915b5050505050908060050180546103ab90610e78565b80601f01602080910402602001604051908101604052809291908181526020018280546103d790610e78565b80156104245780601f106103f957610100808354040283529160200191610424565b820191906000526020600020905b81548152906001019060200180831161040757829003601f168201915b50505050509080600601805461043990610e78565b80601f016020809104026020016040519081016040528092919081815260200182805461046590610e78565b80156104b25780601f10610487576101008083540402835291602001916104b2565b820191906000526020600020905b81548152906001019060200180831161049557829003601f168201915b5050505050908060070160009054906101000a900460ff16905088565b606060006002600084815260200190815260200160002060040180546104f490610e78565b80601f016020809104026020016040519081016040528092919081815260200182805461052090610e78565b801561056d5780601f106105425761010080835404028352916020019161056d565b820191906000526020600020905b81548152906001019060200180831161055057829003601f168201915b5050505050905080915050919050565b600084116105c0576040517f08c379a00000000000000000000000000000000000000000000000000000000081526004016105b790610c9c565b60405180910390fd5b6105ca60006108e7565b60006105d660006108fd565b90506040518061010001604052808281526020013373ffffffffffffffffffffffffffffffffffffffff168152602001600073ffffffffffffffffffffffffffffffffffffffff16815260200186815260200185815260200184815260200183815260200160001515815250600260008381526020019081526020016000206000820151816000015560208201518160010160006101000a81548173ffffffffffffffffffffffffffffffffffffffff021916908373ffffffffffffffffffffffffffffffffffffffff16021790555060408201518160020160006101000a81548173ffffffffffffffffffffffffffffffffffffffff021916908373ffffffffffffffffffffffffffffffffffffffff160217905550606082015181600301556080820151816004019080519060200190610713929190610934565b5060a0820151816005019080519060200190610730929190610934565b5060c082015181600601908051906020019061074d929190610934565b5060e08201518160070160006101000a81548160ff021916908315150217905550905050807fb52555d9bfce3c450bb4d1930febcfee9177e6c0402cf25be2c896760a8d90f53360008888888860006040516107af9796959493929190610bf6565b60405180910390a25050505050565b600160009054906101000a900473ffffffffffffffffffffffffffffffffffffffff1681565b6000806002600084815260200190815260200160002060030154905080915050919050565b6000806002600084815260200190815260200160002060010160009054906101000a900473ffffffffffffffffffffffffffffffffffffffff16905080915050919050565b6108e4816040516024016108629190610c7a565b6040516020818303038152906040527f41304fac000000000000000000000000000000000000000000000000000000007bffffffffffffffffffffffffffffffffffffffffffffffffffffffff19166020820180517bffffffffffffffffffffffffffffffffffffffffffffffffffffffff838183161783525050505061090b565b50565b6001816000016000828254019250508190555050565b600081600001549050919050565b60008151905060006a636f6e736f6c652e6c6f679050602083016000808483855afa5050505050565b82805461094090610e78565b90600052602060002090601f01602090048101928261096257600085556109a9565b82601f1061097b57805160ff19168380011785556109a9565b828001600101855582156109a9579182015b828111156109a857825182559160200191906001019061098d565b5b5090506109b691906109ba565b5090565b5b808211156109d35760008160009055506001016109bb565b5090565b60006109ea6109e584610d8f565b610d6a565b905082815260208101848484011115610a0257600080fd5b610a0d848285610e36565b509392505050565b600082601f830112610a2657600080fd5b8135610a368482602086016109d7565b91505092915050565b600081359050610a4e81610f73565b92915050565b600060208284031215610a6657600080fd5b6000610a7484828501610a3f565b91505092915050565b60008060008060808587031215610a9357600080fd5b6000610aa187828801610a3f565b945050602085013567ffffffffffffffff811115610abe57600080fd5b610aca87828801610a15565b935050604085013567ffffffffffffffff811115610ae757600080fd5b610af387828801610a15565b925050606085013567ffffffffffffffff811115610b1057600080fd5b610b1c87828801610a15565b91505092959194509250565b610b3181610dee565b82525050565b610b4081610ddc565b82525050565b610b4f81610e00565b82525050565b6000610b6082610dc0565b610b6a8185610dcb565b9350610b7a818560208601610e45565b610b8381610f39565b840191505092915050565b6000610b9b601c83610dcb565b9150610ba682610f4a565b602082019050919050565b610bba81610e2c565b82525050565b6000602082019050610bd56000830184610b37565b92915050565b6000602082019050610bf06000830184610b28565b92915050565b600060e082019050610c0b600083018a610b37565b610c186020830189610b37565b610c256040830188610bb1565b8181036060830152610c378187610b55565b90508181036080830152610c4b8186610b55565b905081810360a0830152610c5f8185610b55565b9050610c6e60c0830184610b46565b98975050505050505050565b60006020820190508181036000830152610c948184610b55565b905092915050565b60006020820190508181036000830152610cb581610b8e565b9050919050565b6000602082019050610cd16000830184610bb1565b92915050565b600061010082019050610ced600083018b610bb1565b610cfa602083018a610b28565b610d076040830189610b28565b610d146060830188610bb1565b8181036080830152610d268187610b55565b905081810360a0830152610d3a8186610b55565b905081810360c0830152610d4e8185610b55565b9050610d5d60e0830184610b46565b9998505050505050505050565b6000610d74610d85565b9050610d808282610eaa565b919050565b6000604051905090565b600067ffffffffffffffff821115610daa57610da9610f0a565b5b610db382610f39565b9050602081019050919050565b600081519050919050565b600082825260208201905092915050565b6000610de782610e0c565b9050919050565b6000610df982610e0c565b9050919050565b60008115159050919050565b600073ffffffffffffffffffffffffffffffffffffffff82169050919050565b6000819050919050565b82818337600083830152505050565b60005b83811015610e63578082015181840152602081019050610e48565b83811115610e72576000848401525b50505050565b60006002820490506001821680610e9057607f821691505b60208210811415610ea457610ea3610edb565b5b50919050565b610eb382610f39565b810181811067ffffffffffffffff82111715610ed257610ed1610f0a565b5b80604052505050565b7f4e487b7100000000000000000000000000000000000000000000000000000000600052602260045260246000fd5b7f4e487b7100000000000000000000000000000000000000000000000000000000600052604160045260246000fd5b6000601f19601f8301169050919050565b7f5072696365206d757374206265206174206c6561737420312077656900000000600082015250565b610f7c81610e2c565b8114610f8757600080fd5b5056fea2646970667358221220d1d857a7b2a9fa486e55071406113e36a056758c166dde1e5c4829975e3affbc64736f6c63430008040033",
  "linkReferences": {},
  "deployedLinkReferences": {}
}