{
  "_format": "hh-sol-artifact-1",
  "contractName": "CreateApartment",
  "sourceName": "contracts/CreateApartment.sol",
  "abi": [
    {
      "inputs": [],
      "stateMutability": "nonpayable",
      "type": "constructor"
    },
    {
      "anonymous": false,
      "inputs": [
        {
          "indexed": true,
          "internalType": "uint256",
          "name": "apartmentsId",
          "type": "uint256"
        },
        {
          "indexed": false,
          "internalType": "address",
          "name": "ownerAp",
          "type": "address"
        },
        {
          "indexed": false,
          "internalType": "uint256",
          "name": "price",
          "type": "uint256"
        },
        {
          "indexed": false,
          "internalType": "string",
          "name": "imageLink",
          "type": "string"
        },
        {
          "indexed": false,
          "internalType": "string",
          "name": "adressAp",
          "type": "string"
        },
        {
          "indexed": false,
          "internalType": "string",
          "name": "details",
          "type": "string"
        }
      ],
      "name": "ApartmentCreated",
      "type": "event"
    },
    {
      "anonymous": false,
      "inputs": [
        {
          "indexed": true,
          "internalType": "address",
          "name": "_renter",
          "type": "address"
        },
        {
          "indexed": false,
          "internalType": "uint256",
          "name": "_tokenId",
          "type": "uint256"
        },
        {
          "indexed": false,
          "internalType": "uint256",
          "name": "_start",
          "type": "uint256"
        },
        {
          "indexed": false,
          "internalType": "uint256",
          "name": "_end",
          "type": "uint256"
        }
      ],
      "name": "CancelReservation",
      "type": "event"
    },
    {
      "anonymous": false,
      "inputs": [
        {
          "indexed": true,
          "internalType": "address",
          "name": "_renter",
          "type": "address"
        },
        {
          "indexed": false,
          "internalType": "uint256",
          "name": "_tokenId",
          "type": "uint256"
        },
        {
          "indexed": false,
          "internalType": "uint256",
          "name": "_start",
          "type": "uint256"
        },
        {
          "indexed": false,
          "internalType": "uint256",
          "name": "_end",
          "type": "uint256"
        }
      ],
      "name": "Reserve",
      "type": "event"
    },
    {
      "anonymous": false,
      "inputs": [
        {
          "indexed": true,
          "internalType": "address",
          "name": "_from",
          "type": "address"
        },
        {
          "indexed": true,
          "internalType": "address",
          "name": "_to",
          "type": "address"
        },
        {
          "indexed": false,
          "internalType": "uint256",
          "name": "_value",
          "type": "uint256"
        }
      ],
      "name": "Transfer",
      "type": "event"
    },
    {
      "inputs": [
        {
          "internalType": "uint256",
          "name": "_apartmentId",
          "type": "uint256"
        }
      ],
      "name": "apartmentAdress",
      "outputs": [
        {
          "internalType": "string",
          "name": "",
          "type": "string"
        }
      ],
      "stateMutability": "view",
      "type": "function"
    },
    {
      "inputs": [
        {
          "internalType": "uint256",
          "name": "_apartmentId",
          "type": "uint256"
        }
      ],
      "name": "apartmentImageLink",
      "outputs": [
        {
          "internalType": "string",
          "name": "",
          "type": "string"
        }
      ],
      "stateMutability": "view",
      "type": "function"
    },
    {
      "inputs": [
        {
          "internalType": "address",
          "name": "_account",
          "type": "address"
        }
      ],
      "name": "balanceOf",
      "outputs": [
        {
          "internalType": "uint256",
          "name": "",
          "type": "uint256"
        }
      ],
      "stateMutability": "view",
      "type": "function"
    },
    {
      "inputs": [
        {
          "internalType": "uint256",
          "name": "_tokens",
          "type": "uint256"
        }
      ],
      "name": "buy",
      "outputs": [],
      "stateMutability": "payable",
      "type": "function"
    },
    {
      "inputs": [
        {
          "internalType": "uint256",
          "name": "_apartmentId",
          "type": "uint256"
        },
        {
          "internalType": "uint256",
          "name": "_start",
          "type": "uint256"
        }
      ],
      "name": "cancelReservation",
      "outputs": [
        {
          "internalType": "bool",
          "name": "success",
          "type": "bool"
        }
      ],
      "stateMutability": "nonpayable",
      "type": "function"
    },
    {
      "inputs": [
        {
          "internalType": "uint256",
          "name": "_apartmentId",
          "type": "uint256"
        },
        {
          "internalType": "uint256",
          "name": "_start",
          "type": "uint256"
        },
        {
          "internalType": "uint256",
          "name": "_end",
          "type": "uint256"
        }
      ],
      "name": "checkAvailable",
      "outputs": [
        {
          "internalType": "bool",
          "name": "available",
          "type": "bool"
        }
      ],
      "stateMutability": "view",
      "type": "function"
    },
    {
      "inputs": [
        {
          "internalType": "uint256",
          "name": "_price",
          "type": "uint256"
        },
        {
          "internalType": "string",
          "name": "_imageLink",
          "type": "string"
        },
        {
          "internalType": "string",
          "name": "_addressAp",
          "type": "string"
        },
        {
          "internalType": "string",
          "name": "_details",
          "type": "string"
        }
      ],
      "name": "createApartment",
      "outputs": [],
      "stateMutability": "payable",
      "type": "function"
    },
    {
      "inputs": [],
      "name": "fee",
      "outputs": [
        {
          "internalType": "address payable",
          "name": "",
          "type": "address"
        }
      ],
      "stateMutability": "view",
      "type": "function"
    },
    {
      "inputs": [],
      "name": "fetchApartmentsCreated",
      "outputs": [
        {
          "components": [
            {
              "internalType": "uint256",
              "name": "apartmentsId",
              "type": "uint256"
            },
            {
              "internalType": "address payable",
              "name": "ownerAp",
              "type": "address"
            },
            {
              "internalType": "uint256",
              "name": "price",
              "type": "uint256"
            },
            {
              "internalType": "string",
              "name": "imageLink",
              "type": "string"
            },
            {
              "internalType": "string",
              "name": "adressAp",
              "type": "string"
            },
            {
              "internalType": "string",
              "name": "details",
              "type": "string"
            }
          ],
          "internalType": "struct CreateApartment.Apartment[]",
          "name": "",
          "type": "tuple[]"
        }
      ],
      "stateMutability": "view",
      "type": "function"
    },
    {
      "inputs": [
        {
          "internalType": "uint256",
          "name": "_apartmentId",
          "type": "uint256"
        }
      ],
      "name": "getApartmentOwner",
      "outputs": [
        {
          "internalType": "address",
          "name": "",
          "type": "address"
        }
      ],
      "stateMutability": "view",
      "type": "function"
    },
    {
      "inputs": [
        {
          "internalType": "uint256",
          "name": "_apartmentId",
          "type": "uint256"
        }
      ],
      "name": "getApartmentPrice",
      "outputs": [
        {
          "internalType": "uint256",
          "name": "",
          "type": "uint256"
        }
      ],
      "stateMutability": "view",
      "type": "function"
    },
    {
      "inputs": [],
      "name": "getbalanceOf",
      "outputs": [
        {
          "internalType": "uint256",
          "name": "",
          "type": "uint256"
        }
      ],
      "stateMutability": "view",
      "type": "function"
    },
    {
      "inputs": [
        {
          "internalType": "uint256",
          "name": "",
          "type": "uint256"
        }
      ],
      "name": "idToApartment",
      "outputs": [
        {
          "internalType": "uint256",
          "name": "apartmentsId",
          "type": "uint256"
        },
        {
          "internalType": "address payable",
          "name": "ownerAp",
          "type": "address"
        },
        {
          "internalType": "uint256",
          "name": "price",
          "type": "uint256"
        },
        {
          "internalType": "string",
          "name": "imageLink",
          "type": "string"
        },
        {
          "internalType": "string",
          "name": "adressAp",
          "type": "string"
        },
        {
          "internalType": "string",
          "name": "details",
          "type": "string"
        }
      ],
      "stateMutability": "view",
      "type": "function"
    },
    {
      "inputs": [],
      "name": "name",
      "outputs": [
        {
          "internalType": "string",
          "name": "",
          "type": "string"
        }
      ],
      "stateMutability": "view",
      "type": "function"
    },
    {
      "inputs": [],
      "name": "owner",
      "outputs": [
        {
          "internalType": "address payable",
          "name": "",
          "type": "address"
        }
      ],
      "stateMutability": "view",
      "type": "function"
    },
    {
      "inputs": [
        {
          "internalType": "uint256",
          "name": "_apartmentId",
          "type": "uint256"
        },
        {
          "internalType": "uint256",
          "name": "_time",
          "type": "uint256"
        }
      ],
      "name": "renterOf",
      "outputs": [
        {
          "internalType": "address",
          "name": "",
          "type": "address"
        }
      ],
      "stateMutability": "view",
      "type": "function"
    },
    {
      "inputs": [
        {
          "internalType": "uint256",
          "name": "_apartmentId",
          "type": "uint256"
        },
        {
          "internalType": "uint256",
          "name": "_start",
          "type": "uint256"
        },
        {
          "internalType": "uint256",
          "name": "_end",
          "type": "uint256"
        }
      ],
      "name": "reserve",
      "outputs": [
        {
          "internalType": "bool",
          "name": "success",
          "type": "bool"
        }
      ],
      "stateMutability": "nonpayable",
      "type": "function"
    },
    {
      "inputs": [],
      "name": "symbol",
      "outputs": [
        {
          "internalType": "string",
          "name": "",
          "type": "string"
        }
      ],
      "stateMutability": "view",
      "type": "function"
    },
    {
      "inputs": [],
      "name": "totalSupply",
      "outputs": [
        {
          "internalType": "uint256",
          "name": "",
          "type": "uint256"
        }
      ],
      "stateMutability": "view",
      "type": "function"
    },
    {
      "inputs": [
        {
          "internalType": "uint256",
          "name": "_amount",
          "type": "uint256"
        },
        {
          "internalType": "address",
          "name": "_to",
          "type": "address"
        }
      ],
      "name": "transfer",
      "outputs": [],
      "stateMutability": "payable",
      "type": "function"
    },
    {
      "inputs": [
        {
          "internalType": "address",
          "name": "_from",
          "type": "address"
        },
        {
          "internalType": "address",
          "name": "_to",
          "type": "address"
        },
        {
          "internalType": "uint256",
          "name": "_amount",
          "type": "uint256"
        }
      ],
      "name": "transferFrom",
      "outputs": [],
      "stateMutability": "payable",
      "type": "function"
    },
    {
      "inputs": [
        {
          "internalType": "uint256",
          "name": "_amount",
          "type": "uint256"
        }
      ],
      "name": "transferfee",
      "outputs": [],
      "stateMutability": "payable",
      "type": "function"
    }
  ],
  "bytecode": "0x608060405260405180606001604052806025815260200162004088602591396000908051906020019062000035929190620002d3565b506040518060400160405280600381526020017f44415200000000000000000000000000000000000000000000000000000000008152506001908051906020019062000083929190620002d3565b50620f424060025573f39fd6e51aad88f6f4ce6ab8827279cfffb92266600460006101000a81548173ffffffffffffffffffffffffffffffffffffffff021916908373ffffffffffffffffffffffffffffffffffffffff160217905550348015620000ed57600080fd5b50600254600360003373ffffffffffffffffffffffffffffffffffffffff1673ffffffffffffffffffffffffffffffffffffffff1681526020019081526020016000208190555033600560006101000a81548173ffffffffffffffffffffffffffffffffffffffff021916908373ffffffffffffffffffffffffffffffffffffffff160217905550620001c06040518060400160405280601f81526020017f4372656174696e67206e65772061706172746d656e7420666163746f72793a008152506200020760201b62001ac91760201c565b33600760006101000a81548173ffffffffffffffffffffffffffffffffffffffff021916908373ffffffffffffffffffffffffffffffffffffffff160217905550620004b0565b620002a7816040516024016200021e9190620003c4565b6040516020818303038152906040527f41304fac000000000000000000000000000000000000000000000000000000007bffffffffffffffffffffffffffffffffffffffffffffffffffffffff19166020820180517bffffffffffffffffffffffffffffffffffffffffffffffffffffffff8381831617835250505050620002aa60201b60201c565b50565b60008151905060006a636f6e736f6c652e6c6f679050602083016000808483855afa5050505050565b828054620002e1906200043a565b90600052602060002090601f01602090048101928262000305576000855562000351565b82601f106200032057805160ff191683800117855562000351565b8280016001018555821562000351579182015b828111156200035057825182559160200191906001019062000333565b5b50905062000360919062000364565b5090565b5b808211156200037f57600081600090555060010162000365565b5090565b60006200039082620003e8565b6200039c8185620003f3565b9350620003ae81856020860162000404565b620003b9816200049f565b840191505092915050565b60006020820190508181036000830152620003e0818462000383565b905092915050565b600081519050919050565b600082825260208201905092915050565b60005b838110156200042457808201518184015260208101905062000407565b8381111562000434576000848401525b50505050565b600060028204905060018216806200045357607f821691505b602082108114156200046a576200046962000470565b5b50919050565b7f4e487b7100000000000000000000000000000000000000000000000000000000600052602260045260246000fd5b6000601f19601f8301169050919050565b613bc880620004c06000396000f3fe6080604052600436106101355760003560e01c80637a115660116100ab57806399845ab61161006f57806399845ab614610461578063abd5ac7e1461049e578063b7760c8f146104db578063cefedb30146104f7578063d96a094a14610513578063ddca3f431461052f57610135565b80637a115660146103755780638d558cc1146103915780638da5cb5b146103ce5780638ebc0b3c146103f957806395d89b411461043657610135565b806327385b0f116100fd57806327385b0f1461022b5780632b24fa4b1461025657806332bbe1d114610293578063402a71d7146102d05780635e8bdc85146102fb57806370a082311461033857610135565b806306fdde031461013a5780630d874e871461016557806314f29e09146101a257806318160ddd146101e457806323b872dd1461020f575b600080fd5b34801561014657600080fd5b5061014f61055a565b60405161015c9190613582565b60405180910390f35b34801561017157600080fd5b5061018c600480360381019061018791906130a1565b6105e8565b6040516101999190613582565b60405180910390f35b3480156101ae57600080fd5b506101c960048036038101906101c491906130a1565b610696565b6040516101db96959493929190613656565b60405180910390f35b3480156101f057600080fd5b506101f961088a565b604051610206919061363b565b60405180910390f35b61022960048036038101906102249190613052565b610890565b005b34801561023757600080fd5b50610240610a28565b60405161024d9190613545565b60405180910390f35b34801561026257600080fd5b5061027d600480360381019061027891906130a1565b610d88565b60405161028a9190613582565b60405180910390f35b34801561029f57600080fd5b506102ba60048036038101906102b591906131b1565b610e36565b6040516102c79190613567565b60405180910390f35b3480156102dc57600080fd5b506102e5610fbc565b6040516102f2919061363b565b60405180910390f35b34801561030757600080fd5b50610322600480360381019061031d91906131ed565b611003565b60405161032f9190613567565b60405180910390f35b34801561034457600080fd5b5061035f600480360381019061035a9190613029565b611036565b60405161036c919061363b565b60405180910390f35b61038f600480360381019061038a9190613106565b61107f565b005b34801561039d57600080fd5b506103b860048036038101906103b391906130a1565b61122c565b6040516103c591906134a7565b60405180910390f35b3480156103da57600080fd5b506103e3611271565b6040516103f091906134c2565b60405180910390f35b34801561040557600080fd5b50610420600480360381019061041b91906130a1565b611297565b60405161042d919061363b565b60405180910390f35b34801561044257600080fd5b5061044b6112bc565b6040516104589190613582565b60405180910390f35b34801561046d57600080fd5b50610488600480360381019061048391906131ed565b61134a565b6040516104959190613567565b60405180910390f35b3480156104aa57600080fd5b506104c560048036038101906104c091906131b1565b61156b565b6040516104d291906134a7565b60405180910390f35b6104f560048036038101906104f091906130ca565b6115bd565b005b610511600480360381019061050c91906130a1565b611754565b005b61052d600480360381019061052891906130a1565b61192e565b005b34801561053b57600080fd5b50610544611aa3565b60405161055191906134c2565b60405180910390f35b6000805461056790613970565b80601f016020809104026020016040519081016040528092919081815260200182805461059390613970565b80156105e05780601f106105b5576101008083540402835291602001916105e0565b820191906000526020600020905b8154815290600101906020018083116105c357829003601f168201915b505050505081565b6060600060086000848152602001908152602001600020600401805461060d90613970565b80601f016020809104026020016040519081016040528092919081815260200182805461063990613970565b80156106865780601f1061065b57610100808354040283529160200191610686565b820191906000526020600020905b81548152906001019060200180831161066957829003601f168201915b5050505050905080915050919050565b60086020528060005260406000206000915090508060000154908060010160009054906101000a900473ffffffffffffffffffffffffffffffffffffffff16908060020154908060030180546106eb90613970565b80601f016020809104026020016040519081016040528092919081815260200182805461071790613970565b80156107645780601f1061073957610100808354040283529160200191610764565b820191906000526020600020905b81548152906001019060200180831161074757829003601f168201915b50505050509080600401805461077990613970565b80601f01602080910402602001604051908101604052809291908181526020018280546107a590613970565b80156107f25780601f106107c7576101008083540402835291602001916107f2565b820191906000526020600020905b8154815290600101906020018083116107d557829003601f168201915b50505050509080600501805461080790613970565b80601f016020809104026020016040519081016040528092919081815260200182805461083390613970565b80156108805780601f1061085557610100808354040283529160200191610880565b820191906000526020600020905b81548152906001019060200180831161086357829003601f168201915b5050505050905086565b60025481565b600360008473ffffffffffffffffffffffffffffffffffffffff1673ffffffffffffffffffffffffffffffffffffffff16815260200190815260200160002054811115610912576040517f08c379a0000000000000000000000000000000000000000000000000000000008152600401610909906135c4565b60405180910390fd5b80600360008573ffffffffffffffffffffffffffffffffffffffff1673ffffffffffffffffffffffffffffffffffffffff168152602001908152602001600020600082825461096191906138a0565b9250508190555080600360008473ffffffffffffffffffffffffffffffffffffffff1673ffffffffffffffffffffffffffffffffffffffff16815260200190815260200160002060008282546109b791906137bf565b925050819055508173ffffffffffffffffffffffffffffffffffffffff168373ffffffffffffffffffffffffffffffffffffffff167fddf252ad1be2c89b69c2b068fc378daa952ba7f163c4a11628f55a4df523b3ef83604051610a1b919061363b565b60405180910390a3505050565b60606000610a366006611b62565b905060008167ffffffffffffffff811115610a7a577f4e487b7100000000000000000000000000000000000000000000000000000000600052604160045260246000fd5b604051908082528060200260200182016040528015610ab357816020015b610aa0612ea8565b815260200190600190039081610a985790505b5090506000805b83811015610d7e576000600182610ad191906137bf565b90506000600860008381526020019081526020016000209050806040518060c0016040529081600082015481526020016001820160009054906101000a900473ffffffffffffffffffffffffffffffffffffffff1673ffffffffffffffffffffffffffffffffffffffff1673ffffffffffffffffffffffffffffffffffffffff16815260200160028201548152602001600382018054610b7090613970565b80601f0160208091040260200160405190810160405280929190818152602001828054610b9c90613970565b8015610be95780601f10610bbe57610100808354040283529160200191610be9565b820191906000526020600020905b815481529060010190602001808311610bcc57829003601f168201915b50505050508152602001600482018054610c0290613970565b80601f0160208091040260200160405190810160405280929190818152602001828054610c2e90613970565b8015610c7b5780601f10610c5057610100808354040283529160200191610c7b565b820191906000526020600020905b815481529060010190602001808311610c5e57829003601f168201915b50505050508152602001600582018054610c9490613970565b80601f0160208091040260200160405190810160405280929190818152602001828054610cc090613970565b8015610d0d5780601f10610ce257610100808354040283529160200191610d0d565b820191906000526020600020905b815481529060010190602001808311610cf057829003601f168201915b505050505081525050858581518110610d4f577f4e487b7100000000000000000000000000000000000000000000000000000000600052603260045260246000fd5b6020026020010181905250600184610d6791906137bf565b935050508080610d76906139d3565b915050610aba565b5081935050505090565b60606000600860008481526020019081526020016000206003018054610dad90613970565b80601f0160208091040260200160405190810160405280929190818152602001828054610dd990613970565b8015610e265780601f10610dfb57610100808354040283529160200191610e26565b820191906000526020600020905b815481529060010190602001808311610e0957829003601f168201915b5050505050905080915050919050565b60003373ffffffffffffffffffffffffffffffffffffffff166008600085815260200190815260200160002060010160009054906101000a900473ffffffffffffffffffffffffffffffffffffffff1673ffffffffffffffffffffffffffffffffffffffff1614610edc576040517f08c379a0000000000000000000000000000000000000000000000000000000008152600401610ed3906135a4565b60405180910390fd5b610f018260096000868152602001908152602001600020611b7090919063ffffffff16565b60005b600b6000848152602001908152602001600020548111610fb157600a600085815260200190815260200160002060006305265c0083610f439190613846565b85610f4e91906137bf565b81526020019081526020016000206000808201600090556001820160006101000a81549073ffffffffffffffffffffffffffffffffffffffff02191690556002820160009055600382016000905550508080610fa9906139d3565b915050610f04565b506001905092915050565b6000600360003373ffffffffffffffffffffffffffffffffffffffff1673ffffffffffffffffffffffffffffffffffffffff16815260200190815260200160002054905090565b600061102c838360096000888152602001908152602001600020611f209092919063ffffffff16565b1590509392505050565b6000600360008373ffffffffffffffffffffffffffffffffffffffff1673ffffffffffffffffffffffffffffffffffffffff168152602001908152602001600020549050919050565b600084116110c2576040517f08c379a00000000000000000000000000000000000000000000000000000000081526004016110b9906135e4565b60405180910390fd5b6110cc600661205b565b60006110d86006611b62565b90506040518060c001604052808281526020013373ffffffffffffffffffffffffffffffffffffffff16815260200186815260200185815260200184815260200183815250600860008381526020019081526020016000206000820151816000015560208201518160010160006101000a81548173ffffffffffffffffffffffffffffffffffffffff021916908373ffffffffffffffffffffffffffffffffffffffff1602179055506040820151816002015560608201518160030190805190602001906111a7929190612ef4565b5060808201518160040190805190602001906111c4929190612ef4565b5060a08201518160050190805190602001906111e1929190612ef4565b50905050807feef9b1e7780b63a4cf78c5760271b0a27339557e3e65e8c88b657746baa269ec338787878760405161121d9594939291906134dd565b60405180910390a25050505050565b6000806008600084815260200190815260200160002060010160009054906101000a900473ffffffffffffffffffffffffffffffffffffffff16905080915050919050565b600760009054906101000a900473ffffffffffffffffffffffffffffffffffffffff1681565b6000806008600084815260200190815260200160002060020154905080915050919050565b600180546112c990613970565b80601f01602080910402602001604051908101604052809291908181526020018280546112f590613970565b80156113425780601f1061131757610100808354040283529160200191611342565b820191906000526020600020905b81548152906001019060200180831161132557829003601f168201915b505050505081565b60006009600085815260200190815260200160002073__$478e176f5354f019de4ce4f43e62e06632$__639cc99d18909185856040518463ffffffff1660e01b815260040161139b93929190613604565b60006040518083038186803b1580156113b357600080fd5b505af41580156113c7573d6000803e3d6000fd5b50505050600060405180608001604052808681526020013373ffffffffffffffffffffffffffffffffffffffff1681526020018581526020018481525090506000848461141491906138a0565b9050611424816305265c00612071565b905061142f816120bb565b60005b8181116114f35782600a600089815260200190815260200160002060006305265c008461145f9190613846565b8961146a91906137bf565b81526020019081526020016000206000820151816000015560208201518160010160006101000a81548173ffffffffffffffffffffffffffffffffffffffff021916908373ffffffffffffffffffffffffffffffffffffffff160217905550604082015181600201556060820151816003015590505080806114eb906139d3565b915050611432565b5080600b6000878152602001908152602001600020819055503373ffffffffffffffffffffffffffffffffffffffff167fbefb16c2a93dbe0a03b9b2077a6ad523c9b6e03d372a3c1316352f7a3b41f943878787604051611556939291906136cc565b60405180910390a26001925050509392505050565b6000600a6000848152602001908152602001600020600083815260200190815260200160002060010160009054906101000a900473ffffffffffffffffffffffffffffffffffffffff16905092915050565b81600360003373ffffffffffffffffffffffffffffffffffffffff1673ffffffffffffffffffffffffffffffffffffffff16815260200190815260200160002054101561163f576040517f08c379a0000000000000000000000000000000000000000000000000000000008152600401611636906135c4565b60405180910390fd5b81600360003373ffffffffffffffffffffffffffffffffffffffff1673ffffffffffffffffffffffffffffffffffffffff168152602001908152602001600020600082825461168e91906138a0565b9250508190555081600360008373ffffffffffffffffffffffffffffffffffffffff1673ffffffffffffffffffffffffffffffffffffffff16815260200190815260200160002060008282546116e491906137bf565b925050819055508073ffffffffffffffffffffffffffffffffffffffff163373ffffffffffffffffffffffffffffffffffffffff167fddf252ad1be2c89b69c2b068fc378daa952ba7f163c4a11628f55a4df523b3ef84604051611748919061363b565b60405180910390a35050565b80600360003373ffffffffffffffffffffffffffffffffffffffff1673ffffffffffffffffffffffffffffffffffffffff1681526020019081526020016000205410156117d6576040517f08c379a00000000000000000000000000000000000000000000000000000000081526004016117cd906135c4565b60405180910390fd5b80600360003373ffffffffffffffffffffffffffffffffffffffff1673ffffffffffffffffffffffffffffffffffffffff168152602001908152602001600020600082825461182591906138a0565b925050819055508060036000600460009054906101000a900473ffffffffffffffffffffffffffffffffffffffff1673ffffffffffffffffffffffffffffffffffffffff1673ffffffffffffffffffffffffffffffffffffffff168152602001908152602001600020600082825461189d91906137bf565b92505081905550600460009054906101000a900473ffffffffffffffffffffffffffffffffffffffff1673ffffffffffffffffffffffffffffffffffffffff163373ffffffffffffffffffffffffffffffffffffffff167fddf252ad1be2c89b69c2b068fc378daa952ba7f163c4a11628f55a4df523b3ef83604051611923919061363b565b60405180910390a350565b8060036000600560009054906101000a900473ffffffffffffffffffffffffffffffffffffffff1673ffffffffffffffffffffffffffffffffffffffff1673ffffffffffffffffffffffffffffffffffffffff1681526020019081526020016000205410156119d2576040517f08c379a00000000000000000000000000000000000000000000000000000000081526004016119c9906135c4565b60405180910390fd5b80600360003373ffffffffffffffffffffffffffffffffffffffff1673ffffffffffffffffffffffffffffffffffffffff1681526020019081526020016000206000828254611a2191906137bf565b925050819055508060036000600560009054906101000a900473ffffffffffffffffffffffffffffffffffffffff1673ffffffffffffffffffffffffffffffffffffffff1673ffffffffffffffffffffffffffffffffffffffff1681526020019081526020016000206000828254611a9991906138a0565b9250508190555050565b600460009054906101000a900473ffffffffffffffffffffffffffffffffffffffff1681565b611b5f81604051602401611add9190613582565b6040516020818303038152906040527f41304fac000000000000000000000000000000000000000000000000000000007bffffffffffffffffffffffffffffffffffffffffffffffffffffffff19166020820180517bffffffffffffffffffffffffffffffffffffffffffffffffffffffff8381831617835250505050612154565b50565b600081600001549050919050565b6000811415611b7e57600080fd5b611b88828261217d565b611b9157600080fd5b6000806000846001016000858152602001908152602001600020600101541480611bd35750600084600101600085815260200190815260200160002060020154145b15611be057829050611c3d565b8360010160008481526020019081526020016000206002015490505b60008460010160008381526020019081526020016000206001015414611c3c57836001016000828152602001908152602001600020600101549050611bfc565b5b60008460010160008381526020019081526020016000206001015414611c7d57836001016000828152602001908152602001600020600101549150611c99565b8360010160008281526020019081526020016000206002015491505b6000846001016000838152602001908152602001600020600001549050808560010160008581526020019081526020016000206000018190555060008114611d405784600101600082815260200190815260200160002060010154821415611d1d578285600101600083815260200190815260200160002060010181905550611d3b565b82856001016000838152602001908152602001600020600201819055505b611d4a565b8285600001819055505b600085600101600084815260200190815260200160002060040160009054906101000a900460ff16159050848314611ebb57611d878684876121be565b856001016000868152602001908152602001600020600101548660010160008581526020019081526020016000206001018190555082866001016000886001016000878152602001908152602001600020600101548152602001908152602001600020600001819055508560010160008681526020019081526020016000206002015486600101600085815260200190815260200160002060020181905550828660010160008860010160008781526020019081526020016000206002015481526020019081526020016000206000018190555085600101600086815260200190815260200160002060040160009054906101000a900460ff1686600101600085815260200190815260200160002060040160006101000a81548160ff021916908315150217905550848380965081945050505b8015611ecc57611ecb8685612276565b5b8560010160008481526020019081526020016000206000808201600090556001820160009055600282016000905560038201600090556004820160006101000a81549060ff02191690555050505050505050565b600080831415611f2f57600080fd5b611f39848461217d565b15611f4357600080fd5b6000611f4f85856129de565b90506000811415611f64576000915050612054565b60008560010160008381526020019081526020016000206040518060a0016040529081600082015481526020016001820154815260200160028201548152602001600382015481526020016004820160009054906101000a900460ff16151515158152505090508185101561201c576000611fdf8784612a4e565b9050600087600101600083815260200190815260200160002060030154905060008487118061200d57508188105b90508095505050505050612054565b60006120288784612a4e565b90506000826060015187108061204a57506000821415801561204957508186115b5b9050809450505050505b9392505050565b6001816000016000828254019250508190555050565b60006120b383836040518060400160405280601a81526020017f536166654d6174683a206469766973696f6e206279207a65726f000000000000815250612b19565b905092915050565b612151816040516024016120cf919061363b565b6040516020818303038152906040527ff5b1bba9000000000000000000000000000000000000000000000000000000007bffffffffffffffffffffffffffffffffffffffffffffffffffffffff19166020820180517bffffffffffffffffffffffffffffffffffffffffffffffffffffffff8381831617835250505050612154565b50565b60008151905060006a636f6e736f6c652e6c6f679050602083016000808483855afa5050505050565b60008082141580156121b6575082600001548214806121b5575060008360010160008481526020019081526020016000206000015414155b5b905092915050565b60008360010160008381526020019081526020016000206000015490508084600101600085815260200190815260200160002060000181905550600081141561220f57828460000181905550612270565b8360010160008281526020019081526020016000206001015482141561225157828460010160008381526020019081526020016000206001018190555061226f565b82846001016000838152602001908152602001600020600201819055505b5b50505050565b60005b826000015482141580156122b0575082600101600083815260200190815260200160002060040160009054906101000a900460ff16155b156129a85760008360010160008481526020019081526020016000206000015490508360010160008281526020019081526020016000206001015483141561264c5783600101600082815260200190815260200160002060020154915083600101600083815260200190815260200160002060040160009054906101000a900460ff16156123c057600084600101600084815260200190815260200160002060040160006101000a81548160ff021916908315150217905550600184600101600083815260200190815260200160002060040160006101000a81548160ff0219169083151502179055506123a48482612b7c565b8360010160008281526020019081526020016000206002015491505b83600101600085600101600085815260200190815260200160002060010154815260200190815260200160002060040160009054906101000a900460ff16158015612446575083600101600085600101600085815260200190815260200160002060020154815260200190815260200160002060040160009054906101000a900460ff16155b1561248457600184600101600084815260200190815260200160002060040160006101000a81548160ff021916908315150217905550809250612647565b83600101600085600101600085815260200190815260200160002060020154815260200190815260200160002060040160009054906101000a900460ff1661256657600084600101600086600101600086815260200190815260200160002060010154815260200190815260200160002060040160006101000a81548160ff021916908315150217905550600184600101600084815260200190815260200160002060040160006101000a81548160ff02191690831515021790555061254a8483612cec565b8360010160008281526020019081526020016000206002015491505b83600101600082815260200190815260200160002060040160009054906101000a900460ff1684600101600084815260200190815260200160002060040160006101000a81548160ff021916908315150217905550600084600101600083815260200190815260200160002060040160006101000a81548160ff021916908315150217905550600084600101600086600101600086815260200190815260200160002060020154815260200190815260200160002060040160006101000a81548160ff02191690831515021790555061263f8482612b7c565b836000015492505b6129a2565b83600101600082815260200190815260200160002060010154915083600101600083815260200190815260200160002060040160009054906101000a900460ff161561271a57600084600101600084815260200190815260200160002060040160006101000a81548160ff021916908315150217905550600184600101600083815260200190815260200160002060040160006101000a81548160ff0219169083151502179055506126fe8482612cec565b8360010160008281526020019081526020016000206001015491505b83600101600085600101600085815260200190815260200160002060020154815260200190815260200160002060040160009054906101000a900460ff161580156127a0575083600101600085600101600085815260200190815260200160002060010154815260200190815260200160002060040160009054906101000a900460ff16155b156127de57600184600101600084815260200190815260200160002060040160006101000a81548160ff0219169083151502179055508092506129a1565b83600101600085600101600085815260200190815260200160002060010154815260200190815260200160002060040160009054906101000a900460ff166128c057600084600101600086600101600086815260200190815260200160002060020154815260200190815260200160002060040160006101000a81548160ff021916908315150217905550600184600101600084815260200190815260200160002060040160006101000a81548160ff0219169083151502179055506128a48483612b7c565b8360010160008281526020019081526020016000206001015491505b83600101600082815260200190815260200160002060040160009054906101000a900460ff1684600101600084815260200190815260200160002060040160006101000a81548160ff021916908315150217905550600084600101600083815260200190815260200160002060040160006101000a81548160ff021916908315150217905550600084600101600086600101600086815260200190815260200160002060010154815260200190815260200160002060040160006101000a81548160ff0219169083151502179055506129998482612cec565b836000015492505b5b50612279565b600083600101600084815260200190815260200160002060040160006101000a81548160ff021916908315150217905550505050565b600080600090506000846000015490505b60008114612a435780915080841015612a2257846001016000828152602001908152602001600020600101549050612a3e565b8460010160008281526020019081526020016000206002015490505b6129ef565b819250505092915050565b600080821415612a5d57600080fd5b60008360010160008481526020019081526020016000206001015414612aa657612a9f8384600101600085815260200190815260200160002060010154612e5c565b9050612b13565b8260010160008381526020019081526020016000206000015490505b60008114158015612aea57508260010160008281526020019081526020016000206001015482145b15612b1257809150826001016000828152602001908152602001600020600001549050612ac2565b5b92915050565b60008083118290612b60576040517f08c379a0000000000000000000000000000000000000000000000000000000008152600401612b579190613582565b60405180910390fd5b5060008385612b6f9190613815565b9050809150509392505050565b600082600101600083815260200190815260200160002060020154905060008360010160008481526020019081526020016000206000015490506000846001016000848152602001908152602001600020600101549050808560010160008681526020019081526020016000206002018190555060008114612c165783856001016000838152602001908152602001600020600001819055505b81856001016000858152602001908152602001600020600001819055506000821415612c4a57828560000181905550612cab565b84600101600083815260200190815260200160002060010154841415612c8c578285600101600084815260200190815260200160002060010181905550612caa565b82856001016000848152602001908152602001600020600201819055505b5b838560010160008581526020019081526020016000206001018190555082856001016000868152602001908152602001600020600001819055505050505050565b600082600101600083815260200190815260200160002060010154905060008360010160008481526020019081526020016000206000015490506000846001016000848152602001908152602001600020600201549050808560010160008681526020019081526020016000206001018190555060008114612d865783856001016000838152602001908152602001600020600001819055505b81856001016000858152602001908152602001600020600001819055506000821415612dba57828560000181905550612e1b565b84600101600083815260200190815260200160002060020154841415612dfc578285600101600084815260200190815260200160002060020181905550612e1a565b82856001016000848152602001908152602001600020600101819055505b5b838560010160008581526020019081526020016000206002018190555082856001016000868152602001908152602001600020600001819055505050505050565b60005b60008360010160008481526020019081526020016000206002015414612e9f57826001016000838152602001908152602001600020600201549150612e5f565b81905092915050565b6040518060c0016040528060008152602001600073ffffffffffffffffffffffffffffffffffffffff168152602001600081526020016060815260200160608152602001606081525090565b828054612f0090613970565b90600052602060002090601f016020900481019282612f225760008555612f69565b82601f10612f3b57805160ff1916838001178555612f69565b82800160010185558215612f69579182015b82811115612f68578251825591602001919060010190612f4d565b5b509050612f769190612f7a565b5090565b5b80821115612f93576000816000905550600101612f7b565b5090565b6000612faa612fa584613728565b613703565b905082815260208101848484011115612fc257600080fd5b612fcd84828561392e565b509392505050565b600081359050612fe481613b64565b92915050565b600082601f830112612ffb57600080fd5b813561300b848260208601612f97565b91505092915050565b60008135905061302381613b7b565b92915050565b60006020828403121561303b57600080fd5b600061304984828501612fd5565b91505092915050565b60008060006060848603121561306757600080fd5b600061307586828701612fd5565b935050602061308686828701612fd5565b925050604061309786828701613014565b9150509250925092565b6000602082840312156130b357600080fd5b60006130c184828501613014565b91505092915050565b600080604083850312156130dd57600080fd5b60006130eb85828601613014565b92505060206130fc85828601612fd5565b9150509250929050565b6000806000806080858703121561311c57600080fd5b600061312a87828801613014565b945050602085013567ffffffffffffffff81111561314757600080fd5b61315387828801612fea565b935050604085013567ffffffffffffffff81111561317057600080fd5b61317c87828801612fea565b925050606085013567ffffffffffffffff81111561319957600080fd5b6131a587828801612fea565b91505092959194509250565b600080604083850312156131c457600080fd5b60006131d285828601613014565b92505060206131e385828601613014565b9150509250929050565b60008060006060848603121561320257600080fd5b600061321086828701613014565b935050602061322186828701613014565b925050604061323286828701613014565b9150509250925092565b600061324883836133dc565b905092915050565b613259816138e6565b82525050565b613268816138e6565b82525050565b613277816138d4565b82525050565b600061328882613769565b613292818561378c565b9350836020820285016132a485613759565b8060005b858110156132e057848403895281516132c1858261323c565b94506132cc8361377f565b925060208a019950506001810190506132a8565b50829750879550505050505092915050565b6132fb816138f8565b82525050565b600061330c82613774565b613316818561379d565b935061332681856020860161393d565b61332f81613ad8565b840191505092915050565b600061334582613774565b61334f81856137ae565b935061335f81856020860161393d565b61336881613ad8565b840191505092915050565b6000613380600d836137ae565b915061338b82613ae9565b602082019050919050565b60006133a36011836137ae565b91506133ae82613b12565b602082019050919050565b60006133c6601c836137ae565b91506133d182613b3b565b602082019050919050565b600060c0830160008301516133f4600086018261347a565b5060208301516134076020860182613250565b50604083015161341a604086018261347a565b50606083015184820360608601526134328282613301565b9150506080830151848203608086015261344c8282613301565b91505060a083015184820360a08601526134668282613301565b9150508091505092915050565b8082525050565b61348381613924565b82525050565b61349281613924565b82525050565b6134a181613924565b82525050565b60006020820190506134bc600083018461326e565b92915050565b60006020820190506134d7600083018461325f565b92915050565b600060a0820190506134f2600083018861326e565b6134ff6020830187613489565b8181036040830152613511818661333a565b90508181036060830152613525818561333a565b90508181036080830152613539818461333a565b90509695505050505050565b6000602082019050818103600083015261355f818461327d565b905092915050565b600060208201905061357c60008301846132f2565b92915050565b6000602082019050818103600083015261359c818461333a565b905092915050565b600060208201905081810360008301526135bd81613373565b9050919050565b600060208201905081810360008301526135dd81613396565b9050919050565b600060208201905081810360008301526135fd816133b9565b9050919050565b60006060820190506136196000830186613473565b6136266020830185613498565b6136336040830184613498565b949350505050565b60006020820190506136506000830184613489565b92915050565b600060c08201905061366b6000830189613489565b613678602083018861325f565b6136856040830187613489565b8181036060830152613697818661333a565b905081810360808301526136ab818561333a565b905081810360a08301526136bf818461333a565b9050979650505050505050565b60006060820190506136e16000830186613489565b6136ee6020830185613489565b6136fb6040830184613489565b949350505050565b600061370d61371e565b905061371982826139a2565b919050565b6000604051905090565b600067ffffffffffffffff82111561374357613742613aa9565b5b61374c82613ad8565b9050602081019050919050565b6000819050602082019050919050565b600081519050919050565b600081519050919050565b6000602082019050919050565b600082825260208201905092915050565b600082825260208201905092915050565b600082825260208201905092915050565b60006137ca82613924565b91506137d583613924565b9250827fffffffffffffffffffffffffffffffffffffffffffffffffffffffffffffffff0382111561380a57613809613a1c565b5b828201905092915050565b600061382082613924565b915061382b83613924565b92508261383b5761383a613a4b565b5b828204905092915050565b600061385182613924565b915061385c83613924565b9250817fffffffffffffffffffffffffffffffffffffffffffffffffffffffffffffffff048311821515161561389557613894613a1c565b5b828202905092915050565b60006138ab82613924565b91506138b683613924565b9250828210156138c9576138c8613a1c565b5b828203905092915050565b60006138df82613904565b9050919050565b60006138f182613904565b9050919050565b60008115159050919050565b600073ffffffffffffffffffffffffffffffffffffffff82169050919050565b6000819050919050565b82818337600083830152505050565b60005b8381101561395b578082015181840152602081019050613940565b8381111561396a576000848401525b50505050565b6000600282049050600182168061398857607f821691505b6020821081141561399c5761399b613a7a565b5b50919050565b6139ab82613ad8565b810181811067ffffffffffffffff821117156139ca576139c9613aa9565b5b80604052505050565b60006139de82613924565b91507fffffffffffffffffffffffffffffffffffffffffffffffffffffffffffffffff821415613a1157613a10613a1c565b5b600182019050919050565b7f4e487b7100000000000000000000000000000000000000000000000000000000600052601160045260246000fd5b7f4e487b7100000000000000000000000000000000000000000000000000000000600052601260045260246000fd5b7f4e487b7100000000000000000000000000000000000000000000000000000000600052602260045260246000fd5b7f4e487b7100000000000000000000000000000000000000000000000000000000600052604160045260246000fd5b6000601f19601f8301169050919050565b7f4e6f7420746865206f776e657200000000000000000000000000000000000000600082015250565b7f4e6f7420656e6f75676820746f6b656e73000000000000000000000000000000600082015250565b7f5072696365206d757374206265206174206c6561737420312077656900000000600082015250565b613b6d816138d4565b8114613b7857600080fd5b50565b613b8481613924565b8114613b8f57600080fd5b5056fea2646970667358221220b11922523a9747af2c70a5016a698d32cf9c8223419f61f714ec05d63df883a564736f6c63430008040033446563656e7472616c697a65642041706172746d656e742052656e74696e6720546f6b656e",
  "linkReferences": {
    "contracts/RivalIntervalTree.sol": {
      "RivalIntervalTreeLibrary": [
        {
          "length": 20,
          "start": 6177
        }
      ]
    }
  },
  "deployedLinkReferences": {
    "contracts/RivalIntervalTree.sol": {
      "RivalIntervalTreeLibrary": [
        {
          "length": 20,
          "start": 4961
        }
      ]
    }
  }
}