{
  "_format": "hh-sol-artifact-1",
  "contractName": "CreateApartment",
  "sourceName": "contracts/CreateApartment.sol",
  "abi": [
    {
      "inputs": [],
      "stateMutability": "nonpayable",
      "type": "constructor"
    },
    {
      "anonymous": false,
      "inputs": [
        {
          "indexed": true,
          "internalType": "uint256",
          "name": "apartmentsId",
          "type": "uint256"
        },
        {
          "indexed": false,
          "internalType": "address",
          "name": "ownerAp",
          "type": "address"
        },
        {
          "indexed": false,
          "internalType": "address",
          "name": "renterAp",
          "type": "address"
        },
        {
          "indexed": false,
          "internalType": "uint256",
          "name": "price",
          "type": "uint256"
        },
        {
          "indexed": false,
          "internalType": "bool",
          "name": "rented",
          "type": "bool"
        }
      ],
      "name": "ApartmentCreated",
      "type": "event"
    },
    {
      "inputs": [
        {
          "internalType": "uint256",
          "name": "_apartmentId",
          "type": "uint256"
        }
      ],
      "name": "apartmentOwner",
      "outputs": [
        {
          "internalType": "address",
          "name": "",
          "type": "address"
        }
      ],
      "stateMutability": "view",
      "type": "function"
    },
    {
      "inputs": [
        {
          "internalType": "uint256",
          "name": "_apartmentId",
          "type": "uint256"
        }
      ],
      "name": "apartmentPrice",
      "outputs": [
        {
          "internalType": "uint256",
          "name": "",
          "type": "uint256"
        }
      ],
      "stateMutability": "view",
      "type": "function"
    },
    {
      "inputs": [
        {
          "internalType": "uint256",
          "name": "_price",
          "type": "uint256"
        }
      ],
      "name": "createApartment",
      "outputs": [],
      "stateMutability": "payable",
      "type": "function"
    },
    {
      "inputs": [
        {
          "internalType": "uint256",
          "name": "",
          "type": "uint256"
        }
      ],
      "name": "idToApartment",
      "outputs": [
        {
          "internalType": "uint256",
          "name": "apartmentsId",
          "type": "uint256"
        },
        {
          "internalType": "address payable",
          "name": "ownerAp",
          "type": "address"
        },
        {
          "internalType": "address payable",
          "name": "renterAp",
          "type": "address"
        },
        {
          "internalType": "uint256",
          "name": "price",
          "type": "uint256"
        },
        {
          "internalType": "bool",
          "name": "rented",
          "type": "bool"
        }
      ],
      "stateMutability": "view",
      "type": "function"
    },
    {
      "inputs": [],
      "name": "owner",
      "outputs": [
        {
          "internalType": "address payable",
          "name": "",
          "type": "address"
        }
      ],
      "stateMutability": "view",
      "type": "function"
    }
  ],
  "bytecode": "0x608060405234801561001057600080fd5b506100596040518060400160405280601f81526020017f4372656174696e67206e65772061706172746d656e7420666163746f72793a0081525061009f60201b6104321760201c565b33600160006101000a81548173ffffffffffffffffffffffffffffffffffffffff021916908373ffffffffffffffffffffffffffffffffffffffff160217905550610222565b61013b816040516024016100b391906101a0565b6040516020818303038152906040527f41304fac000000000000000000000000000000000000000000000000000000007bffffffffffffffffffffffffffffffffffffffffffffffffffffffff19166020820180517bffffffffffffffffffffffffffffffffffffffffffffffffffffffff838183161783525050505061013e60201b60201c565b50565b60008151905060006a636f6e736f6c652e6c6f679050602083016000808483855afa5050505050565b6000610172826101c2565b61017c81856101cd565b935061018c8185602086016101de565b61019581610211565b840191505092915050565b600060208201905081810360008301526101ba8184610167565b905092915050565b600081519050919050565b600082825260208201905092915050565b60005b838110156101fc5780820151818401526020810190506101e1565b8381111561020b576000848401525b50505050565b6000601f19601f8301169050919050565b610849806102316000396000f3fe60806040526004361061004a5760003560e01c806314f29e091461004f57806340c8b20c146100905780638da5cb5b146100ac578063ec52a592146100d7578063fe5ec9ba14610114575b600080fd5b34801561005b57600080fd5b506100766004803603810190610071919061052d565b610151565b6040516100879594939291906106c6565b60405180910390f35b6100aa60048036038101906100a5919061052d565b6101d4565b005b3480156100b857600080fd5b506100c16103a2565b6040516100ce9190610609565b60405180910390f35b3480156100e357600080fd5b506100fe60048036038101906100f9919061052d565b6103c8565b60405161010b91906106ab565b60405180910390f35b34801561012057600080fd5b5061013b6004803603810190610136919061052d565b6103ed565b60405161014891906105ee565b60405180910390f35b60026020528060005260406000206000915090508060000154908060010160009054906101000a900473ffffffffffffffffffffffffffffffffffffffff16908060020160009054906101000a900473ffffffffffffffffffffffffffffffffffffffff16908060030154908060040160009054906101000a900460ff16905085565b60008111610217576040517f08c379a000000000000000000000000000000000000000000000000000000000815260040161020e9061068b565b60405180910390fd5b61022160006104cb565b600061022d60006104e1565b90506040518060a001604052808281526020013373ffffffffffffffffffffffffffffffffffffffff168152602001600073ffffffffffffffffffffffffffffffffffffffff16815260200183815260200160001515815250600260008381526020019081526020016000206000820151816000015560208201518160010160006101000a81548173ffffffffffffffffffffffffffffffffffffffff021916908373ffffffffffffffffffffffffffffffffffffffff16021790555060408201518160020160006101000a81548173ffffffffffffffffffffffffffffffffffffffff021916908373ffffffffffffffffffffffffffffffffffffffff1602179055506060820151816003015560808201518160040160006101000a81548160ff021916908315150217905550905050807f2439c9df5317aa6c4c3639e0e0b3f2cdacd6daf5f5393cbf2142da87441a67f93360008560006040516103969493929190610624565b60405180910390a25050565b600160009054906101000a900473ffffffffffffffffffffffffffffffffffffffff1681565b6000806002600084815260200190815260200160002060030154905080915050919050565b6000806002600084815260200190815260200160002060010160009054906101000a900473ffffffffffffffffffffffffffffffffffffffff16905080915050919050565b6104c8816040516024016104469190610669565b6040516020818303038152906040527f41304fac000000000000000000000000000000000000000000000000000000007bffffffffffffffffffffffffffffffffffffffffffffffffffffffff19166020820180517bffffffffffffffffffffffffffffffffffffffffffffffffffffffff83818316178352505050506104ef565b50565b6001816000016000828254019250508190555050565b600081600001549050919050565b60008151905060006a636f6e736f6c652e6c6f679050602083016000808483855afa5050505050565b600081359050610527816107fc565b92915050565b60006020828403121561053f57600080fd5b600061054d84828501610518565b91505092915050565b61055f81610747565b82525050565b61056e81610735565b82525050565b61057d81610759565b82525050565b600061058e82610719565b6105988185610724565b93506105a881856020860161078f565b6105b1816107c2565b840191505092915050565b60006105c9601c83610724565b91506105d4826107d3565b602082019050919050565b6105e881610785565b82525050565b60006020820190506106036000830184610565565b92915050565b600060208201905061061e6000830184610556565b92915050565b60006080820190506106396000830187610565565b6106466020830186610565565b61065360408301856105df565b6106606060830184610574565b95945050505050565b600060208201905081810360008301526106838184610583565b905092915050565b600060208201905081810360008301526106a4816105bc565b9050919050565b60006020820190506106c060008301846105df565b92915050565b600060a0820190506106db60008301886105df565b6106e86020830187610556565b6106f56040830186610556565b61070260608301856105df565b61070f6080830184610574565b9695505050505050565b600081519050919050565b600082825260208201905092915050565b600061074082610765565b9050919050565b600061075282610765565b9050919050565b60008115159050919050565b600073ffffffffffffffffffffffffffffffffffffffff82169050919050565b6000819050919050565b60005b838110156107ad578082015181840152602081019050610792565b838111156107bc576000848401525b50505050565b6000601f19601f8301169050919050565b7f5072696365206d757374206265206174206c6561737420312077656900000000600082015250565b61080581610785565b811461081057600080fd5b5056fea26469706673582212201bc95c814471f417a2ffd2cc03e37cce66c0a0a21dcd9357070a2ccfbe7d109864736f6c63430008040033",
  "linkReferences": {},
  "deployedLinkReferences": {}
}