{
  "_format": "hh-sol-artifact-1",
  "contractName": "CreateApartment",
  "sourceName": "contracts/CreateApartment.sol",
  "abi": [
    {
      "inputs": [],
      "stateMutability": "nonpayable",
      "type": "constructor"
    },
    {
      "anonymous": false,
      "inputs": [
        {
          "indexed": true,
          "internalType": "uint256",
          "name": "apartmentsId",
          "type": "uint256"
        },
        {
          "indexed": false,
          "internalType": "address",
          "name": "ownerAp",
          "type": "address"
        },
        {
          "indexed": false,
          "internalType": "address",
          "name": "renter",
          "type": "address"
        },
        {
          "indexed": false,
          "internalType": "uint256",
          "name": "price",
          "type": "uint256"
        },
        {
          "indexed": false,
          "internalType": "bool",
          "name": "rented",
          "type": "bool"
        }
      ],
      "name": "ApartmentCreated",
      "type": "event"
    },
    {
      "inputs": [
        {
          "internalType": "uint256",
          "name": "_apartmentId",
          "type": "uint256"
        }
      ],
      "name": "apartmentOwner",
      "outputs": [
        {
          "internalType": "address",
          "name": "",
          "type": "address"
        }
      ],
      "stateMutability": "view",
      "type": "function"
    },
    {
      "inputs": [
        {
          "internalType": "uint256",
          "name": "_apartmentId",
          "type": "uint256"
        }
      ],
      "name": "apartmentPrice",
      "outputs": [
        {
          "internalType": "uint256",
          "name": "",
          "type": "uint256"
        }
      ],
      "stateMutability": "view",
      "type": "function"
    },
    {
      "inputs": [
        {
          "internalType": "uint256",
          "name": "_price",
          "type": "uint256"
        }
      ],
      "name": "createApartment",
      "outputs": [],
      "stateMutability": "payable",
      "type": "function"
    },
    {
      "inputs": [
        {
          "internalType": "uint256",
          "name": "",
          "type": "uint256"
        }
      ],
      "name": "idToApartment",
      "outputs": [
        {
          "internalType": "uint256",
          "name": "apartmentsId",
          "type": "uint256"
        },
        {
          "internalType": "address payable",
          "name": "ownerAp",
          "type": "address"
        },
        {
          "internalType": "address payable",
          "name": "renter",
          "type": "address"
        },
        {
          "internalType": "uint256",
          "name": "price",
          "type": "uint256"
        },
        {
          "internalType": "bool",
          "name": "rented",
          "type": "bool"
        }
      ],
      "stateMutability": "view",
      "type": "function"
    },
    {
      "inputs": [],
      "name": "name",
      "outputs": [
        {
          "internalType": "string",
          "name": "",
          "type": "string"
        }
      ],
      "stateMutability": "view",
      "type": "function"
    },
    {
      "inputs": [],
      "name": "owner",
      "outputs": [
        {
          "internalType": "address payable",
          "name": "",
          "type": "address"
        }
      ],
      "stateMutability": "view",
      "type": "function"
    },
    {
      "inputs": [],
      "name": "symbol",
      "outputs": [
        {
          "internalType": "string",
          "name": "",
          "type": "string"
        }
      ],
      "stateMutability": "view",
      "type": "function"
    },
    {
      "inputs": [],
      "name": "to",
      "outputs": [
        {
          "internalType": "address",
          "name": "",
          "type": "address"
        }
      ],
      "stateMutability": "view",
      "type": "function"
    },
    {
      "inputs": [],
      "name": "totalSupply",
      "outputs": [
        {
          "internalType": "uint256",
          "name": "",
          "type": "uint256"
        }
      ],
      "stateMutability": "view",
      "type": "function"
    },
    {
      "inputs": [
        {
          "internalType": "uint256",
          "name": "_amount",
          "type": "uint256"
        },
        {
          "internalType": "address",
          "name": "_to",
          "type": "address"
        }
      ],
      "name": "transferTokenRent",
      "outputs": [],
      "stateMutability": "payable",
      "type": "function"
    },
    {
      "inputs": [
        {
          "internalType": "uint256",
          "name": "_amount",
          "type": "uint256"
        }
      ],
      "name": "transferfee",
      "outputs": [],
      "stateMutability": "payable",
      "type": "function"
    }
  ],
  "bytecode": "0x60806040526040518060400160405280600f81526020017f446563656e74426e6220546f6b656e00000000000000000000000000000000008152506000908051906020019062000051929190620002ae565b506040518060400160405280600381526020017f4443420000000000000000000000000000000000000000000000000000000000815250600190805190602001906200009f929190620002ae565b50620f4240600255738626f6940e2eb28930efb4cef49b2d1f2c9c1199600460006101000a81548173ffffffffffffffffffffffffffffffffffffffff021916908373ffffffffffffffffffffffffffffffffffffffff1602179055503480156200010957600080fd5b50600254600360003373ffffffffffffffffffffffffffffffffffffffff1673ffffffffffffffffffffffffffffffffffffffff168152602001908152602001600020819055506200019b6040518060400160405280601f81526020017f4372656174696e67206e65772061706172746d656e7420666163746f72793a00815250620001e260201b620009351760201c565b33600660006101000a81548173ffffffffffffffffffffffffffffffffffffffff021916908373ffffffffffffffffffffffffffffffffffffffff1602179055506200048b565b6200028281604051602401620001f991906200039f565b6040516020818303038152906040527f41304fac000000000000000000000000000000000000000000000000000000007bffffffffffffffffffffffffffffffffffffffffffffffffffffffff19166020820180517bffffffffffffffffffffffffffffffffffffffffffffffffffffffff83818316178352505050506200028560201b60201c565b50565b60008151905060006a636f6e736f6c652e6c6f679050602083016000808483855afa5050505050565b828054620002bc9062000415565b90600052602060002090601f016020900481019282620002e057600085556200032c565b82601f10620002fb57805160ff19168380011785556200032c565b828001600101855582156200032c579182015b828111156200032b5782518255916020019190600101906200030e565b5b5090506200033b91906200033f565b5090565b5b808211156200035a57600081600090555060010162000340565b5090565b60006200036b82620003c3565b620003778185620003ce565b935062000389818560208601620003df565b62000394816200047a565b840191505092915050565b60006020820190508181036000830152620003bb81846200035e565b905092915050565b600081519050919050565b600082825260208201905092915050565b60005b83811015620003ff578082015181840152602081019050620003e2565b838111156200040f576000848401525b50505050565b600060028204905060018216806200042e57607f821691505b602082108114156200044557620004446200044b565b5b50919050565b7f4e487b7100000000000000000000000000000000000000000000000000000000600052602260045260246000fd5b6000601f19601f8301169050919050565b610f3a806200049b6000396000f3fe60806040526004361061009c5760003560e01c806340c8b20c1161006457806340c8b20c1461017f5780638da5cb5b1461019b57806395d89b41146101c6578063cefedb30146101f1578063ec52a5921461020d578063fe5ec9ba1461024a5761009c565b806306fdde03146100a157806313151981146100cc57806314f29e09146100f757806318160ddd1461013857806335a7d68f14610163575b600080fd5b3480156100ad57600080fd5b506100b6610287565b6040516100c39190610be0565b60405180910390f35b3480156100d857600080fd5b506100e1610315565b6040516100ee9190610b65565b60405180910390f35b34801561010357600080fd5b5061011e60048036038101906101199190610a45565b61033b565b60405161012f959493929190610c5d565b60405180910390f35b34801561014457600080fd5b5061014d6103be565b60405161015a9190610c42565b60405180910390f35b61017d60048036038101906101789190610a6e565b6103c4565b005b61019960048036038101906101949190610a45565b6104f6565b005b3480156101a757600080fd5b506101b06106c4565b6040516101bd9190610b80565b60405180910390f35b3480156101d257600080fd5b506101db6106ea565b6040516101e89190610be0565b60405180910390f35b61020b60048036038101906102069190610a45565b610778565b005b34801561021957600080fd5b50610234600480360381019061022f9190610a45565b6108cb565b6040516102419190610c42565b60405180910390f35b34801561025657600080fd5b50610271600480360381019061026c9190610a45565b6108f0565b60405161027e9190610b65565b60405180910390f35b6000805461029490610de3565b80601f01602080910402602001604051908101604052809291908181526020018280546102c090610de3565b801561030d5780601f106102e25761010080835404028352916020019161030d565b820191906000526020600020905b8154815290600101906020018083116102f057829003601f168201915b505050505081565b600460009054906101000a900473ffffffffffffffffffffffffffffffffffffffff1681565b60076020528060005260406000206000915090508060000154908060010160009054906101000a900473ffffffffffffffffffffffffffffffffffffffff16908060020160009054906101000a900473ffffffffffffffffffffffffffffffffffffffff16908060030154908060040160009054906101000a900460ff16905085565b60025481565b81600360003373ffffffffffffffffffffffffffffffffffffffff1673ffffffffffffffffffffffffffffffffffffffff168152602001908152602001600020541015610446576040517f08c379a000000000000000000000000000000000000000000000000000000000815260040161043d90610c02565b60405180910390fd5b81600360003373ffffffffffffffffffffffffffffffffffffffff1673ffffffffffffffffffffffffffffffffffffffff16815260200190815260200160002060008282546104959190610d22565b9250508190555081600360008373ffffffffffffffffffffffffffffffffffffffff1673ffffffffffffffffffffffffffffffffffffffff16815260200190815260200160002060008282546104eb9190610ccc565b925050819055505050565b60008111610539576040517f08c379a000000000000000000000000000000000000000000000000000000000815260040161053090610c22565b60405180910390fd5b61054360056109ce565b600061054f60056109e4565b90506040518060a001604052808281526020013373ffffffffffffffffffffffffffffffffffffffff168152602001600073ffffffffffffffffffffffffffffffffffffffff16815260200183815260200160001515815250600760008381526020019081526020016000206000820151816000015560208201518160010160006101000a81548173ffffffffffffffffffffffffffffffffffffffff021916908373ffffffffffffffffffffffffffffffffffffffff16021790555060408201518160020160006101000a81548173ffffffffffffffffffffffffffffffffffffffff021916908373ffffffffffffffffffffffffffffffffffffffff1602179055506060820151816003015560808201518160040160006101000a81548160ff021916908315150217905550905050807f2439c9df5317aa6c4c3639e0e0b3f2cdacd6daf5f5393cbf2142da87441a67f93360008560006040516106b89493929190610b9b565b60405180910390a25050565b600660009054906101000a900473ffffffffffffffffffffffffffffffffffffffff1681565b600180546106f790610de3565b80601f016020809104026020016040519081016040528092919081815260200182805461072390610de3565b80156107705780601f1061074557610100808354040283529160200191610770565b820191906000526020600020905b81548152906001019060200180831161075357829003601f168201915b505050505081565b80600360003373ffffffffffffffffffffffffffffffffffffffff1673ffffffffffffffffffffffffffffffffffffffff1681526020019081526020016000205410156107fa576040517f08c379a00000000000000000000000000000000000000000000000000000000081526004016107f190610c02565b60405180910390fd5b80600360003373ffffffffffffffffffffffffffffffffffffffff1673ffffffffffffffffffffffffffffffffffffffff16815260200190815260200160002060008282546108499190610d22565b925050819055508060036000600460009054906101000a900473ffffffffffffffffffffffffffffffffffffffff1673ffffffffffffffffffffffffffffffffffffffff1673ffffffffffffffffffffffffffffffffffffffff16815260200190815260200160002060008282546108c19190610ccc565b9250508190555050565b6000806007600084815260200190815260200160002060030154905080915050919050565b6000806007600084815260200190815260200160002060010160009054906101000a900473ffffffffffffffffffffffffffffffffffffffff16905080915050919050565b6109cb816040516024016109499190610be0565b6040516020818303038152906040527f41304fac000000000000000000000000000000000000000000000000000000007bffffffffffffffffffffffffffffffffffffffffffffffffffffffff19166020820180517bffffffffffffffffffffffffffffffffffffffffffffffffffffffff83818316178352505050506109f2565b50565b6001816000016000828254019250508190555050565b600081600001549050919050565b60008151905060006a636f6e736f6c652e6c6f679050602083016000808483855afa5050505050565b600081359050610a2a81610ed6565b92915050565b600081359050610a3f81610eed565b92915050565b600060208284031215610a5757600080fd5b6000610a6584828501610a30565b91505092915050565b60008060408385031215610a8157600080fd5b6000610a8f85828601610a30565b9250506020610aa085828601610a1b565b9150509250929050565b610ab381610d68565b82525050565b610ac281610d56565b82525050565b610ad181610d7a565b82525050565b6000610ae282610cb0565b610aec8185610cbb565b9350610afc818560208601610db0565b610b0581610e73565b840191505092915050565b6000610b1d601183610cbb565b9150610b2882610e84565b602082019050919050565b6000610b40601c83610cbb565b9150610b4b82610ead565b602082019050919050565b610b5f81610da6565b82525050565b6000602082019050610b7a6000830184610ab9565b92915050565b6000602082019050610b956000830184610aaa565b92915050565b6000608082019050610bb06000830187610ab9565b610bbd6020830186610ab9565b610bca6040830185610b56565b610bd76060830184610ac8565b95945050505050565b60006020820190508181036000830152610bfa8184610ad7565b905092915050565b60006020820190508181036000830152610c1b81610b10565b9050919050565b60006020820190508181036000830152610c3b81610b33565b9050919050565b6000602082019050610c576000830184610b56565b92915050565b600060a082019050610c726000830188610b56565b610c7f6020830187610aaa565b610c8c6040830186610aaa565b610c996060830185610b56565b610ca66080830184610ac8565b9695505050505050565b600081519050919050565b600082825260208201905092915050565b6000610cd782610da6565b9150610ce283610da6565b9250827fffffffffffffffffffffffffffffffffffffffffffffffffffffffffffffffff03821115610d1757610d16610e15565b5b828201905092915050565b6000610d2d82610da6565b9150610d3883610da6565b925082821015610d4b57610d4a610e15565b5b828203905092915050565b6000610d6182610d86565b9050919050565b6000610d7382610d86565b9050919050565b60008115159050919050565b600073ffffffffffffffffffffffffffffffffffffffff82169050919050565b6000819050919050565b60005b83811015610dce578082015181840152602081019050610db3565b83811115610ddd576000848401525b50505050565b60006002820490506001821680610dfb57607f821691505b60208210811415610e0f57610e0e610e44565b5b50919050565b7f4e487b7100000000000000000000000000000000000000000000000000000000600052601160045260246000fd5b7f4e487b7100000000000000000000000000000000000000000000000000000000600052602260045260246000fd5b6000601f19601f8301169050919050565b7f4e6f7420656e6f75676820746f6b656e73000000000000000000000000000000600082015250565b7f5072696365206d757374206265206174206c6561737420312077656900000000600082015250565b610edf81610d56565b8114610eea57600080fd5b50565b610ef681610da6565b8114610f0157600080fd5b5056fea26469706673582212205546d59cb51271951bb9f42a2c9bf9925483a659b13f72e86eb88897917aaf9e64736f6c63430008040033",
  "linkReferences": {},
  "deployedLinkReferences": {}
}