{
  "_format": "hh-sol-artifact-1",
  "contractName": "CreateApartment",
  "sourceName": "contracts/CreateApartment.sol",
  "abi": [
    {
      "inputs": [],
      "stateMutability": "nonpayable",
      "type": "constructor"
    },
    {
      "anonymous": false,
      "inputs": [
        {
          "indexed": true,
          "internalType": "uint256",
          "name": "apartmentsId",
          "type": "uint256"
        },
        {
          "indexed": false,
          "internalType": "address",
          "name": "ownerAp",
          "type": "address"
        },
        {
          "indexed": false,
          "internalType": "address",
          "name": "renterAp",
          "type": "address"
        },
        {
          "indexed": false,
          "internalType": "uint256",
          "name": "price",
          "type": "uint256"
        },
        {
          "indexed": false,
          "internalType": "string",
          "name": "imageLink",
          "type": "string"
        },
        {
          "indexed": false,
          "internalType": "string",
          "name": "adressAp",
          "type": "string"
        },
        {
          "indexed": false,
          "internalType": "string",
          "name": "details",
          "type": "string"
        },
        {
          "indexed": false,
          "internalType": "bool",
          "name": "rented",
          "type": "bool"
        }
      ],
      "name": "ApartmentCreated",
      "type": "event"
    },
    {
      "anonymous": false,
      "inputs": [
        {
          "indexed": true,
          "internalType": "address",
          "name": "_from",
          "type": "address"
        },
        {
          "indexed": true,
          "internalType": "address",
          "name": "_to",
          "type": "address"
        },
        {
          "indexed": false,
          "internalType": "uint256",
          "name": "_value",
          "type": "uint256"
        }
      ],
      "name": "Transfer",
      "type": "event"
    },
    {
      "inputs": [
        {
          "internalType": "uint256",
          "name": "_apartmentId",
          "type": "uint256"
        }
      ],
      "name": "apartmentAdress",
      "outputs": [
        {
          "internalType": "string",
          "name": "",
          "type": "string"
        }
      ],
      "stateMutability": "view",
      "type": "function"
    },
    {
      "inputs": [
        {
          "internalType": "uint256",
          "name": "_apartmentId",
          "type": "uint256"
        }
      ],
      "name": "apartmentImageLink",
      "outputs": [
        {
          "internalType": "string",
          "name": "",
          "type": "string"
        }
      ],
      "stateMutability": "view",
      "type": "function"
    },
    {
      "inputs": [
        {
          "internalType": "uint256",
          "name": "_apartmentId",
          "type": "uint256"
        }
      ],
      "name": "apartmentRent",
      "outputs": [],
      "stateMutability": "payable",
      "type": "function"
    },
    {
      "inputs": [
        {
          "internalType": "address",
          "name": "_account",
          "type": "address"
        }
      ],
      "name": "balanceOf",
      "outputs": [
        {
          "internalType": "uint256",
          "name": "",
          "type": "uint256"
        }
      ],
      "stateMutability": "view",
      "type": "function"
    },
    {
      "inputs": [
        {
          "internalType": "uint256",
          "name": "_tokens",
          "type": "uint256"
        }
      ],
      "name": "buy",
      "outputs": [],
      "stateMutability": "payable",
      "type": "function"
    },
    {
      "inputs": [
        {
          "internalType": "uint256",
          "name": "_price",
          "type": "uint256"
        },
        {
          "internalType": "string",
          "name": "_imageLink",
          "type": "string"
        },
        {
          "internalType": "string",
          "name": "_addressAp",
          "type": "string"
        },
        {
          "internalType": "string",
          "name": "_details",
          "type": "string"
        }
      ],
      "name": "createApartment",
      "outputs": [],
      "stateMutability": "payable",
      "type": "function"
    },
    {
      "inputs": [],
      "name": "fee",
      "outputs": [
        {
          "internalType": "address payable",
          "name": "",
          "type": "address"
        }
      ],
      "stateMutability": "view",
      "type": "function"
    },
    {
      "inputs": [],
      "name": "fetchApartmentsCreated",
      "outputs": [
        {
          "components": [
            {
              "internalType": "uint256",
              "name": "apartmentsId",
              "type": "uint256"
            },
            {
              "internalType": "address payable",
              "name": "ownerAp",
              "type": "address"
            },
            {
              "internalType": "address payable",
              "name": "renterAp",
              "type": "address"
            },
            {
              "internalType": "uint256",
              "name": "price",
              "type": "uint256"
            },
            {
              "internalType": "string",
              "name": "imageLink",
              "type": "string"
            },
            {
              "internalType": "string",
              "name": "adressAp",
              "type": "string"
            },
            {
              "internalType": "string",
              "name": "details",
              "type": "string"
            },
            {
              "internalType": "bool",
              "name": "rented",
              "type": "bool"
            }
          ],
          "internalType": "struct CreateApartment.Apartment[]",
          "name": "",
          "type": "tuple[]"
        }
      ],
      "stateMutability": "view",
      "type": "function"
    },
    {
      "inputs": [
        {
          "internalType": "uint256",
          "name": "_apartmentId",
          "type": "uint256"
        }
      ],
      "name": "getApartmentOwner",
      "outputs": [
        {
          "internalType": "address",
          "name": "",
          "type": "address"
        }
      ],
      "stateMutability": "view",
      "type": "function"
    },
    {
      "inputs": [
        {
          "internalType": "uint256",
          "name": "_apartmentId",
          "type": "uint256"
        }
      ],
      "name": "getApartmentPrice",
      "outputs": [
        {
          "internalType": "uint256",
          "name": "",
          "type": "uint256"
        }
      ],
      "stateMutability": "view",
      "type": "function"
    },
    {
      "inputs": [
        {
          "internalType": "uint256",
          "name": "_apartmentId",
          "type": "uint256"
        }
      ],
      "name": "getApartmentRenter",
      "outputs": [
        {
          "internalType": "address",
          "name": "",
          "type": "address"
        }
      ],
      "stateMutability": "view",
      "type": "function"
    },
    {
      "inputs": [],
      "name": "getbalanceOf",
      "outputs": [
        {
          "internalType": "uint256",
          "name": "",
          "type": "uint256"
        }
      ],
      "stateMutability": "view",
      "type": "function"
    },
    {
      "inputs": [
        {
          "internalType": "uint256",
          "name": "",
          "type": "uint256"
        }
      ],
      "name": "idToApartment",
      "outputs": [
        {
          "internalType": "uint256",
          "name": "apartmentsId",
          "type": "uint256"
        },
        {
          "internalType": "address payable",
          "name": "ownerAp",
          "type": "address"
        },
        {
          "internalType": "address payable",
          "name": "renterAp",
          "type": "address"
        },
        {
          "internalType": "uint256",
          "name": "price",
          "type": "uint256"
        },
        {
          "internalType": "string",
          "name": "imageLink",
          "type": "string"
        },
        {
          "internalType": "string",
          "name": "adressAp",
          "type": "string"
        },
        {
          "internalType": "string",
          "name": "details",
          "type": "string"
        },
        {
          "internalType": "bool",
          "name": "rented",
          "type": "bool"
        }
      ],
      "stateMutability": "view",
      "type": "function"
    },
    {
      "inputs": [
        {
          "internalType": "uint256",
          "name": "_apartmentId",
          "type": "uint256"
        }
      ],
      "name": "isRented",
      "outputs": [
        {
          "internalType": "uint256",
          "name": "",
          "type": "uint256"
        }
      ],
      "stateMutability": "view",
      "type": "function"
    },
    {
      "inputs": [],
      "name": "name",
      "outputs": [
        {
          "internalType": "string",
          "name": "",
          "type": "string"
        }
      ],
      "stateMutability": "view",
      "type": "function"
    },
    {
      "inputs": [],
      "name": "owner",
      "outputs": [
        {
          "internalType": "address payable",
          "name": "",
          "type": "address"
        }
      ],
      "stateMutability": "view",
      "type": "function"
    },
    {
      "inputs": [
        {
          "internalType": "uint256",
          "name": "_apartmentId",
          "type": "uint256"
        }
      ],
      "name": "ownerResetApartment",
      "outputs": [],
      "stateMutability": "nonpayable",
      "type": "function"
    },
    {
      "inputs": [],
      "name": "symbol",
      "outputs": [
        {
          "internalType": "string",
          "name": "",
          "type": "string"
        }
      ],
      "stateMutability": "view",
      "type": "function"
    },
    {
      "inputs": [],
      "name": "totalSupply",
      "outputs": [
        {
          "internalType": "uint256",
          "name": "",
          "type": "uint256"
        }
      ],
      "stateMutability": "view",
      "type": "function"
    },
    {
      "inputs": [
        {
          "internalType": "uint256",
          "name": "_amount",
          "type": "uint256"
        },
        {
          "internalType": "address",
          "name": "_to",
          "type": "address"
        }
      ],
      "name": "transfer",
      "outputs": [],
      "stateMutability": "payable",
      "type": "function"
    },
    {
      "inputs": [
        {
          "internalType": "address",
          "name": "_from",
          "type": "address"
        },
        {
          "internalType": "address",
          "name": "_to",
          "type": "address"
        },
        {
          "internalType": "uint256",
          "name": "_amount",
          "type": "uint256"
        }
      ],
      "name": "transferFrom",
      "outputs": [],
      "stateMutability": "payable",
      "type": "function"
    },
    {
      "inputs": [
        {
          "internalType": "uint256",
          "name": "_amount",
          "type": "uint256"
        }
      ],
      "name": "transferfee",
      "outputs": [],
      "stateMutability": "payable",
      "type": "function"
    }
  ],
  "bytecode": "0x608060405260405180606001604052806025815260200162002d84602591396000908051906020019062000035929190620002d3565b506040518060400160405280600381526020017f44415200000000000000000000000000000000000000000000000000000000008152506001908051906020019062000083929190620002d3565b50620f424060025573f39fd6e51aad88f6f4ce6ab8827279cfffb92266600460006101000a81548173ffffffffffffffffffffffffffffffffffffffff021916908373ffffffffffffffffffffffffffffffffffffffff160217905550348015620000ed57600080fd5b50600254600360003373ffffffffffffffffffffffffffffffffffffffff1673ffffffffffffffffffffffffffffffffffffffff1681526020019081526020016000208190555033600560006101000a81548173ffffffffffffffffffffffffffffffffffffffff021916908373ffffffffffffffffffffffffffffffffffffffff160217905550620001c06040518060400160405280601f81526020017f4372656174696e67206e65772061706172746d656e7420666163746f72793a008152506200020760201b62001ac81760201c565b33600760006101000a81548173ffffffffffffffffffffffffffffffffffffffff021916908373ffffffffffffffffffffffffffffffffffffffff160217905550620004b0565b620002a7816040516024016200021e9190620003c4565b6040516020818303038152906040527f41304fac000000000000000000000000000000000000000000000000000000007bffffffffffffffffffffffffffffffffffffffffffffffffffffffff19166020820180517bffffffffffffffffffffffffffffffffffffffffffffffffffffffff8381831617835250505050620002aa60201b60201c565b50565b60008151905060006a636f6e736f6c652e6c6f679050602083016000808483855afa5050505050565b828054620002e1906200043a565b90600052602060002090601f01602090048101928262000305576000855562000351565b82601f106200032057805160ff191683800117855562000351565b8280016001018555821562000351579182015b828111156200035057825182559160200191906001019062000333565b5b50905062000360919062000364565b5090565b5b808211156200037f57600081600090555060010162000365565b5090565b60006200039082620003e8565b6200039c8185620003f3565b9350620003ae81856020860162000404565b620003b9816200049f565b840191505092915050565b60006020820190508181036000830152620003e0818462000383565b905092915050565b600081519050919050565b600082825260208201905092915050565b60005b838110156200042457808201518184015260208101905062000407565b8381111562000434576000848401525b50505050565b600060028204905060018216806200045357607f821691505b602082108114156200046a576200046962000470565b5b50919050565b7f4e487b7100000000000000000000000000000000000000000000000000000000600052602260045260246000fd5b6000601f19601f8301169050919050565b6128c480620004c06000396000f3fe6080604052600436106101355760003560e01c806380f34c69116100ab5780639f1070f41161006f5780639f1070f414610442578063aa15d40f1461046b578063b7760c8f146104a8578063cefedb30146104c4578063d96a094a146104e0578063ddca3f43146104fc57610135565b806380f34c69146103565780638d558cc1146103725780638da5cb5b146103af5780638ebc0b3c146103da57806395d89b411461041757610135565b806327385b0f116100fd57806327385b0f1461022d5780632b24fa4b14610258578063402a71d71461029557806367b2be1f146102c057806370a08231146102fd5780637a1156601461033a57610135565b806306fdde031461013a5780630d874e871461016557806314f29e09146101a257806318160ddd146101e657806323b872dd14610211575b600080fd5b34801561014657600080fd5b5061014f610527565b60405161015c91906122ae565b60405180910390f35b34801561017157600080fd5b5061018c60048036038101906101879190611dce565b6105b5565b60405161019991906122ae565b60405180910390f35b3480156101ae57600080fd5b506101c960048036038101906101c49190611dce565b610663565b6040516101dd9897969594939291906123ab565b60405180910390f35b3480156101f257600080fd5b506101fb610890565b6040516102089190612390565b60405180910390f35b61022b60048036038101906102269190611d7f565b610896565b005b34801561023957600080fd5b50610242610a2e565b60405161024f919061228c565b60405180910390f35b34801561026457600080fd5b5061027f600480360381019061027a9190611dce565b610e00565b60405161028c91906122ae565b60405180910390f35b3480156102a157600080fd5b506102aa610eae565b6040516102b79190612390565b60405180910390f35b3480156102cc57600080fd5b506102e760048036038101906102e29190611dce565b610ef5565b6040516102f491906121d2565b60405180910390f35b34801561030957600080fd5b50610324600480360381019061031f9190611d56565b610fa5565b6040516103319190612390565b60405180910390f35b610354600480360381019061034f9190611e33565b610fee565b005b610370600480360381019061036b9190611dce565b61122f565b005b34801561037e57600080fd5b5061039960048036038101906103949190611dce565b611320565b6040516103a691906121d2565b60405180910390f35b3480156103bb57600080fd5b506103c4611365565b6040516103d191906121ed565b60405180910390f35b3480156103e657600080fd5b5061040160048036038101906103fc9190611dce565b61138b565b60405161040e9190612390565b60405180910390f35b34801561042357600080fd5b5061042c6113b0565b60405161043991906122ae565b60405180910390f35b34801561044e57600080fd5b5061046960048036038101906104649190611dce565b61143e565b005b34801561047757600080fd5b50610492600480360381019061048d9190611dce565b61157e565b60405161049f9190612390565b60405180910390f35b6104c260048036038101906104bd9190611df7565b6115bc565b005b6104de60048036038101906104d99190611dce565b611753565b005b6104fa60048036038101906104f59190611dce565b61192d565b005b34801561050857600080fd5b50610511611aa2565b60405161051e91906121ed565b60405180910390f35b6000805461053490612620565b80601f016020809104026020016040519081016040528092919081815260200182805461056090612620565b80156105ad5780601f10610582576101008083540402835291602001916105ad565b820191906000526020600020905b81548152906001019060200180831161059057829003601f168201915b505050505081565b606060006008600084815260200190815260200160002060050180546105da90612620565b80601f016020809104026020016040519081016040528092919081815260200182805461060690612620565b80156106535780601f1061062857610100808354040283529160200191610653565b820191906000526020600020905b81548152906001019060200180831161063657829003601f168201915b5050505050905080915050919050565b60086020528060005260406000206000915090508060000154908060010160009054906101000a900473ffffffffffffffffffffffffffffffffffffffff16908060020160009054906101000a900473ffffffffffffffffffffffffffffffffffffffff16908060030154908060040180546106de90612620565b80601f016020809104026020016040519081016040528092919081815260200182805461070a90612620565b80156107575780601f1061072c57610100808354040283529160200191610757565b820191906000526020600020905b81548152906001019060200180831161073a57829003601f168201915b50505050509080600501805461076c90612620565b80601f016020809104026020016040519081016040528092919081815260200182805461079890612620565b80156107e55780601f106107ba576101008083540402835291602001916107e5565b820191906000526020600020905b8154815290600101906020018083116107c857829003601f168201915b5050505050908060060180546107fa90612620565b80601f016020809104026020016040519081016040528092919081815260200182805461082690612620565b80156108735780601f1061084857610100808354040283529160200191610873565b820191906000526020600020905b81548152906001019060200180831161085657829003601f168201915b5050505050908060070160009054906101000a900460ff16905088565b60025481565b600360008473ffffffffffffffffffffffffffffffffffffffff1673ffffffffffffffffffffffffffffffffffffffff16815260200190815260200160002054811115610918576040517f08c379a000000000000000000000000000000000000000000000000000000000815260040161090f90612330565b60405180910390fd5b80600360008573ffffffffffffffffffffffffffffffffffffffff1673ffffffffffffffffffffffffffffffffffffffff16815260200190815260200160002060008282546109679190612550565b9250508190555080600360008473ffffffffffffffffffffffffffffffffffffffff1673ffffffffffffffffffffffffffffffffffffffff16815260200190815260200160002060008282546109bd91906124fa565b925050819055508173ffffffffffffffffffffffffffffffffffffffff168373ffffffffffffffffffffffffffffffffffffffff167fddf252ad1be2c89b69c2b068fc378daa952ba7f163c4a11628f55a4df523b3ef83604051610a219190612390565b60405180910390a3505050565b60606000610a3c6006611b61565b905060008167ffffffffffffffff811115610a80577f4e487b7100000000000000000000000000000000000000000000000000000000600052604160045260246000fd5b604051908082528060200260200182016040528015610ab957816020015b610aa6611bae565b815260200190600190039081610a9e5790505b5090506000805b83811015610df6576000600182610ad791906124fa565b905060006008600083815260200190815260200160002090508060405180610100016040529081600082015481526020016001820160009054906101000a900473ffffffffffffffffffffffffffffffffffffffff1673ffffffffffffffffffffffffffffffffffffffff1673ffffffffffffffffffffffffffffffffffffffff1681526020016002820160009054906101000a900473ffffffffffffffffffffffffffffffffffffffff1673ffffffffffffffffffffffffffffffffffffffff1673ffffffffffffffffffffffffffffffffffffffff16815260200160038201548152602001600482018054610bcd90612620565b80601f0160208091040260200160405190810160405280929190818152602001828054610bf990612620565b8015610c465780601f10610c1b57610100808354040283529160200191610c46565b820191906000526020600020905b815481529060010190602001808311610c2957829003601f168201915b50505050508152602001600582018054610c5f90612620565b80601f0160208091040260200160405190810160405280929190818152602001828054610c8b90612620565b8015610cd85780601f10610cad57610100808354040283529160200191610cd8565b820191906000526020600020905b815481529060010190602001808311610cbb57829003601f168201915b50505050508152602001600682018054610cf190612620565b80601f0160208091040260200160405190810160405280929190818152602001828054610d1d90612620565b8015610d6a5780601f10610d3f57610100808354040283529160200191610d6a565b820191906000526020600020905b815481529060010190602001808311610d4d57829003601f168201915b505050505081526020016007820160009054906101000a900460ff161515151581525050858581518110610dc7577f4e487b7100000000000000000000000000000000000000000000000000000000600052603260045260246000fd5b6020026020010181905250600184610ddf91906124fa565b935050508080610dee90612683565b915050610ac0565b5081935050505090565b60606000600860008481526020019081526020016000206004018054610e2590612620565b80601f0160208091040260200160405190810160405280929190818152602001828054610e5190612620565b8015610e9e5780601f10610e7357610100808354040283529160200191610e9e565b820191906000526020600020905b815481529060010190602001808311610e8157829003601f168201915b5050505050905080915050919050565b6000600360003373ffffffffffffffffffffffffffffffffffffffff1673ffffffffffffffffffffffffffffffffffffffff16815260200190815260200160002054905090565b6000600115156008600084815260200190815260200160002060070160009054906101000a900460ff16151514610f61576040517f08c379a0000000000000000000000000000000000000000000000000000000008152600401610f58906122d0565b60405180910390fd5b60006008600084815260200190815260200160002060020160009054906101000a900473ffffffffffffffffffffffffffffffffffffffff16905080915050919050565b6000600360008373ffffffffffffffffffffffffffffffffffffffff1673ffffffffffffffffffffffffffffffffffffffff168152602001908152602001600020549050919050565b60008411611031576040517f08c379a000000000000000000000000000000000000000000000000000000000815260040161102890612350565b60405180910390fd5b61103b6006611b6f565b60006110476006611b61565b90506040518061010001604052808281526020013373ffffffffffffffffffffffffffffffffffffffff168152602001600073ffffffffffffffffffffffffffffffffffffffff16815260200186815260200185815260200184815260200183815260200160001515815250600860008381526020019081526020016000206000820151816000015560208201518160010160006101000a81548173ffffffffffffffffffffffffffffffffffffffff021916908373ffffffffffffffffffffffffffffffffffffffff16021790555060408201518160020160006101000a81548173ffffffffffffffffffffffffffffffffffffffff021916908373ffffffffffffffffffffffffffffffffffffffff160217905550606082015181600301556080820151816004019080519060200190611184929190611c21565b5060a08201518160050190805190602001906111a1929190611c21565b5060c08201518160060190805190602001906111be929190611c21565b5060e08201518160070160006101000a81548160ff021916908315150217905550905050807fb52555d9bfce3c450bb4d1930febcfee9177e6c0402cf25be2c896760a8d90f53360008888888860006040516112209796959493929190612208565b60405180910390a25050505050565b600015156008600083815260200190815260200160002060070160009054906101000a900460ff16151514611299576040517f08c379a000000000000000000000000000000000000000000000000000000000815260040161129090612370565b60405180910390fd5b336008600083815260200190815260200160002060020160006101000a81548173ffffffffffffffffffffffffffffffffffffffff021916908373ffffffffffffffffffffffffffffffffffffffff16021790555060016008600083815260200190815260200160002060070160006101000a81548160ff02191690831515021790555050565b6000806008600084815260200190815260200160002060010160009054906101000a900473ffffffffffffffffffffffffffffffffffffffff16905080915050919050565b600760009054906101000a900473ffffffffffffffffffffffffffffffffffffffff1681565b6000806008600084815260200190815260200160002060030154905080915050919050565b600180546113bd90612620565b80601f01602080910402602001604051908101604052809291908181526020018280546113e990612620565b80156114365780601f1061140b57610100808354040283529160200191611436565b820191906000526020600020905b81548152906001019060200180831161141957829003601f168201915b505050505081565b3373ffffffffffffffffffffffffffffffffffffffff166008600083815260200190815260200160002060010160009054906101000a900473ffffffffffffffffffffffffffffffffffffffff1673ffffffffffffffffffffffffffffffffffffffff16146114e2576040517f08c379a00000000000000000000000000000000000000000000000000000000081526004016114d9906122f0565b60405180910390fd5b600115156008600083815260200190815260200160002060070160009054906101000a900460ff1615151461154c576040517f08c379a000000000000000000000000000000000000000000000000000000000815260040161154390612310565b60405180910390fd5b60006008600083815260200190815260200160002060070160006101000a81548160ff02191690831515021790555050565b60006008600083815260200190815260200160002060070160009054906101000a900460ff16156115b257600190506115b7565b600090505b919050565b81600360003373ffffffffffffffffffffffffffffffffffffffff1673ffffffffffffffffffffffffffffffffffffffff16815260200190815260200160002054101561163e576040517f08c379a000000000000000000000000000000000000000000000000000000000815260040161163590612330565b60405180910390fd5b81600360003373ffffffffffffffffffffffffffffffffffffffff1673ffffffffffffffffffffffffffffffffffffffff168152602001908152602001600020600082825461168d9190612550565b9250508190555081600360008373ffffffffffffffffffffffffffffffffffffffff1673ffffffffffffffffffffffffffffffffffffffff16815260200190815260200160002060008282546116e391906124fa565b925050819055508073ffffffffffffffffffffffffffffffffffffffff163373ffffffffffffffffffffffffffffffffffffffff167fddf252ad1be2c89b69c2b068fc378daa952ba7f163c4a11628f55a4df523b3ef846040516117479190612390565b60405180910390a35050565b80600360003373ffffffffffffffffffffffffffffffffffffffff1673ffffffffffffffffffffffffffffffffffffffff1681526020019081526020016000205410156117d5576040517f08c379a00000000000000000000000000000000000000000000000000000000081526004016117cc90612330565b60405180910390fd5b80600360003373ffffffffffffffffffffffffffffffffffffffff1673ffffffffffffffffffffffffffffffffffffffff16815260200190815260200160002060008282546118249190612550565b925050819055508060036000600460009054906101000a900473ffffffffffffffffffffffffffffffffffffffff1673ffffffffffffffffffffffffffffffffffffffff1673ffffffffffffffffffffffffffffffffffffffff168152602001908152602001600020600082825461189c91906124fa565b92505081905550600460009054906101000a900473ffffffffffffffffffffffffffffffffffffffff1673ffffffffffffffffffffffffffffffffffffffff163373ffffffffffffffffffffffffffffffffffffffff167fddf252ad1be2c89b69c2b068fc378daa952ba7f163c4a11628f55a4df523b3ef836040516119229190612390565b60405180910390a350565b8060036000600560009054906101000a900473ffffffffffffffffffffffffffffffffffffffff1673ffffffffffffffffffffffffffffffffffffffff1673ffffffffffffffffffffffffffffffffffffffff1681526020019081526020016000205410156119d1576040517f08c379a00000000000000000000000000000000000000000000000000000000081526004016119c890612330565b60405180910390fd5b80600360003373ffffffffffffffffffffffffffffffffffffffff1673ffffffffffffffffffffffffffffffffffffffff1681526020019081526020016000206000828254611a2091906124fa565b925050819055508060036000600560009054906101000a900473ffffffffffffffffffffffffffffffffffffffff1673ffffffffffffffffffffffffffffffffffffffff1673ffffffffffffffffffffffffffffffffffffffff1681526020019081526020016000206000828254611a989190612550565b9250508190555050565b600460009054906101000a900473ffffffffffffffffffffffffffffffffffffffff1681565b611b5e81604051602401611adc91906122ae565b6040516020818303038152906040527f41304fac000000000000000000000000000000000000000000000000000000007bffffffffffffffffffffffffffffffffffffffffffffffffffffffff19166020820180517bffffffffffffffffffffffffffffffffffffffffffffffffffffffff8381831617835250505050611b85565b50565b600081600001549050919050565b6001816000016000828254019250508190555050565b60008151905060006a636f6e736f6c652e6c6f679050602083016000808483855afa5050505050565b60405180610100016040528060008152602001600073ffffffffffffffffffffffffffffffffffffffff168152602001600073ffffffffffffffffffffffffffffffffffffffff168152602001600081526020016060815260200160608152602001606081526020016000151581525090565b828054611c2d90612620565b90600052602060002090601f016020900481019282611c4f5760008555611c96565b82601f10611c6857805160ff1916838001178555611c96565b82800160010185558215611c96579182015b82811115611c95578251825591602001919060010190611c7a565b5b509050611ca39190611ca7565b5090565b5b80821115611cc0576000816000905550600101611ca8565b5090565b6000611cd7611cd284612463565b61243e565b905082815260208101848484011115611cef57600080fd5b611cfa8482856125de565b509392505050565b600081359050611d1181612860565b92915050565b600082601f830112611d2857600080fd5b8135611d38848260208601611cc4565b91505092915050565b600081359050611d5081612877565b92915050565b600060208284031215611d6857600080fd5b6000611d7684828501611d02565b91505092915050565b600080600060608486031215611d9457600080fd5b6000611da286828701611d02565b9350506020611db386828701611d02565b9250506040611dc486828701611d41565b9150509250925092565b600060208284031215611de057600080fd5b6000611dee84828501611d41565b91505092915050565b60008060408385031215611e0a57600080fd5b6000611e1885828601611d41565b9250506020611e2985828601611d02565b9150509250929050565b60008060008060808587031215611e4957600080fd5b6000611e5787828801611d41565b945050602085013567ffffffffffffffff811115611e7457600080fd5b611e8087828801611d17565b935050604085013567ffffffffffffffff811115611e9d57600080fd5b611ea987828801611d17565b925050606085013567ffffffffffffffff811115611ec657600080fd5b611ed287828801611d17565b91505092959194509250565b6000611eea83836120f6565b905092915050565b611efb81612596565b82525050565b611f0a81612596565b82525050565b611f1981612584565b82525050565b6000611f2a826124a4565b611f3481856124c7565b935083602082028501611f4685612494565b8060005b85811015611f825784840389528151611f638582611ede565b9450611f6e836124ba565b925060208a01995050600181019050611f4a565b50829750879550505050505092915050565b611f9d816125a8565b82525050565b611fac816125a8565b82525050565b6000611fbd826124af565b611fc781856124d8565b9350611fd78185602086016125ed565b611fe081612759565b840191505092915050565b6000611ff6826124af565b61200081856124e9565b93506120108185602086016125ed565b61201981612759565b840191505092915050565b6000612031600e836124e9565b915061203c8261276a565b602082019050919050565b6000612054600d836124e9565b915061205f82612793565b602082019050919050565b60006120776017836124e9565b9150612082826127bc565b602082019050919050565b600061209a6011836124e9565b91506120a5826127e5565b602082019050919050565b60006120bd601c836124e9565b91506120c88261280e565b602082019050919050565b60006120e06013836124e9565b91506120eb82612837565b602082019050919050565b60006101008301600083015161210f60008601826121b4565b5060208301516121226020860182611ef2565b5060408301516121356040860182611ef2565b50606083015161214860608601826121b4565b50608083015184820360808601526121608282611fb2565b91505060a083015184820360a086015261217a8282611fb2565b91505060c083015184820360c08601526121948282611fb2565b91505060e08301516121a960e0860182611f94565b508091505092915050565b6121bd816125d4565b82525050565b6121cc816125d4565b82525050565b60006020820190506121e76000830184611f10565b92915050565b60006020820190506122026000830184611f01565b92915050565b600060e08201905061221d600083018a611f10565b61222a6020830189611f10565b61223760408301886121c3565b81810360608301526122498187611feb565b9050818103608083015261225d8186611feb565b905081810360a08301526122718185611feb565b905061228060c0830184611fa3565b98975050505050505050565b600060208201905081810360008301526122a68184611f1f565b905092915050565b600060208201905081810360008301526122c88184611feb565b905092915050565b600060208201905081810360008301526122e981612024565b9050919050565b6000602082019050818103600083015261230981612047565b9050919050565b600060208201905081810360008301526123298161206a565b9050919050565b600060208201905081810360008301526123498161208d565b9050919050565b60006020820190508181036000830152612369816120b0565b9050919050565b60006020820190508181036000830152612389816120d3565b9050919050565b60006020820190506123a560008301846121c3565b92915050565b6000610100820190506123c1600083018b6121c3565b6123ce602083018a611f01565b6123db6040830189611f01565b6123e860608301886121c3565b81810360808301526123fa8187611feb565b905081810360a083015261240e8186611feb565b905081810360c08301526124228185611feb565b905061243160e0830184611fa3565b9998505050505050505050565b6000612448612459565b90506124548282612652565b919050565b6000604051905090565b600067ffffffffffffffff82111561247e5761247d61272a565b5b61248782612759565b9050602081019050919050565b6000819050602082019050919050565b600081519050919050565b600081519050919050565b6000602082019050919050565b600082825260208201905092915050565b600082825260208201905092915050565b600082825260208201905092915050565b6000612505826125d4565b9150612510836125d4565b9250827fffffffffffffffffffffffffffffffffffffffffffffffffffffffffffffffff03821115612545576125446126cc565b5b828201905092915050565b600061255b826125d4565b9150612566836125d4565b925082821015612579576125786126cc565b5b828203905092915050565b600061258f826125b4565b9050919050565b60006125a1826125b4565b9050919050565b60008115159050919050565b600073ffffffffffffffffffffffffffffffffffffffff82169050919050565b6000819050919050565b82818337600083830152505050565b60005b8381101561260b5780820151818401526020810190506125f0565b8381111561261a576000848401525b50505050565b6000600282049050600182168061263857607f821691505b6020821081141561264c5761264b6126fb565b5b50919050565b61265b82612759565b810181811067ffffffffffffffff8211171561267a5761267961272a565b5b80604052505050565b600061268e826125d4565b91507fffffffffffffffffffffffffffffffffffffffffffffffffffffffffffffffff8214156126c1576126c06126cc565b5b600182019050919050565b7f4e487b7100000000000000000000000000000000000000000000000000000000600052601160045260246000fd5b7f4e487b7100000000000000000000000000000000000000000000000000000000600052602260045260246000fd5b7f4e487b7100000000000000000000000000000000000000000000000000000000600052604160045260246000fd5b6000601f19601f8301169050919050565b7f4e6f742072656e74656420796574000000000000000000000000000000000000600082015250565b7f4e6f7420746865206f776e657200000000000000000000000000000000000000600082015250565b7f41706172746d656e74206973206e6f742072656e746564000000000000000000600082015250565b7f4e6f7420656e6f75676820746f6b656e73000000000000000000000000000000600082015250565b7f5072696365206d757374206265206174206c6561737420312077656900000000600082015250565b7f41706172746d656e742069732072656e74656400000000000000000000000000600082015250565b61286981612584565b811461287457600080fd5b50565b612880816125d4565b811461288b57600080fd5b5056fea2646970667358221220c0c64fde21cc49b85bc4fab48c92ed89d3bf1d5c359e1b499710f12c3204f1b764736f6c63430008040033446563656e7472616c697a65642041706172746d656e742052656e74696e6720546f6b656e",
  "linkReferences": {},
  "deployedLinkReferences": {}
}