{
  "_format": "hh-sol-artifact-1",
  "contractName": "CreateApartment",
  "sourceName": "contracts/CreateApartment.sol",
  "abi": [
    {
      "inputs": [],
      "stateMutability": "nonpayable",
      "type": "constructor"
    },
    {
      "anonymous": false,
      "inputs": [
        {
          "indexed": true,
          "internalType": "uint256",
          "name": "apartmentsId",
          "type": "uint256"
        },
        {
          "indexed": false,
          "internalType": "address",
          "name": "ownerAp",
          "type": "address"
        },
        {
          "indexed": false,
          "internalType": "address",
          "name": "renterAp",
          "type": "address"
        },
        {
          "indexed": false,
          "internalType": "uint256",
          "name": "price",
          "type": "uint256"
        },
        {
          "indexed": false,
          "internalType": "string",
          "name": "imageLink",
          "type": "string"
        },
        {
          "indexed": false,
          "internalType": "string",
          "name": "adressAp",
          "type": "string"
        },
        {
          "indexed": false,
          "internalType": "string",
          "name": "details",
          "type": "string"
        },
        {
          "indexed": false,
          "internalType": "bool",
          "name": "rented",
          "type": "bool"
        }
      ],
      "name": "ApartmentCreated",
      "type": "event"
    },
    {
      "inputs": [
        {
          "internalType": "uint256",
          "name": "_apartmentId",
          "type": "uint256"
        }
      ],
      "name": "apartmentAdress",
      "outputs": [
        {
          "internalType": "string",
          "name": "",
          "type": "string"
        }
      ],
      "stateMutability": "view",
      "type": "function"
    },
    {
      "inputs": [
        {
          "internalType": "uint256",
          "name": "_apartmentId",
          "type": "uint256"
        }
      ],
      "name": "apartmentImageLink",
      "outputs": [
        {
          "internalType": "string",
          "name": "",
          "type": "string"
        }
      ],
      "stateMutability": "view",
      "type": "function"
    },
    {
      "inputs": [
        {
          "internalType": "uint256",
          "name": "_apartmentId",
          "type": "uint256"
        }
      ],
      "name": "apartmentOwner",
      "outputs": [
        {
          "internalType": "address",
          "name": "",
          "type": "address"
        }
      ],
      "stateMutability": "view",
      "type": "function"
    },
    {
      "inputs": [
        {
          "internalType": "uint256",
          "name": "_apartmentId",
          "type": "uint256"
        }
      ],
      "name": "apartmentPrice",
      "outputs": [
        {
          "internalType": "uint256",
          "name": "",
          "type": "uint256"
        }
      ],
      "stateMutability": "view",
      "type": "function"
    },
    {
      "inputs": [
        {
          "internalType": "uint256",
          "name": "_price",
          "type": "uint256"
        },
        {
          "internalType": "string",
          "name": "_imageLink",
          "type": "string"
        },
        {
          "internalType": "string",
          "name": "_addressAp",
          "type": "string"
        },
        {
          "internalType": "string",
          "name": "_details",
          "type": "string"
        }
      ],
      "name": "createApartment",
      "outputs": [],
      "stateMutability": "payable",
      "type": "function"
    },
    {
      "inputs": [],
      "name": "fetchApartmentsCreated",
      "outputs": [
        {
          "components": [
            {
              "internalType": "uint256",
              "name": "apartmentsId",
              "type": "uint256"
            },
            {
              "internalType": "address payable",
              "name": "ownerAp",
              "type": "address"
            },
            {
              "internalType": "address payable",
              "name": "renterAp",
              "type": "address"
            },
            {
              "internalType": "uint256",
              "name": "price",
              "type": "uint256"
            },
            {
              "internalType": "string",
              "name": "imageLink",
              "type": "string"
            },
            {
              "internalType": "string",
              "name": "adressAp",
              "type": "string"
            },
            {
              "internalType": "string",
              "name": "details",
              "type": "string"
            },
            {
              "internalType": "bool",
              "name": "rented",
              "type": "bool"
            }
          ],
          "internalType": "struct CreateApartment.Apartment[]",
          "name": "",
          "type": "tuple[]"
        }
      ],
      "stateMutability": "view",
      "type": "function"
    },
    {
      "inputs": [
        {
          "internalType": "uint256",
          "name": "",
          "type": "uint256"
        }
      ],
      "name": "idToApartment",
      "outputs": [
        {
          "internalType": "uint256",
          "name": "apartmentsId",
          "type": "uint256"
        },
        {
          "internalType": "address payable",
          "name": "ownerAp",
          "type": "address"
        },
        {
          "internalType": "address payable",
          "name": "renterAp",
          "type": "address"
        },
        {
          "internalType": "uint256",
          "name": "price",
          "type": "uint256"
        },
        {
          "internalType": "string",
          "name": "imageLink",
          "type": "string"
        },
        {
          "internalType": "string",
          "name": "adressAp",
          "type": "string"
        },
        {
          "internalType": "string",
          "name": "details",
          "type": "string"
        },
        {
          "internalType": "bool",
          "name": "rented",
          "type": "bool"
        }
      ],
      "stateMutability": "view",
      "type": "function"
    },
    {
      "inputs": [],
      "name": "owner",
      "outputs": [
        {
          "internalType": "address payable",
          "name": "",
          "type": "address"
        }
      ],
      "stateMutability": "view",
      "type": "function"
    }
  ],
  "bytecode": "0x60806040523480156200001157600080fd5b506200005d6040518060400160405280601f81526020017f4372656174696e67206e65772061706172746d656e7420666163746f72793a00815250620000a460201b62000c561760201c565b33600160006101000a81548173ffffffffffffffffffffffffffffffffffffffff021916908373ffffffffffffffffffffffffffffffffffffffff16021790555062000238565b6200014481604051602401620000bb9190620001b1565b6040516020818303038152906040527f41304fac000000000000000000000000000000000000000000000000000000007bffffffffffffffffffffffffffffffffffffffffffffffffffffffff19166020820180517bffffffffffffffffffffffffffffffffffffffffffffffffffffffff83818316178352505050506200014760201b60201c565b50565b60008151905060006a636f6e736f6c652e6c6f679050602083016000808483855afa5050505050565b60006200017d82620001d5565b620001898185620001e0565b93506200019b818560208601620001f1565b620001a68162000227565b840191505092915050565b60006020820190508181036000830152620001cd818462000170565b905092915050565b600081519050919050565b600082825260208201905092915050565b60005b8381101562000211578082015181840152602081019050620001f4565b8381111562000221576000848401525b50505050565b6000601f19601f8301169050919050565b61172280620002486000396000f3fe60806040526004361061007b5760003560e01c80637a1156601161004e5780637a115660146101695780638da5cb5b14610185578063ec52a592146101b0578063fe5ec9ba146101ed5761007b565b80630d874e871461008057806314f29e09146100bd57806327385b0f146101015780632b24fa4b1461012c575b600080fd5b34801561008c57600080fd5b506100a760048036038101906100a29190610ecf565b61022a565b6040516100b491906112c4565b60405180910390f35b3480156100c957600080fd5b506100e460048036038101906100df9190610ecf565b6102d8565b6040516100f8989796959493929190611321565b60405180910390f35b34801561010d57600080fd5b50610116610505565b60405161012391906112a2565b60405180910390f35b34801561013857600080fd5b50610153600480360381019061014e9190610ecf565b6108d7565b60405161016091906112c4565b60405180910390f35b610183600480360381019061017e9190610ef8565b610985565b005b34801561019157600080fd5b5061019a610bc6565b6040516101a79190611203565b60405180910390f35b3480156101bc57600080fd5b506101d760048036038101906101d29190610ecf565b610bec565b6040516101e49190611306565b60405180910390f35b3480156101f957600080fd5b50610214600480360381019061020f9190610ecf565b610c11565b60405161022191906111e8565b60405180910390f35b6060600060026000848152602001908152602001600020600501805461024f90611562565b80601f016020809104026020016040519081016040528092919081815260200182805461027b90611562565b80156102c85780601f1061029d576101008083540402835291602001916102c8565b820191906000526020600020905b8154815290600101906020018083116102ab57829003601f168201915b5050505050905080915050919050565b60026020528060005260406000206000915090508060000154908060010160009054906101000a900473ffffffffffffffffffffffffffffffffffffffff16908060020160009054906101000a900473ffffffffffffffffffffffffffffffffffffffff169080600301549080600401805461035390611562565b80601f016020809104026020016040519081016040528092919081815260200182805461037f90611562565b80156103cc5780601f106103a1576101008083540402835291602001916103cc565b820191906000526020600020905b8154815290600101906020018083116103af57829003601f168201915b5050505050908060050180546103e190611562565b80601f016020809104026020016040519081016040528092919081815260200182805461040d90611562565b801561045a5780601f1061042f5761010080835404028352916020019161045a565b820191906000526020600020905b81548152906001019060200180831161043d57829003601f168201915b50505050509080600601805461046f90611562565b80601f016020809104026020016040519081016040528092919081815260200182805461049b90611562565b80156104e85780601f106104bd576101008083540402835291602001916104e8565b820191906000526020600020905b8154815290600101906020018083116104cb57829003601f168201915b5050505050908060070160009054906101000a900460ff16905088565b606060006105136000610cef565b905060008167ffffffffffffffff811115610557577f4e487b7100000000000000000000000000000000000000000000000000000000600052604160045260246000fd5b60405190808252806020026020018201604052801561059057816020015b61057d610d3c565b8152602001906001900390816105755790505b5090506000805b838110156108cd5760006001826105ae9190611470565b905060006002600083815260200190815260200160002090508060405180610100016040529081600082015481526020016001820160009054906101000a900473ffffffffffffffffffffffffffffffffffffffff1673ffffffffffffffffffffffffffffffffffffffff1673ffffffffffffffffffffffffffffffffffffffff1681526020016002820160009054906101000a900473ffffffffffffffffffffffffffffffffffffffff1673ffffffffffffffffffffffffffffffffffffffff1673ffffffffffffffffffffffffffffffffffffffff168152602001600382015481526020016004820180546106a490611562565b80601f01602080910402602001604051908101604052809291908181526020018280546106d090611562565b801561071d5780601f106106f25761010080835404028352916020019161071d565b820191906000526020600020905b81548152906001019060200180831161070057829003601f168201915b5050505050815260200160058201805461073690611562565b80601f016020809104026020016040519081016040528092919081815260200182805461076290611562565b80156107af5780601f10610784576101008083540402835291602001916107af565b820191906000526020600020905b81548152906001019060200180831161079257829003601f168201915b505050505081526020016006820180546107c890611562565b80601f01602080910402602001604051908101604052809291908181526020018280546107f490611562565b80156108415780601f1061081657610100808354040283529160200191610841565b820191906000526020600020905b81548152906001019060200180831161082457829003601f168201915b505050505081526020016007820160009054906101000a900460ff16151515158152505085858151811061089e577f4e487b7100000000000000000000000000000000000000000000000000000000600052603260045260246000fd5b60200260200101819052506001846108b69190611470565b9350505080806108c5906115c5565b915050610597565b5081935050505090565b606060006002600084815260200190815260200160002060040180546108fc90611562565b80601f016020809104026020016040519081016040528092919081815260200182805461092890611562565b80156109755780601f1061094a57610100808354040283529160200191610975565b820191906000526020600020905b81548152906001019060200180831161095857829003601f168201915b5050505050905080915050919050565b600084116109c8576040517f08c379a00000000000000000000000000000000000000000000000000000000081526004016109bf906112e6565b60405180910390fd5b6109d26000610cfd565b60006109de6000610cef565b90506040518061010001604052808281526020013373ffffffffffffffffffffffffffffffffffffffff168152602001600073ffffffffffffffffffffffffffffffffffffffff16815260200186815260200185815260200184815260200183815260200160001515815250600260008381526020019081526020016000206000820151816000015560208201518160010160006101000a81548173ffffffffffffffffffffffffffffffffffffffff021916908373ffffffffffffffffffffffffffffffffffffffff16021790555060408201518160020160006101000a81548173ffffffffffffffffffffffffffffffffffffffff021916908373ffffffffffffffffffffffffffffffffffffffff160217905550606082015181600301556080820151816004019080519060200190610b1b929190610daf565b5060a0820151816005019080519060200190610b38929190610daf565b5060c0820151816006019080519060200190610b55929190610daf565b5060e08201518160070160006101000a81548160ff021916908315150217905550905050807fb52555d9bfce3c450bb4d1930febcfee9177e6c0402cf25be2c896760a8d90f5336000888888886000604051610bb7979695949392919061121e565b60405180910390a25050505050565b600160009054906101000a900473ffffffffffffffffffffffffffffffffffffffff1681565b6000806002600084815260200190815260200160002060030154905080915050919050565b6000806002600084815260200190815260200160002060010160009054906101000a900473ffffffffffffffffffffffffffffffffffffffff16905080915050919050565b610cec81604051602401610c6a91906112c4565b6040516020818303038152906040527f41304fac000000000000000000000000000000000000000000000000000000007bffffffffffffffffffffffffffffffffffffffffffffffffffffffff19166020820180517bffffffffffffffffffffffffffffffffffffffffffffffffffffffff8381831617835250505050610d13565b50565b600081600001549050919050565b6001816000016000828254019250508190555050565b60008151905060006a636f6e736f6c652e6c6f679050602083016000808483855afa5050505050565b60405180610100016040528060008152602001600073ffffffffffffffffffffffffffffffffffffffff168152602001600073ffffffffffffffffffffffffffffffffffffffff168152602001600081526020016060815260200160608152602001606081526020016000151581525090565b828054610dbb90611562565b90600052602060002090601f016020900481019282610ddd5760008555610e24565b82601f10610df657805160ff1916838001178555610e24565b82800160010185558215610e24579182015b82811115610e23578251825591602001919060010190610e08565b5b509050610e319190610e35565b5090565b5b80821115610e4e576000816000905550600101610e36565b5090565b6000610e65610e60846113d9565b6113b4565b905082815260208101848484011115610e7d57600080fd5b610e88848285611520565b509392505050565b600082601f830112610ea157600080fd5b8135610eb1848260208601610e52565b91505092915050565b600081359050610ec9816116d5565b92915050565b600060208284031215610ee157600080fd5b6000610eef84828501610eba565b91505092915050565b60008060008060808587031215610f0e57600080fd5b6000610f1c87828801610eba565b945050602085013567ffffffffffffffff811115610f3957600080fd5b610f4587828801610e90565b935050604085013567ffffffffffffffff811115610f6257600080fd5b610f6e87828801610e90565b925050606085013567ffffffffffffffff811115610f8b57600080fd5b610f9787828801610e90565b91505092959194509250565b6000610faf838361110c565b905092915050565b610fc0816114d8565b82525050565b610fcf816114d8565b82525050565b610fde816114c6565b82525050565b6000610fef8261141a565b610ff9818561143d565b93508360208202850161100b8561140a565b8060005b8581101561104757848403895281516110288582610fa3565b945061103383611430565b925060208a0199505060018101905061100f565b50829750879550505050505092915050565b611062816114ea565b82525050565b611071816114ea565b82525050565b600061108282611425565b61108c818561144e565b935061109c81856020860161152f565b6110a58161169b565b840191505092915050565b60006110bb82611425565b6110c5818561145f565b93506110d581856020860161152f565b6110de8161169b565b840191505092915050565b60006110f6601c8361145f565b9150611101826116ac565b602082019050919050565b60006101008301600083015161112560008601826111ca565b5060208301516111386020860182610fb7565b50604083015161114b6040860182610fb7565b50606083015161115e60608601826111ca565b50608083015184820360808601526111768282611077565b91505060a083015184820360a08601526111908282611077565b91505060c083015184820360c08601526111aa8282611077565b91505060e08301516111bf60e0860182611059565b508091505092915050565b6111d381611516565b82525050565b6111e281611516565b82525050565b60006020820190506111fd6000830184610fd5565b92915050565b60006020820190506112186000830184610fc6565b92915050565b600060e082019050611233600083018a610fd5565b6112406020830189610fd5565b61124d60408301886111d9565b818103606083015261125f81876110b0565b9050818103608083015261127381866110b0565b905081810360a083015261128781856110b0565b905061129660c0830184611068565b98975050505050505050565b600060208201905081810360008301526112bc8184610fe4565b905092915050565b600060208201905081810360008301526112de81846110b0565b905092915050565b600060208201905081810360008301526112ff816110e9565b9050919050565b600060208201905061131b60008301846111d9565b92915050565b600061010082019050611337600083018b6111d9565b611344602083018a610fc6565b6113516040830189610fc6565b61135e60608301886111d9565b818103608083015261137081876110b0565b905081810360a083015261138481866110b0565b905081810360c083015261139881856110b0565b90506113a760e0830184611068565b9998505050505050505050565b60006113be6113cf565b90506113ca8282611594565b919050565b6000604051905090565b600067ffffffffffffffff8211156113f4576113f361166c565b5b6113fd8261169b565b9050602081019050919050565b6000819050602082019050919050565b600081519050919050565b600081519050919050565b6000602082019050919050565b600082825260208201905092915050565b600082825260208201905092915050565b600082825260208201905092915050565b600061147b82611516565b915061148683611516565b9250827fffffffffffffffffffffffffffffffffffffffffffffffffffffffffffffffff038211156114bb576114ba61160e565b5b828201905092915050565b60006114d1826114f6565b9050919050565b60006114e3826114f6565b9050919050565b60008115159050919050565b600073ffffffffffffffffffffffffffffffffffffffff82169050919050565b6000819050919050565b82818337600083830152505050565b60005b8381101561154d578082015181840152602081019050611532565b8381111561155c576000848401525b50505050565b6000600282049050600182168061157a57607f821691505b6020821081141561158e5761158d61163d565b5b50919050565b61159d8261169b565b810181811067ffffffffffffffff821117156115bc576115bb61166c565b5b80604052505050565b60006115d082611516565b91507fffffffffffffffffffffffffffffffffffffffffffffffffffffffffffffffff8214156116035761160261160e565b5b600182019050919050565b7f4e487b7100000000000000000000000000000000000000000000000000000000600052601160045260246000fd5b7f4e487b7100000000000000000000000000000000000000000000000000000000600052602260045260246000fd5b7f4e487b7100000000000000000000000000000000000000000000000000000000600052604160045260246000fd5b6000601f19601f8301169050919050565b7f5072696365206d757374206265206174206c6561737420312077656900000000600082015250565b6116de81611516565b81146116e957600080fd5b5056fea2646970667358221220fde77759f9eb6d62bdbc255e6cb38ebca8265f254b50783bd441edfa9795bb2d64736f6c63430008040033",
  "linkReferences": {},
  "deployedLinkReferences": {}
}